:020000040020DA
:10400000F87F00201D412000D57E2000D57E2000B5
:10401000D57E2000D57E2000D57E2000D57E2000D4
:10402000D57E2000D57E2000D57E20000B7F20008D
:10403000D57E2000D57E2000D57E2000D57E2000B4
:10404000D57E2000D57E2000D57E2000D57E2000A4
:10405000D57E2000D57E2000D57E2000D57E200094
:10406000D57E2000D57E2000D57E2000D57E200084
:10407000D57E2000D57E2000D57E2000D57E200074
:10408000D57E2000D57E2000D57E2000D57E200064
:10409000D57E2000D57E2000D57E2000D57E200054
:1040A000D57E2000D57E2000D57E2000D57E200044
:1040B000D57E2000D57E2000D57E2000D57E200034
:1040C000D57E2000D57E2000D57E2000D57E200024
:1040D000D57E2000D57E2000D57E2000D57E200014
:1040E000D57E2000D57E2000D57E2000D57E200004
:1040F000D57E2000D57E200010B5074C54F8043C36
:10410000B3F1FF3F06D0043C984754F8043DB3F1A7
:0C411000FF3FF9D110BD00BFF088200077
:10411C0040400949094A086004319142FBDBFFF732
:10412C00E5FF00BF00F0B2F901F002F901B404F0B0
:10413C0045FA02F055F80000280000204C0300203E
:10414C00F0B5CB6881B004460D461746002B2DD038
:10415C0023602B68002623616B68666123622A69E1
:10416C00A661E4616662A66205F10801204603F0CF
:10417C0079F82B69A2686660D218A2F140034FF05F
:10418C00807142F8401C0B4A01A942F001029A636B
:10419C0047F00102DA63204641F8047DE36069468A
:1041AC004FF4406203F048FB01B0F0BD024B1B68BA
:1041BC00CEE700BFE1612000D4000020294B30B5D0
:1041CC00186844682246002C47D063683F2B07D8F8
:1041DC00302B11D0D268002A3FD053683F2BF7D92F
:1041EC00303B5360C1683039C16053B11268302123
:1041FC00D018D150043030BD00235360C168303921
:10420C00C160016801290BD0956875B1D468BCB147
:10421C00EC60D2F80CC00139CCF808500160E5E72D
:10422C000021416081600160E0E70029DED0D4F814
:10423C000CC00139C0F804C00160CCF80850D5E7B7
:10424C000029D3D0D0F808C00139DCF808C00160CF
:10425C00C0F808C0CCF80C40C8E702F021F80020E8
:10426C00C9E700BFA8000020F0B58CB000240A9468
:10427C000A9B4FF4406701930094029403940497B3
:10428C00FFF79CFF44F23012C0F22002694605464B
:10429C00FFF756FF6FF000430B930B9B0126069321
:1042AC000596079408940997FFF788FF47F20D527B
:1042BC00C0F2200205A9FFF743FF40F2F803C2F257
:1042CC0000031E70E86804F0A7F80CB0F0BD00BF46
:1042DC002DE9F0076B4E7368002B76D059680029D6
:1042EC0073D0DFF8A481B24600270022D8F8005022
:1042FC005A60F268521AF2605A68BAB9DAF8004099
:10430C00012C76D09868002800F09B80D3F80CC064
:10431C00BCF1000F00F0A580C0F80CC0DA6890600A
:10432C00DAF80020013ACAF800205A681C68A41870
:10433C0049D00F2947D961602460A760E760EB681A
:10434C0059186B68E960D4F800C06068002B40D045
:10435C00D3F80090604448450CBF1A461A4604D066
:10436C00D26812B111688842FAD159688944CC4597
:10437C0007D0DB68002B2BD01868596841188C4586
:10438C00F7D119461346CBB160685A68821862603F
:10439C002868012802BF6F60AF602F600ED09A684A
:1043AC00002A2ED0D3F80CC0BCF1000F33D0C2F8C9
:1043BC000CC0DB689A602B68013B2B6019B14A6812
:1043CC006368D3184B60736873B9BDE8F007704726
:1043DC0013462968002929D1A160E1602A686C6024
:1043EC000132AC602A60CEE7596800297FF47DAFBA
:1043FC00EBE7CAF80420CAF80820CAF800205A686B
:10440C0094E70028DAD06B68DB686B609A602B68E5
:10441C00013B2B60D2E70028D0D0AB689B68AB6027
:10442C00C3F80CC02B68013B2B60C7E7AA68394660
:10443C00D460AA68E760A2602A68AC6001322A6086
:10444C00A1E7002C3FF472AFDAF80400C068CAF898
:10445C0004008260DAF80020013ACAF800205A6899
:10446C0064E7002C3FF462AFDAF808008068CAF801
:10447C000800C260DAF80020013ACAF800205A6835
:10448C0054E700BF3C030020A8000020704700BF89
:10449C0040F23C03C2F200030A204FF0FF3100222D
:1044AC00596018601A7240F23003C2F2000359606E
:1044BC0018601A72704700BF1C4B1B6899685868CB
:1044CC000A011B6842EA80121A4347F20803C4F23D
:1044DC000D031A6047F20002C4F20D02136813F0C8
:1044EC00800FFBD047F21003C4F20D03186847F29B
:1044FC000C03C4F20D031B68022903EB002080B2ED
:10450C0004BF40F3891080B20DD0032904BF40F3DF
:10451C000B1080B207D0012915BF40F3462040F3A1
:10452C00C81080B280B200B2704700BF48000020B3
:10453C0010B540F24804C2F20004606801F0B4FE09
:10454C00206801F0B1FE10BD012800B504D010B9EF
:10455C00074802F08FFC00BD06480A2383604FF029
:10456C00FF33C36000230374143002F05DFCF2E7E8
:10457C005C0000204800002000B50120FFF7E4FF9C
:10458C0000BD00BF00B50020FFF7DEFF00BD00BF7F
:10459C002DE9F04FDFF8B0560446686A5FFA81FBEC
:1045AC00D8B143684FF0010CDA6822F00102DA60EE
:1045BC00026842F208030CFA02F2C4F20D03196805
:1045CC00D24302EA0101196042F20C03C4F20D035A
:1045DC0019680A401A6001F067FEDFF87086D8F897
:1045EC00000041680B46002900F029834A681F2A05
:1045FC0008D8102A06D0DB68002B00F020835A68FC
:10460C001F2AF6D9103A5A60C268103AC2605A682A
:10461C008AB90668012E00F09A829F68002F00F07C
:10462C00B582D968002900F0D682F960DA68013EBB
:10463C00066097605A681B68102103EB020A9950B8
:10464C000AF1040AE6B248F21F53C5F2EB137601E5
:10465C00A3FB062641F20C03C4F20303196842F2D1
:10466C00080C21F001011960C4F20D0CDCF80010EB
:10467C0041F2000241F00201CCF8001042F20C01B0
:10468C00C4F20D010868C4F2030240F00200086095
:10469C000420106041F20400C4F203000E270760EE
:1046AC00760941F23800C6F12006C4F20300002757
:1046BC0007602020370C906217641663CAF8042038
:1046CC001A684FF0010922F480421A601A68A86A2D
:1046DC0042EA09021A6044F27003C4F20D030F227D
:1046EC001A6044F2F003C4F20D0308221A604CF273
:1046FC002043C4F20D031A68CAF8009042F010026D
:10470C001A60C5F824A0B0B14368DA6822F001023F
:10471C00DA600268DCF8003009FA02F96FEA09097C
:10472C0009EA0303CCF800300B6809EA0309C1F865
:10473C00009001F0B9FDD8F8000041680B46002943
:10474C0000F070824A681F2A08D8102A06D0DB684D
:10475C00002B00F067825A681F2AF6D9103A5A606B
:10476C00C268103AC2605A68CAB9D0F800C0BCF12D
:10477C00010F00F0DD81D3F808A0BAF1000F00F0B2
:10478C00EB81D968002900F01882CAF80C10DA689D
:10479C000CF1FF3CC0F800C0C2F808A05A681B68B6
:1047AC00102103EB020A99500AF1040A0223CAF8F9
:1047BC00003042F20C03C4F20303196842F2080CF5
:1047CC0021F001011960C4F20D0CDCF8001042F26A
:1047DC00000241F00401CCF8001042F20C01C4F2CA
:1047EC000D010868C4F2030240F0040008600420C4
:1047FC00106042F20400C4F203004FF00E09C0F83E
:10480C00009042F23800C4F203004FF00009C0F8E7
:10481C0000902020906217641663CAF804201A686E
:10482C00E86A22F480421A601A68C5F828A042F09F
:10483C0001021A6044F21C03C4F20D0311221A6027
:10484C0044F29C03C4F20D0308221A6049F220437F
:10485C00C4F20D031A6842F080021A60A8B14368D2
:10486C004FF0010EDA6822F00102DA600368DCF81E
:10487C0000200EFA03F3DB4303EA0202CCF800201B
:10488C000A6813400B6001F00FFDD8F80000416876
:10489C000B46002900F0CF814A681F2A08D8102A3D
:1048AC0006D0DB68002B00F0C6815A681F2AF6D9A7
:1048BC00103A5A60C268103AC2605A68CAB9D0F845
:1048CC0000C0BCF1010F00F03881D3F808A0BAF198
:1048DC00000F00F06581D968002900F09581CAF8B5
:1048EC000C10DA680CF1FF3CC0F800C0C2F808A04C
:1048FC005A68196810208B1888500433032243F22D
:10490C0000001A60C4F2030043F20C025860C4F2B7
:10491C000302116821F00101116042F20801C4F296
:10492C000D010A6842F008020A6042F20C02C4F25D
:10493C000D02D2F800C04CF0080CC2F800C04FF0C9
:10494C00040CC0F800C043F20400C4F203004FF0A2
:10495C000E0CC0F800C043F23800C4F203004FF054
:10496C00000CC0F800C058684FF0200CC0F828C0EC
:10497C0058680764586806635868D0F80CC02CF463
:10498C00804CC0F80CC05868EB62D0F80CC04CF0EE
:10499C00010CC0F80CC044F20000C4F20D004FF042
:1049AC00130CC0F800C044F28000C4F20D004FF0AC
:1049BC00080CC0F800C049F22040C4F20D00D0F839
:1049CC0000C04CF0010CC0F800C0286BB8B14368B3
:1049DC004FF0010ED3F80CC02CF0010CC3F80CC036
:1049EC000368D1F800C00EFA03F3DB4303EA0C0CA6
:1049FC00C1F800C011680B40136001F055FCD8F8E9
:104A0C00000041680B46002900F011814A681F2AFA
:104A1C0008D8102A06D0DB68002B00F008815A68F1
:104A2C001F2AF6D9103A5A60C268103AC2605A6806
:104A3C00CAB9D0F800C0BCF1010F00F08380D3F8E4
:104A4C000880B8F1000F00F09480D968002900F0BC
:104A5C00CD80C8F80C10DA680CF1FF3CC0F800C02F
:104A6C00C2F808805A681B681021981899500430B5
:104A7C0040F20C03C4F20303196840F2000221F067
:104A8C000101196042F20801C4F20D01D1F8008055
:104A9C00C4F2030248F00108C1F8008042F20C0194
:104AAC00C4F20D01D1F800804FF0000C48F0010861
:104ABC00C1F800800421116040F20401C4F203012A
:104ACC004FF00E08C1F8008040F23801C4F2030127
:104ADC00C1F800C0202191621764166342601A6805
:104AEC00C0F800C022F480421A601A68286342F0B1
:104AFC0001021A6044F24C03C4F20D030D221A6039
:104B0C0044F2CC03C4F20D0308221A604BF220438A
:104B1C00C4F20D031A6842F008021A60BBF1000FD0
:104B2C0004D04B4B1C605C609C60DC60BDE8F08F7B
:104B3C000260426082605A6831E6026042608260C4
:104B4C005A68D6E60260426082605A688BE702605F
:104B5C00426082605A686EE5BCF1000F3FF41FAEF4
:104B6C00C9680CF1FF3CC0F800C041608A605A680B
:104B7C0015E6BCF1000F3FF476AFC9680CF1FF3CB1
:104B8C00C0F800C041608A605A686CE7002E3FF4A0
:104B9C0052ADC968013E066041608A605A684AE5B8
:104BAC00BCF1000F3FF4A5AEC9680CF1FF3CC0F896
:104BBC0000C041608A605A689BE6BCF1000F3FF46C
:104BCC00EEAD81680CF1FF3C8968C0F800C08160D3
:104BDC00CA605A68E3E5002E3FF42DAD8168013EB2
:104BEC00896806608160CA605A6824E5BCF1000FD0
:104BFC003FF439AF81680CF1FF3C8968C0F800C004
:104C0C008160CA605A682EE7BCF1000F3FF471AEA8
:104C1C0081680CF1FF3C8968C0F800C08160CA60F3
:104C2C005A6866E601F03CFB4FF0000ABEE501F065
:104C3C0037FB00201CE701F033FB00235EE601F09C
:104C4C002FFB4FF0000AFDE448000020A8000020D4
:104C5C000400002000B5FFF72FFC44F6F67300B2F9
:104C6C0093FBF0F00328D8BF64200121FFF790FCE0
:104C7C0000BD00BFF0B5DFF8B056286841680B46A0
:104C8C00002900F037834A681F2A08D8102A06D05A
:104C9C00DB68002B00F02E835A681F2AF6D9103AD5
:104CAC005A60C268103AC2605A688AB90468012C0A
:104CBC0000F094829E68002E00F09F82D968002933
:104CCC0000F0D682F160DA68013C046096605A68A4
:104CDC001B6810219818995004300123036041F28D
:104CEC000C03C4F20303196841F2000221F0010124
:104CFC00196042F20801C4F20D01D1F800C0C4F2EF
:104D0C0003024CF0020CC1F800C042F20C01C4F2D8
:104D1C000D01D1F800C042604CF0020CC1F800C08B
:104D2C000421116041F20401C4F203014FF00E0C96
:104D3C00C1F800C041F23801C4F203014FF0000C7D
:104D4C00C1F800C0202191621D21C2F840C011633E
:104D5C001A68DFF8D84522F480421A601A6860623B
:104D6C0042F001021A6044F27003C4F20D030F22E8
:104D7C001A6044F2F003C4F20D0308221A604CF2DC
:104D8C002043C4F20D0328681A68416842F01002EF
:104D9C001A600B46002900F0B1824A681F2A08D815
:104DAC00102A06D0DB68002B00F0A8825A681F2A54
:104DBC00F6D9103A5A60C268103AC2605A688AB979
:104DCC000668012E00F00F829F68002F00F04682CB
:104DDC00D968002900F05782F960DA68013E066054
:104DEC0097605A68196810208B1888500433022277
:104DFC001A6042F20002C4F2030242F20C015A6041
:104E0C00C4F20301086820F00100086042F20801B6
:104E1C00C4F20D01086840F00400086042F20C0175
:104E2C00C4F20D01086840F0040008600421116010
:104E3C0042F20402C4F203020E21116042F2380263
:104E4C000021C4F2030211605A68202090625A6853
:104E5C00286811645A681D2111635A68D16821F4BD
:104E6C008041D1605A68A362D16841F00101D160E0
:104E7C0044F21C02C4F20D021121116044F29C0296
:104E8C00C4F20D020821116049F22042C4F20D0255
:104E9C00116841F08001116041680B46002900F057
:104EAC003E824A681F2A08D8102A06D0DB68002BDD
:104EBC0000F035825A681F2AF6D9103A5A60C26837
:104ECC00103AC2605A688AB90668012E00F07C81DB
:104EDC009F68002F00F0B881D968002900F0FF818D
:104EEC00F960DA68013E066097605A681B68102109
:104EFC009818995004300323036043F20C03C4F256
:104F0C000303196843F2000221F00101196042F217
:104F1C000801C4F20D01D1F800C0C4F203024CF038
:104F2C00080CC1F800C042F20C01C4F20D01D1F81A
:104F3C0000C042604CF0080CC1F800C004211160A4
:104F4C0043F20401C4F203014FF00E0CC1F800C08F
:104F5C0043F23801C4F203014FF0000CC1F800C059
:104F6C00202191621D21C2F840C011631A68E062D1
:104F7C0022F480421A601A68286842F001021A6012
:104F8C0044F20003C4F20D0313221A6044F28003AE
:104F9C00C4F20D0308221A6049F22043C4F20D0337
:104FAC001A68416842F001021A600B46002900F0B1
:104FBC00B1814A681F2A08D8102A06D0DB68002B5A
:104FCC0000F0A8815A681F2AF6D9103A5A60C268B4
:104FDC00103AC2605A688AB90668012E00F0F9804E
:104FEC009F68002F00F02681D968002900F06C81A1
:104FFC00F960DA68013E066097605A681B681021F8
:10500C0003EB020C99500CF1040C40F20C03C4F2AB
:10501C000303196840F2000221F00101196042F209
:10502C000801C4F20D010E68C4F2030246F0010639
:10503C000E6042F20C01C4F20D010E68002046F025
:10504C0001060E600421116040F20401C4F2030158
:10505C000E260E6040F23801C4F2030108602021D4
:10506C0091621D2110641163CCF804201A68CCF8ED
:10507C00000022F480421A601A68286842F001028B
:10508C001A6044F24C03C4F20D030D221A6044F270
:10509C00CC03C4F20D0308221A604BF22043C4F275
:1050AC000D031A68416842F008021A60C4F830C057
:1050BC000B46002900F02A814A681F2A08D8102ABA
:1050CC0006D0DB68002B00F021815A681F2AF6D924
:1050DC00103A5A60C268103AC2605A688AB90668B7
:1050EC00012E00F085809F68002F00F09980D96810
:1050FC00002900F0DE80F960DA68013E06609760F6
:10510C005A681B681020991898500A1D0E231360BA
:10511C00022353600323936049F20043C4F20D034E
:10512C001968286821F48041196044F2B803C4F26C
:10513C000D0301211960416862600B46002900F0E3
:10514C00E1804A681F2A08D8102A06D0DB68002B99
:10515C0000F0D8805A681F2AF6D9103A5A60C268F3
:10516C00103AC2605A687AB90568012D27D09E683A
:10517C00002E4CD0D968002900F09080F160DA68DC
:10518C00013D056096605A681B681020991898506C
:10519C000A1D05231360022353600323936049F215
:1051AC000043C4F20D031968226021F0200119603C
:1051BC0044F29403C4F20D0301211960F0BD0260A6
:1051CC00426082605A68DFE70260426082605A681F
:1051DC008CE60260426082605A680FE702604260AF
:1051EC0082605A6874E50260426082605A68F9E530
:1051FC000260426082605A6883E7002C3FF468AD1D
:10520C00C968013C046041608A605A6860E5002D01
:10521C00BAD0C968013D056041608A605A68B3E73D
:10522C00002E3FF46EAFC968013E066041608A6093
:10523C005A6866E7002E3FF4E1AEC968013E06608D
:10524C0041608A605A68D9E6002E3FF44FAEC968B7
:10525C00013E066041608A605A6847E6002E3FF4C2
:10526C00C1ADC968013E066041608A605A68B9E503
:10527C00002C3FF42DAD8168013C8968046081608D
:10528C00CA605A6824E5002E3FF4ACAD8168013E3B
:10529C00896806608160CA605A68A3E5002D3FF4F6
:1052AC0073AF8168013D896805608160CA605A6886
:1052BC006AE7002E3FF425AF8168013E89680660DD
:1052CC008160CA605A681CE7002E3FF497AE816873
:1052DC00013E896806608160CA605A688EE6002EBD
:1052EC003FF404AE8168013E896806608160CA6043
:1052FC005A68FBE500F0D4FF0020EEE400F0D0FF8C
:10530C00002374E500F0CCFF002242E700F0C8FF58
:10531C000022FBE600F0C4FF4FF0000C75E600F035
:10532C00BFFF0020E7E500BFA800002048000020D8
:10533C002DE9F04540F2D40A9CB0C2F2000AFFF706
:10534C0099FC0024DAF8003001260F9611941B9674
:10535C001CA90B930BAD1B9B41F80C4D28464FF42D
:10536C0040620C941094129513931494159401F0BC
:10537C0079FF0D9A02F53C6145F6193346F2E117B7
:10538C00C0F22003C0F2200743EA060037434FF077
:10539C008078C2F8C08BC2F8F87BC2F8FC0B0E9177
:1053AC001CA941F8083D28464FF4406202F044FA2B
:1053BC00DAF800300496069418961CA90093189BF2
:1053CC0041F8184D68464FF4406201940594CDF8AD
:1053DC001CD0089309940A9401F044FF029A6E467B
:1053EC0002F53C6145F69163C0F2200343F00100E5
:1053FC00C2F8C08BC2F8F87BC2F8FC0B03911CA955
:10540C0041F8143D4FF44062684602F015FA284604
:10541C0001F056FE684601F053FEFFF789F8684626
:10542C0002F028FC284602F025FC20461CB0BDE802
:10543C00F08500BFC0B26728F0B50C4600F0308292
:10544C00722800F07581622800F0B780DFF8B05642
:10545C00286BD8B143684FF0010CDA6822F00102D6
:10546C00DA60026842F208030CFA02F2C4F20D038D
:10547C001968D24302EA0101196042F20C03C4F22A
:10548C000D0319680A401A6000F00EFFDFF874363D
:10549C00186841680B46002900F029834A681F2AC6
:1054AC0008D8102A06D0DB68002B00F020835A683D
:1054BC001F2AF6D9103A5A60C268103AC2605A686C
:1054CC008AB90668012E00F0A2829F68002F00F0B6
:1054DC00C682D968002900F0F782F960DA68013ECB
:1054EC00066097605A68196810208B18885004332E
:1054FC00E0B248F21F52C5F2EB124001A2FB0010C1
:10550C0040F20002C4F203024FF0000C40F20C0116
:10551C005A60C3F800C0C4F203010E68400926F0BB
:10552C0001060E6042F20801C4F20D010E68C0F1D2
:10553C00200046F001060E6042F20C01C4F20D018F
:10554C000E6846F001060E600421116040F2040260
:10555C00C4F203020E21116040F23802C4F20302BD
:10556C00C2F800C05A68202191625A68010C11647B
:10557C005A6810635A68D16821F48041D1605A6826
:10558C002B63D168DFF8803541F00101D16044F222
:10559C004C02C4F20D020D21116044F2CC02C4F293
:1055AC000D02082111604BF22042C4F20D02116869
:1055BC001C6041F008011160F0BDDFF84455E86A49
:1055CC00D8B143684FF0010CDA6822F00102DA60BE
:1055DC00026842F208030CFA02F2C4F20D031968D5
:1055EC00D24302EA0101196042F20C03C4F20D032A
:1055FC0019680A401A6000F057FEDFF80835186881
:10560C0041680B46002900F06E824A681F2A08D8B0
:10561C00102A06D0DB68002B00F065825A681F2A1E
:10562C00F6D9103A5A60C268103AC2605A688AB900
:10563C000668012E00F0F5819F68002F00F00582AE
:10564C00D968002900F02A82F960DA68013E066008
:10565C0097605A68196810208B1888500433E0B290
:10566C0048F21F52C5F2EB124001A2FB00100322BC
:10567C001A6043F20002C4F2030243F20C015A60B6
:10568C00C4F20301D1F800C040092CF0010CC1F8A0
:10569C0000C042F20801C4F20D01D1F800C0C0F103
:1056AC0020004CF0080CC1F800C042F20C01C4F20E
:1056BC000D01D1F800C04CF0080CC1F800C0042159
:1056CC00116043F20402C4F203020E21116043F292
:1056DC003802C4F20302002111605A682021916241
:1056EC005A68010C11645A6810635A68D16821F425
:1056FC008041D1605A68EB62D168DFF80C3441F01C
:10570C000101D16044F20002C4F20D0213211160B8
:10571C0044F28002C4F20D020821116049F22042C9
:10572C00C4F20D021168DC6041F00101116043E725
:10573C00F34D686AD8B143684FF0010CDA6822F077
:10574C000102DA60026842F208030CFA02F2C4F2B7
:10575C000D031968D24302EA0101196042F20C03ED
:10576C00C4F20D0319680A401A6000F09DFDE54B68
:10577C00186841680B46002900F0B1814A681F2A5D
:10578C0008D8102A06D0DB68002B00F0A8815A68D4
:10579C001F2AF6D9103A5A60C268103AC2605A6889
:1057AC008AB90668012E00F041819F68002F00F035
:1057BC006081D968002900F07C81F960DA68013ECB
:1057CC00066097605A68196810208B18885004334B
:1057DC00E0B248F21F52C5F2EB124001A2FB0010DE
:1057EC0001221A6041F20002C4F2030241F20C01E0
:1057FC005A60C4F20301D1F800C040092CF0010C2E
:10580C00C1F800C042F20801C4F20D01D1F800C089
:10581C00C0F120004CF0020CC1F800C042F20C01A7
:10582C00C4F20D01D1F800C04CF0020CC1F800C05C
:10583C000421116041F20402C4F203020E21116032
:10584C0041F23802C4F20302002111605A6820218F
:10585C0091625A68010C11645A6810635A68D168D5
:10586C0021F48041D1605A686B62D168A64B41F03B
:10587C000101D16044F27002C4F20D020F211160DB
:10588C0044F2F002C4F20D02082111604CF22042E5
:10589C00C4F20D0211685C6041F0100111608BE6DE
:1058AC00974DA86AD8B143684FF0010CDA6822F022
:1058BC000102DA60026842F208030CFA02F2C4F246
:1058CC000D031968D24302EA0101196042F20C037C
:1058DC00C4F20D0319680A401A6000F0E5FC894B0C
:1058EC00186841680B46002900F005814A681F2A98
:1058FC0008D8102A06D0DB68002B00F0FC805A6810
:10590C001F2AF6D9103A5A60C268103AC2605A6817
:10591C0082B90668012E7FD09F68002F00F08B8023
:10592C00D968002900F0AF80F960DA68013E0660A2
:10593C0097605A68196810208B1888500433E0B2AD
:10594C0048F21F52C5F2EB124001A2FB00100222DA
:10595C001A6042F20002C4F2030242F20C015A60D5
:10596C00C4F20301D1F800C040092CF0010CC1F8BD
:10597C0000C042F20801C4F20D01D1F800C0C0F120
:10598C0020004CF0040CC1F800C042F20C01C4F22F
:10599C000D01D1F800C04CF0040CC1F800C004217A
:1059AC00116042F20402C4F203020E21116042F2B1
:1059BC003802C4F20302002111605A68202191625E
:1059CC005A68010C11645A6810635A68D16821F442
:1059DC008041D1605A68AB62D1684B4B41F00101F8
:1059EC00D16044F21C02C4F20D021121116044F288
:1059FC009C02C4F20D020821116049F22042C4F24B
:105A0C000D0211689C6041F080011160D4E50260C8
:105A1C00426082605A6866E50260426082605A6841
:105A2C0088E70260426082605A6813E60260426056
:105A3C0082605A68C7E6002E3FF47CAFC968013E0D
:105A4C00066041608A605A6874E7002E3FF402AE2B
:105A5C00C968013E066041608A605A68FAE5002E0A
:105A6C003FF441ADC968013E066041608A605A68E6
:105A7C0039E5002E3FF4A7AEC968013E06604160CF
:105A8C008A605A689FE6002E3FF454AF8168013E4D
:105A9C00896806608160CA605A684BE7002E3FF443
:105AAC00D9AD8168013E896806608160CA605A6818
:105ABC00D0E5002E3FF487AE8168013E8968066010
:105ACC008160CA605A687EE6002E3FF40CAD816896
:105ADC00013E896806608160CA605A6803E500F07F
:105AEC00DFFB002374E600F0DBFB0023B7E500F0DE
:105AFC00D7FB0023FCE400F0D3FB00231FE700BF1F
:105B0C0048000020A8000020040000202DE9F04FE0
:105B1C0049F2380649F2500591B0DFF820A1484C03
:105B2C00DFF82081C4F208060427C4F2080507E058
:105B3C00BBF1630F4AD0444801F07CF901F060FCE2
:105B4C00414801F081F92378002BF4D0EFF3108356
:105B5C00DBB288F8003072B637602A6803B962B6D7
:105B6C0012F0010FE7D002F07FFA834602F07CFAC4
:105B7C00814602F079FA009002F076FABBF1750FCB
:105B8C00D6D1B9F16E0F4FD0B9F1700FD3D1009AB5
:105B9C0002EB820300EB430040F20403C2F2000369
:105BAC00186158619861D8614FF000024FF0010301
:105BBC0026488AF834208AF8353000F019FB24483E
:105BCC0000F016FB0A22CAF80820B4E7009A4FF03E
:105BDC00000302EB820B00EB4B0B594648468AF84C
:105BEC0034308AF83530FFF725FC1A4800F000FBFA
:105BFC004FF0000301A88DF805308DF8049000F0EB
:105C0C00F7FA154800F0F4FA594601AA134800F0C7
:105C1C000FFC11AA10184FF0000300F8403C01A82B
:105C2C0000F0E6FA0E48C8E74FF001024FF000030F
:105C3C008AF834208AF835300A48BEE7480000203C
:105C4C00B0000020B20000205C0000201086200074
:105C5C000C862000348620003C862000500000205A
:105C6C00A4882000F085200030B53A484368996834
:105C7C00D3F804C00A011B6842EA8C121A4347F29B
:105C8C000803C4F20D031A6047F20002C4F20D02BD
:105C9C00136813F0800FFBD047F21003C4F20D030E
:105CAC001A6847F20C03C4F20D031B68022903EBBC
:105CBC0002239BB218D003290AD0012904BF43F355
:105CCC00C8139BB207D090F83600224C80B930BD77
:105CDC0043F30B139BB21BB2C82BF4DD90F8363098
:105CEC001C4C1BB30120F2E743F389139BB2F2E780
:105CFC00002584F83650184800F07AFA174800F05E
:105D0C0077FA0A23A360164C72206168FFF792FBA6
:105D1C00A1686720FFF78EFBE1686220FFF78AFB22
:105D2C0077202168FFF786FB2846D0E70D4800F066
:105D3C005FFA0A25094800F05BFA0B48A56000F0F1
:105D4C0057FA064800F054FA0120A56084F8360092
:105D5C00BDE700BF48000020C48620000C86200050
:105D6C0004000020488620008C86200010B5444C8E
:105D7C0081B094F820304BB36168E36999425ED0EE
:105D8C0001317220FFF756FB94F821203C4B4ABBA3
:105D9C00996805296BD1012283F8212094F82220DF
:105DAC00374B002A2AD1D968052956D1012283F80C
:105DBC00222094F82320324B002A2BD11968052974
:105DCC005AD001397720FFF735FB2AE061680529A5
:105DDC0031D001397220FFF72DFB94F82120284B8C
:105DEC00002AD5D099689A69914231D1002283F862
:105DFC00212094F82220224B002AD4D0D9685A6949
:105E0C0091422FD1002283F8222094F823201C4B9E
:105E1C00002AD3D019681A69914214D1002283F850
:105E2C00232001A842F2107340F8043D684600F0AC
:105E3C00D7FF01B010BD012384F82030CDE700233B
:105E4C0084F82030C9E701317720FFF7F3FAE8E74F
:105E5C0001316720FFF7EEFACBE701396220FFF73B
:105E6C00E9FAD2E701316220FFF7E4FACDE7013914
:105E7C006720FFF7DFFABCE7012283F82320D0E785
:105E8C000400002030B5114C2546FFF7EDFE58B943
:105E9C0094F83430A3B995F8353063B901F0B0FA01
:105EAC00FFF7E2FE0028F3D00A200021FEF770FB7A
:105EBC0001F0A6FAF4E7FFF759FF01F0A1FAEFE7BA
:105ECC00FEF7C8FE01F09CFAEAE700BF480000208C
:105EDC0030B500F0B9FAA8494B68002B00F03581B9
:105EEC005A6846F20300824209D8B2F5C04F06D078
:105EFC00DB68002B00F029815A688242F5D9A2F5A3
:105F0C00C0425A60CA689C48A2F5C042CA605A682E
:105F1C0092B90468012C00F0CE809968002900F039
:105F2C00FC80DD68002D00F00481CD60DA689160A2
:105F3C000268013A02605A681968DFF840C200230F
:105F4C008C18CCF80030CCF80430CCF80830CCF8F5
:105F5C000C3049D04FF4C0408C506060A360E360BB
:105F6C00DCF80C301B18CCF80C30DCF8043051F891
:105F7C0002E06068002B00F086801D687044A84227
:105F8C000CBF1A461A4604D0D26812B11168884266
:105F9C00FAD159686D18AE4507D0DB68002B71D06B
:105FAC001868596841188E45F7D119461346B3B194
:105FBC0060685A6882186260DCF80000012872D0B0
:105FCC009A68002A7CD0DD68002D00F08780D560AF
:105FDC00DB689A60DCF80030013BCCF8003019B17A
:105FEC004A686368D3184B60654C664BC3F800C0B5
:105FFC0000F0C2FA00F096FB49F20043C4F20D0324
:10600C001A68614822F001021A6044F28003C4F25B
:10601C000D03012247F208011A60C4F20D01B023EE
:10602C0047F20002D0F800C00B60C4F20D021368F6
:10603C0013F0800FFBD047F21001C4F20D010A6877
:10604C0047F20C01C4F20D010B6803EB022144F67C
:10605C006D62C4F2C61202FB0CF303F540533933E4
:10606C0041F30B11B3F1FF3F28BF013381EA030366
:10607C000360464800F0BCF8454800F0B9F80A2324
:10608C00236030BD1346DCF80010002935D1A16027
:10609C00E160DCF80020CCF804400132CCF8084078
:1060AC00CCF8002083E70023CCF80430CCF808307F
:1060BC00CCF8003093E74260826002605A683BE79C
:1060CC0000288CD0DCF80430DB68CCF804309A6003
:1060DC00DCF80030013BCCF8003080E700283FF4BE
:1060EC007EAFDCF808309B68CCF80830DD60DCF85B
:1060FC000030013BCCF8003071E7DCF808200021BF
:10610C00D460DCF80820E160A260DCF80020CCF858
:10611C0008400132CCF8002049E7002C3FF40CAFCA
:10612C004168C96841608A600268013A02605A6835
:10613C0002E7002C3FF400AF816889688160CA6077
:10614C000268013A02605A68F6E60D4C012323728C
:10615C00104800F04DF80E4800F04AF8DFF81CC06B
:10616C000A2323600023CCF80030CCF80430CCF8A0
:10617C000830CCF80C3038E73C03002098000020A5
:10618C0080000020A8000020AC0000202487200004
:10619C000C8620000887200040F200130022C2F277
:1061AC0000031A6040F2FC03C2F200031A6040F2D2
:1061BC008C03C2F200030A204FF0FF3159601860C3
:1061CC001A7240F28003C2F20003596018601A720E
:1061DC00704700BF00B5004601F008FC00BD00BFD1
:1061EC0000B501F003FC00BD00B501F0DDFE00BD03
:1061FC002DE9F045002507467C5D1C4EAA46DFF8CC
:10620C00708084B1092C29D00A2C18D03368204610
:10621C000133336001F072FF33684F2B05DC01351D
:10622C007C5D002CEED1BDE8F0850D2001F066FF01
:10623C000A2001F063FF0135C6F800A0F0E70D203D
:10624C0001F05CFF204601F059FFD8F80030C6F889
:10625C0000A00133C8F800300135E1E7204601F019
:10626C004DFF3368013508333360D9E7FC0000205B
:10627C000001002010B548F26C7040F2800401233C
:10628C00C2F20004C0F220002372FFF7B1FF48F203
:10629C000C60C0F22000FFF7ABFF0A23236010BD97
:1062AC0000B5FFF7A1FF00BD3D4B70B41D6850F861
:1062BC00043C041F0F2B41D9002240F8044C6360AE
:1062CC00A260E260EA68D318EB606B6850F804CC0B
:1062DC006068002B35D01E686044B0420CBF1A4673
:1062EC001A4604D0D26812B111688842FAD15968A2
:1062FC007618B44507D0DB68002B21D01868596894
:10630C0041188C45F7D11946134693B160685A6809
:10631C0082186260286801281DD09A68002A1FD054
:10632C00DE68002E31D0D660DB689A602B68013BAA
:10633C002B6019B14A686368D3184B6070BC704706
:10634C0013462968B1B9A160E1602A686C6001321A
:10635C00AC602A60D9E700236B60AB602B60E8E788
:10636C000028E6D06B68DB686B609A602B68013B99
:10637C002B60DEE7AA680021D460AA68E160A26005
:10638C002A68AC6001322A60BFE70028D1D0AB6824
:10639C009B68AB60DE602B68013B2B60C9E700BFDC
:1063AC00A800002070B400293BD0B1F5807F1BD928
:1063BC00D0F800C0BCF1080F14BF00240124BCF1BC
:1063CC00100F08BF44F0010484B14FF0300C02F8F8
:1063DC0003C0D0F800C00133BCF1100F06D14FF050
:1063EC00780C02F803C00133D0F800C00C465D1CD9
:1063FC00B4FBFCF41E462B46002CF8D10B4C921926
:10640C00B1FBFCF30CFB131C14F80C3002F8013933
:10641C00D0F800C0B1FBFCF10029F1D1284670BCCA
:10642C0070473021D154581CF9E700BF88872000F1
:10643C00002900B503DB0023FFF7B4FF00BD2D23BB
:10644C00137049420123F7E700B500F001F800BDD5
:10645C00DFF81CC147F2F832C2F20002CCEB0202A8
:10646C0070B4002A4AD00023424DCCF800C0CCF8BE
:10647C000420CCF80830CCF80C30EB686446D31808
:10648C00EB606B68002B3CD01E680CEB8200B042BA
:10649C000CBF1A461A4604D0D26812B11168884251
:1064AC00FAD1596806EB8106B44208D0DB68002BA0
:1064BC0026D05868196801EB80018C42F6D1194638
:1064CC001346ABB1DCF804005A688218CCF80420EF
:1064DC002C68284A012C23D09868002825D0DD6828
:1064EC00002D3AD0C560DB6898601368013B1360DF
:1064FC0021B14A68DCF80430D3184B6070BC70478B
:10650C0013462A681B48D2B90121CCF80820CCF8D4
:10651C000C200160C0F804C0C0F808C01146D0E7D8
:10652C000023536093601360E2E7002CE0D05368C3
:10653C00DB68536098601368013B1360D8E781688F
:10654C000132C1F80CC08168CCF808100021CCF8DD
:10655C000C10C0F808C00260B3E7002CC8D09368D8
:10656C009B689360DD601368013B1360C0E700BF5C
:10657C004C0300203C03002000B500F0A1F900F012
:10658C0005FA00F003F800F085F800BD4EF2100398
:10659C004EF21802CEF200030021CEF20002196076
:1065AC0011604EF21402CEF200024FF4FA41116067
:1065BC0006221A6048F2410140F21812C2F200029F
:1065CC00C0F22001D1631A6842F001021A607047D0
:1065DC0040F2B0030022C2F200031A7040F2B10381
:1065EC00C2F200031A7040F2B403C2F2000302219B
:1065FC00196040F22C33C2F200031A6040F22033CF
:10660C00C2F2000349F2380C1A60C4F2080C0323DE
:10661C0049F2400049F24C01CCF8003030B4C4F2DD
:10662C0008000424C4F2080149F244030460C4F2D3
:10663C0008030A601D6845F040051D601D6845F0A3
:10664C0008051D601D6845F008051D602023CCF869
:10665C00004002600B6049F25003C4F208031A6850
:10666C0042F080021A601A6842F010021A6049F275
:10667C001C03C4F2080301221A6049F22403C4F279
:10668C0008031A6049F22C03C4F208031C6030BCE6
:10669C00704700BF00B500F0B9F84BF22043C4F2CC
:1066AC000D031A6822F004021A604BF20043C4F284
:1066BC000D031A6842F004021A604BF21003C4F284
:1066CC000D03FF221A6049F23C02C4F2080213685F
:1066DC0043F001031360136843F002031360136863
:1066EC0013F0800FFBD049F20403C4F208031A68BC
:1066FC0022F001021A60FFF76BFF074B01221A60B0
:10670C00064A074BC3F8F0204EF20413CEF20003F6
:10671C004FF480521A6000BDB4000020A982200002
:10672C001801002000B500F07BF900F001F800BD65
:10673C0010B5324B186841680B46002959D04A688D
:10674C00272A07D8182A05D0DB68002B51D05A68A5
:10675C00272AF7D9183A5A60C268183AC2605A68A0
:10676C0092B9D0F800C0BCF1010F21D09C68002C6C
:10677C0026D0D96800292FD0E160DA680CF1FF3CF3
:10678C00C0F800C094605A68196818208B1888509B
:10679C000433012119721A4900221A6019610A2264
:1067AC0018495A60086840B1DA60174A136010BD86
:1067BC000260426082605A68E6E70B605A68F3E751
:1067CC00BCF1000FE0D0C9680CF1FF3CC0F800C070
:1067DC0041608A605A68D7E7BCF1000FD4D0816859
:1067EC000CF1FF3C8968C0F800C08160CA605A682F
:1067FC00CAE7FFF755FD0023CBE700BFA800002038
:10680C004576200018030020D80000202B48037880
:10681C00002B52D14CF22042C4F20D0213684FF0FF
:10682C00010C23F0400313604CF20043C4F20D033F
:10683C00196821F04001196044F2F801C4F20D010D
:10684C00C1F800C0116821F0800111601A6822F0B3
:10685C0080021A6044F2FC03C4F20D0342F20002FF
:10686C00C3F800C0C4F20D0211684FF6F873CFF6EE
:10687C00DC6301EA030343F4081342F204011360DE
:10688C00C4F20D010A6840F20003C0F2011302EADF
:10689C000303002BF6D142F20003C4F20D031A6875
:1068AC0022F4E0621A6042F20402C4F20D02136890
:1068BC0013F0806FFBD0012303707047B8000020E9
:1068CC0000B5FFF7A3FF42F29803C4F20D031A6858
:1068DC0042F001021A604EF60853CEF200034FF458
:1068EC0001121A6000BD00BF49F21803C4F208037C
:1068FC001A6840F22433C2F20003196841EA02021A
:10690C001A6049F20803C4F208031A6840F22833EB
:10691C00C2F20003196841EA02021A6049F210033C
:10692C00C4F208031A6840F23833C2F20003196843
:10693C0041EA02021A6070470368232B0DD0252B05
:10694C0013D0272B19D0332B01BF43F22403C4F2ED
:10695C0003034FF0FF321A60704740F22403C4F275
:10696C0003034FF0FF321A60F6E741F22403C4F23E
:10697C0003034FF0FF321A60EEE742F22403C4F235
:10698C0003034FF0FF321A60E6E700BF72B64EF613
:10699C001453CEF200031A681A4942F001021A602D
:1069AC004EF280134FF0FF32CEF200031A604EF21B
:1069BC008413CEF200031A60134A0023CA50043326
:1069CC00B3F5807FFAD10F4B104A1148DA600023DF
:1069DC001946C1500433B3F5807F0D4AF9D10D4BE4
:1069EC00C2F88C30C2F89430C2F89C30C2F8CC306B
:1069FC00094BC2F8F030094B136453649364D364AD
:106A0C00704700BF18010020657F2000697F2000BF
:106A1C001802002045692000F5682000757E2000D2
:106A2C0010B5314B186841680B46002957D04A689D
:106A3C00272A07D8182A05D0DB68002B4FD05A68B4
:106A4C00272AF7D9183A5A60C268183AC2605A68AD
:106A5C0092B9D0F800C0BCF1010F1FD09C68002C7B
:106A6C0024D0D96800292DD0E160DA680CF1FF3C04
:106A7C00C0F800C094605A68196818208B188850A8
:106A8C0004331A490122196119491A605A601A72A1
:106A9C00486840B1DA60174A136010BD026042606A
:106AAC0082605A68E8E74B605A68F3E7BCF1000F64
:106ABC00E2D0C9680CF1FF3CC0F800C041608A60AC
:106ACC005A68D9E7BCF1000FD6D081680CF1FF3CB5
:106ADC008968C0F800C08160CA605A68CCE7FFF7CB
:106AEC00DFFB0023CDE700BFA80000205D6B20007A
:106AFC0018030020C0000020014B0360704700BF4A
:106B0C0010882000014B0360704700BF10882000E4
:106B1C0040F2C403C2F2000300221A605A609A6069
:106B2C00704700BF00B5406800F0B0F900BD00BF71
:106B3C00024B00B50360FFF7B7FB00BD10882000C7
:106B4C00024B00B50360FFF7AFFB00BD10882000BF
:106B5C00F0B572B63F4B1A6801321A603E4A1368A0
:106B6C002BB15168486801380028486007DD0023C4
:106B7C0062B61BB1586803689B689847F0BD012B3F
:106B8C003CD0CB680020536098601368013B1360C5
:106B9C00CB6823B1D3F804C04868604458600B68D4
:106BAC009868B0F1FF3F03D0013898600028DFD01F
:106BBC00D3F80CC02848C1F804C01668002E35D094
:106BCC0047687C68A445B8BF3D4609DBF868F8B156
:106BDC00C4EB0C0CC1F804C044680546A44514DA97
:106BEC00A868002829D0CCEB040C0136C5F804C0E9
:106BFC00C160A960CD6088601660B9E7002353605E
:106C0C0093601368013B1360C2E7C0680028DFD1B2
:106C1C009068C4EB0C0CC1608860C1F804C0002003
:106C2C00C8609160116801311160A1E701228E608A
:106C3C00CE600260416081609AE7CCEB040CC5F831
:106C4C0004C08860CF60B960516011680131116077
:106C5C008EE700BFBC000020C400002030B472B628
:106C6C00DFF880C0DCF80410E9B10B68984218BF5B
:106C7C000B462BD0DB68B3B11A689042FAD1DCF822
:106C8C000000184C012811D09D68002D20D0DA6826
:106C9C0092B1EA60DA680138956020601AB15168E7
:106CAC005B68CB18536062B630BC704700226260E0
:106CBC00A2602260DA68F1E70028F4D0A1680138FC
:106CCC0089682060A160CA60DA68E7E70B46D6E7FE
:106CDC0008B9DA68E2E7CA6801386260206095603A
:106CEC00DA68DBE7C400002083603B4BD1F800C0BE
:106CFC001B68C0F800C05B684FF47A7CBCFBF3F3F4
:106D0C0044F2402CC0F20F0CBCFBF3FC0B680021CE
:106D1C0003EB5C03B3FBFCF3F0B54260C3600061B2
:106D2C0043618161C16172B62BB962B613681046BA
:106D3C009B689847F0BD294C00F1100C2668002E7A
:106D4C0032D0676879688B42B8BF3D461ADBFA6867
:106D5C004AB15B1ACCF80430516815468B421FDAE5
:106D6C00436999420EDC5B1A4361A368C3F80CC0FB
:106D7C0083610023C3612368C4F808C00133236016
:106D8C0062B6D7E7AA68CAB1CB1A01366B60C2F8F3
:106D9C000CC0C5F808C0C5618261266062B6C9E73F
:106DAC00D268002AD5D1DBE701238661C661236056
:106DBC00C4F804C0C4F808C062B6BBE7CB1A6B6059
:106DCC00236882610133C761C7F808C02360C4F827
:106DDC0004C062B6AEE700BFC0000020C4000020B3
:106DEC0070B58EB008AC06460021204600F048F87D
:106DFC000B4B31460CAA0C93684601230D94FFF7FC
:106E0C0073FF204600F060F86846FFF727FF054B3C
:106E1C0020466D460C9300F075F80EB070BD00BFA7
:106E2C00FC872000108820000023036043608360EF
:106E3C000373704700B572B6036813B9037362B677
:106E4C0000BD00F05BFDFBE700B572B64FF0010131
:106E5C0000F10C02D2E84F3FC2E84C1FBCF1000F0E
:106E6C00F8D113F0FF0F01D162B600BD00F03EF96E
:106E7C00FBE700BF00B572B600F0E4FB00BD00BF3D
:106E8C000023036043608360C160704710B572B625
:106E9C000C4C4FF001022146D1E84F3FC1E84C2F7A
:106EAC00BCF1000FF8D1DBB2002BF5D1C268C16880
:106EBC0023700131002AC16001DB62B610BD00F005
:106ECC001DFDFBE7D000002010B572B60C4C4FF046
:106EDC0001022146D1E84F3FC1E84C2FBCF1000F15
:106EEC00F8D1DBB2002BF5D1C268C168237001392F
:106EFC00002AC16001DD62B610BD00F0F7F8FBE7B7
:106F0C00D100002000B572B600F09CFB00BD00BFA4
:106F1C00F0B40668002E23D047680D1D7B684A68C4
:106F2C003C1D9A422CDBFB68002B29D0D3F804C003
:106F3C002A681C1D94450EDDD4F800C04A6894459F
:106F4C0015DC83680136D9608B600023CB6006604A
:106F5C008160F0BC7047DA68002AEDD01346E5E793
:106F6C0001238E60CE60036041608160F1E79A6816
:106F7C0042B10136D1609960CB608A600660E8E767
:106F8C003B46D9E701368A60CF60B9600660416044
:106F9C00DFE700BF40F2DC020023C2F20002D36044
:106FAC0013605360936040F2F002C2F2000213606F
:106FBC005360704712F0FF0F18BF0C4B00B51FBF8A
:106FCC001B68DA685A68DA60884209D003694BB1E9
:106FDC0000230B6150F80C3FCB68C96801F0BEFA76
:106FEC0062B600BD01230361F2E700BFD8000020A8
:106FFC0011F0FF0F30B5034600D172B62F4AD1689D
:10700C000868D168D2F80CC003F11C018C4517D06C
:10701C001168012937D05C6A002C27D09D6A002D9D
:10702C0036D0E560D3F828C00139CCF8084011609F
:10703C0002211961D36801221968FFF7BBFF30BD2B
:10704C00116879B1012930D0D2F804C00024DCF8E1
:10705C000CE00139C2F804E01160CEF80840C2F827
:10706C000CC0E5E78C46C2F80CC0E1E70029DFD084
:10707C00D2F804C00139DCF80CC01160C2F804C0AD
:10708C00CCF80840D4E70021516091601160CFE743
:10709C000029CDD0D2F808C00139DCF808C0116045
:1070AC00C2F808C0CCF80C50C2E7D2F804C00021DA
:1070BC00516091601160C2F80CC0B9E7DC0000208F
:1070CC0010B5044672B60369042B03D162B6A368EB
:1070DC00186810BD044B0121DB681B688361806953
:1070EC00FFF786FFF3E700BFDC0000205C492DE9C9
:1070FC00F045CB68CB681A68CB68CB6802F11C06EC
:10710C009E4263D00B68012B00F08380546A002CE4
:10711C0072D0956A002D00F08180E560D2F828C00D
:10712C00013BCCF808400B60D0F8008003231361BE
:10713C00B8F1000F25D0D0F804A002F12007DAF83E
:10714C000430D2F820C00AF104059C452EDA5346CF
:10715C00D5F800E0D2F820C0E6451BDC836808F1C6
:10716C000108DE60536200239362C0F800808660E1
:10717C00CB685061196810460122FFF71BFFBDE870
:10718C00F0850123C2F82480C2F828800360466091
:10719C008660EDE79C68002C56D008F10108E6608B
:1071AC009E6093625462C0F80080E1E7DAF80C301C
:1071BC0023B9CCE7DC68002CCAD02346D3F804E012
:1071CC00D7F800C01D1DE645F4DDC1E70B687BB1A7
:1071DC00012B30D0D1F804C00024DCF80CE0013BCA
:1071EC00C1F804E00B60CEF80840C1F80CC09BE776
:1071FC009C46C1F80CC097E7002B95D0D1F804C081
:10720C00013BDCF80CC00B60C1F804C0CCF80840A2
:10721C008AE700234B608B600B6085E7002B83D0E3
:10722C00D1F808C0013BDCF808C00B60C1F808C0FD
:10723C00CCF80C5078E7D1F804C000234B608B607D
:10724C000B60C1F80CC06FE708F101085462C2F87A
:10725C0028A0CAF80860C0F80080466088E700BF24
:10726C00DC0000202DE9F045044672B6614B624803
:10727C00196804F11C0701311960C368C368002B3D
:10728C0064D0D0F80080B8F1000F1FD0D0F804A063
:10729C0004F12006DAF80410236A0AF10405994275
:1072AC0056DD5346D5F800C0216A8C4569DC8368ED
:1072BC00DF6063620023A3620368876001330360AD
:1072CC004E4B18687AB9A260BDE8F0850123C4F86A
:1072DC002480C4F82880036047608760474B186897
:1072EC000AB9F0E7013212F0030FFBD14568043202
:1072FC000F2A98BF10222B46002D76D0696802F118
:10730C00100C8C4507D9914205D0DB68002B6CD052
:10731C0059686145F7D3891A5960C168891AC160E7
:10732C00596871B90668012E36D09F68002F42D07B
:10733C00DD68002D4BD0FD60D968013E06608F6082
:10734C0059681B6858185A50021DBCE7C760C5E73E
:10735C00DAF80C30002BA4D0D3F804C031681D1D12
:10736C008C459FDCD96800299CD00B46D3F804C00F
:10737C0031681D1D8C45F5DDD5F800C0216A8C45A2
:10738C0095DD996869B108F10108CF609F60A3622F
:10739C006162C0F80080A1E70160416081605968BA
:1073AC00CFE7036861620133C4F828A0CAF80870FB
:1073BC000360476092E7002EC3D0D5F80CC0013EA5
:1073CC000660C0F804C0CCF808105968B9E7002E64
:1073DC00B7D0D0F808C0013EDCF808C00660C0F891
:1073EC0008C0CCF80C105968ABE7FEF759FF002227
:1073FC0069E700BFEC000020DC000020A8000020A2
:10740C00F0B572B63D4BDA68DA681068DA681A685B
:10741C00002A3DD059686FF0004CD1F804E0E645E5
:10742C0036D0012AD3F80CE055D0D1F80CC000248A
:10743C00013AC3F804C01A60CCF808401E682F4A01
:10744C00D960002E2AD057680EF104057A68DEF850
:10745C0004103C1D914243DBFA68002A40D0D2F85C
:10746C0004C02968141D8C4523DDD4F800C0DEF857
:10747C0004108C4522DC9A68C2F80CE0CEF8082087
:10748C000022CEF80C201A68C3F808E001321A600A
:10749C00DB6801221968FFF78DFDF0BD0121CEF8E4
:1074AC000860CEF80C601160C2F804E0C2F808E085
:1074BC00EEE7D1680029D8D00A46D0E7916889B1A7
:1074CC000136C1F80CE0C2F808E0CEF80C20CEF87A
:1074DC0008101E60DCE700225A609A601A60ADE763
:1074EC003A46C2E71A68CEF808100132CEF80C7092
:1074FC00C7F808E01A60C3F804E0C9E7DC00002014
:10750C0030B5114D114C2A682368012B06D962B68F
:10751C0030BF002AF8D0FFF773FFF4E772B60C4CBB
:10752C000C48FEF765FE0A250B48FEF761FE256048
:10753C000A48FEF75DFE0848FEF75AFE256000F08B
:10754C0011FD30BF002030BDDC000020EC0000201D
:10755C0080000020488820000C86200064882000D1
:10756C00344BF0B5DA681C681068DA682CB9DB6843
:10757C0001221968FFF71EFDF0BDD3F80CE05F681F
:10758C000EF104067A68DEF804103D1D914243DBCF
:10759C00FA68002A40D0D2F804C03168151D8C4519
:1075AC001FDDD5F800C0DEF804108C451EDC9A688F
:1075BC001C68C2F80CE0CEF8082001340022CEF88A
:1075CC000C201C60C3F808E04CB1012C1BD05C688B
:1075DC000021E2685A6091601A68013A1A60DC6016
:1075EC00C5E7D1680029DCD00A46D4E79168A9B177
:1075FC000134C1F80CE0C2F808E0CEF80C20CEF84B
:10760C0008101C60E0E700225C689A605A601A68F7
:10761C00DC60013A1A60AAE73A46C2E71C68CEF869
:10762C0008100134CEF80C70C7F808E01C60C3F8E1
:10763C0004E0C9E7DC00002000B572B6FFF790FF4C
:10764C0000BD00BF2DE9F04F434D0446EB680368C5
:10765C00002B74D000264FF001082F46012B40D090
:10766C006268013BD168236061608E601268C2F869
:10767C001080EB68EB68566102F11C0C002B26D0D5
:10768C00D7F800A0BAF1000F30D0D7F8049002F16F
:10769C00200ED9F80410136A09F1040099422EDD6A
:1076AC004B460068116A88423CDCAB68C3F80CC0DE
:1076BC0053622B6896620133C5F808C02B60FFF744
:1076CC004FFF72B62368002BC8D1BDE8F08FC7F806
:1076DC000CC0FFF745FF72B62368002BF5D0012BC9
:1076EC00BED16268A66066602660BFE7566296628D
:1076FC00C7F80080C7F804C0C7F808C0E9E7D9F894
:10770C000C3023B9CCE7D9680029CAD00B46D3F882
:10771C0004B0DEF80010181D8B45F4DD0068116A0A
:10772C008842C2DD996861B10AF1010AC1F80CC046
:10773C00C3F808C093625162C5F800A0C9E762B6ED
:10774C00C3E72B6851620133C2F82890C9F808C00E
:10775C002B60C5F804C0BCE7DC000020F0B572B6A5
:10776C000369022B0AD03048FEF742FD2F48FEF782
:10777C003FFD2F4B0A221A6062B6F0BD2D4A012341
:10778C000361D168D16800F11C0429B31668002E7E
:10779C002DD0576800F120057B68016A07F1040EB3
:1077AC0099421DDBFB68DBB1D3F804C0296803F1F7
:1077BC00040E8C4516DDDEF800C0016A8C451EDC1B
:1077CC009368DC6043620023836213689460013326
:1077DC001360FFF7C5FED0E7D460FFF7C1FECCE71E
:1077EC003B46E8E7D9680029E5D00B46DCE7466262
:1077FC008662136054609460FFF7B2FEBDE799682F
:10780C0041B10136CC609C60836241621660FFF727
:10781C00A7FEB2E71368416201338762BC60136054
:10782C005460FFF79DFEA8E7808820000C8620009E
:10783C0080000020DC000020C368036910B5012B18
:10784C0018D00369B3B12C4BDA68D96800F11C026B
:10785C0091421CD01A68012A29D0416A002935D0DE
:10786C00846A002C3FD0CC60D0F828C0013ACCF808
:10787C0008101A600369012B01D062B610BD026AB0
:10788C006FF000439A42F8D0FFF76AFEF6E71A68E9
:10789C00CAB1012A10D059680024D1F80CC0013AA1
:1078AC00C3F804C01A60CCF80840D960E2E70022A3
:1078BC005A609A601A60DDE7596800225A609A6033
:1078CC001A60D960D6E71146D960D3E7002AD1D027
:1078DC00D3F804C0013ADCF80CC01A60C3F804C039
:1078EC00CCF80810C6E7002AC4D09968013A896818
:1078FC001A609960CC60BDE7DC0000203A4BF0B513
:10790C00DA680268002A37D0012A43D041684FF068
:10791C00000ED1F80CC0013AC0F804C00260CCF8DB
:10792C0008E0096801200861D3F80CC0DD6800226A
:10793C004A6101F11C042C4A002D1FD01668002E40
:10794C0020D0576801F120057A68086A07F1040E07
:10795C00904225DA3A46DEF800C0086A84452EDCEF
:10796C009A68D4604A6200228A621A689C6001326A
:10797C001A60FFF7F5FD00E062B6F0BDD460FFF7CA
:10798C00EFFDFAE74E628E62106054609460FFF770
:10799C00E7FDF2E700224168826042600260C0E7C6
:1079AC00FA6822B9D6E7D0680028D4D00246D2F8BB
:1079BC0004C0286802F1040E8445F4DDCBE790681E
:1079CC0040B10136C46094608A6248621E60FFF761
:1079DC00C7FDD2E71A68486201328F62BC601A6038
:1079EC005C60FFF7BDFDC8E7DC0000202DE9F0412D
:1079FC0072B69E4BDA68DA68D9681268D3F80CC094
:107A0C0002F11C018C4500F09E801968012900F0E0
:107A1C00DF80546A002C00F0AE80956A002D00F0D7
:107A2C00EA80E560D2F828C00139CCF8084019602A
:107A3C0091680860042111618D490868013808605B
:107A4C009169002900F09180916901240C61D2F8B0
:107A5C0018C0D868D86885490CF11C0570B30F683C
:107A6C00002F00F0A180D1F804800CF12006D8F88A
:107A7C000410DCF8200008F104048842C0F2DD8018
:107A8C00D8F80C10002900F0D880D1F804E0306848
:107A9C000C1D86457DDDD4F800E0DCF82000864521
:107AAC0000F38A8099681C68CD60CCF824100134EE
:107ABC000021CCF828101C609D6001E00C68CD60A2
:107ACC00002191616949D8683CB9DB681046196896
:107ADC000122FFF76FFABDE8F081D1F80CE04F6896
:107AEC000EF104067868DEF804103D1D884200F3A0
:107AFC00A280F968002900F09E80D1F804C030689B
:107B0C000D1D84454BDDD5F800C0DEF8040084451E
:107B1C0063DC99681C68C1F80CE0CEF808100134DD
:107B2C000021CEF80C101C60C3F808E04CB1012CFD
:107B3C006FD05C680020E168596088601968013971
:107B4C001960DC60C1E7196889B101296AD0D3F8E2
:107B5C0004C00024DCF80CE00139C3F804E019601F
:107B6C00CEF80840C3F80CC062E71C68AAE78C4644
:107B7C00C3F80CC05CE700293FF45AAFD3F804C03B
:107B8C000139DCF80CC01960C3F804C0CCF808400B
:107B9C004EE7C86800283FF47EAF014675E7C86819
:107BAC000028B0D00146A8E7CCF82470CCF8287097
:107BBC000C604D608D6083E7886800283FD07C1C8A
:107BCC00C5608D60CCF82810CCF824001C6077E7D9
:107BDC0000215960996019602AE78868002839D01B
:107BEC000134C0F80CE0C1F808E0CEF80C10CEF867
:107BFC0008001C609AE700293FF41AAFD3F808C0BC
:107C0C000139DCF808C01960C3F808C0CCF80C5076
:107C1C000EE700215C68996059601968DC600139D5
:107C2C00196052E7D3F804C00021596099601960BB
:107C3C00C3F80CC0FCE6394665E741462BE71C68E7
:107C4C00CCF824000134CCF82880C8F808501C600B
:107C5C005D6035E71C68CEF808000134CEF80C7076
:107C6C00C7F808E01C60C3F804E05FE7DC00002004
:107C7C00EC00002070B5044672B6C3680369032B90
:107C8C0037D8DFE803F05740145C03460A68012A32
:107C9C0000F0AA809D68002D00F0BC80D8680028F8
:107CAC0000F0C180E860DB68013A9D600A606B4DB2
:107CBC0004F11C06EB68EB68002B5ED028463146BD
:107CCC00FFF726F9EA68EA68644B96425BD01A68BB
:107CDC00012A67D0616A002969D0A06A002875D092
:107CEC00C860A06A013A81601A605D4B1A68013A5B
:107CFC001A60A36913B1A069FFF730FD62B6A068E2
:107D0C00FEF7D2FA70BD554DEB68EA6800F11C0322
:107D1C009A4224D02B68012B61D0426A002A6FD082
:107D2C00816A002900F08980D160816A013B8A60F8
:107D3C002B60DAE74FF0FF30FFF758FED9E74169C7
:107D4C0048680028B3D003689C4218BF03469CD0F7
:107D5C00DB68002BABD01A689442F9D196E72B68FC
:107D6C00002B2DD0012B72D06A680020D168013B0A
:107D7C0069602B608860EA60B7E7EE60EA68EA68E1
:107D8C00364B9642A3D11A68EAB1012A31D0596810
:107D9C004FF0000CC868013A58601A60C0F808C06F
:107DAC00E960A2E700225A609A601A609DE7002AF7
:107DBC009BD05868013AC0681A605860816094E79B
:107DCC001A46EA6091E71146E9608EE7002A8CD0EA
:107DDC009968013A89681A609960C86085E7002340
:107DEC006B60AB602B6080E700234B608B600B609B
:107DFC005DE7596800225A609A601A60E96074E77E
:107E0C00002B3FF472AF6968013BC9682B60696055
:107E1C008A606AE7002A3FF44AAFC368013A4B60B4
:107E2C000A609D6043E7002A3FF441AF8B68013A3A
:107E3C009B680A608B60D86039E7002B3FF455AF24
:107E4C00AA68013B92682B60AA60D1604DE76A6812
:107E5C0000236B60AB602B60EA6046E7DC0000201F
:107E6C00EC000020704700BF036840F2D900103BC3
:107E7C00C0F20400181810B4800200F5837292004E
:107E8C00D2F800C040F20412C2F20002D15C4CEAFB
:107E9C000101D15400F5E37140F208128900C2F2DD
:107EAC0000020C6852F823C044EA0C0C42F823C0C0
:107EBC0000F5827303339B004FF0FF321A600B689E
:107ECC000B6010BC704700BFEFF3038000F03F0065
:107EDC0001B500F023F8BDE801404FF001034FEA73
:107EEC0003630C4941F001010B4AA2F101020EB4EB
:107EFC002DE90F10BFF36F8F704707DFFDE7079871
:107F0C0000F400704FEAD01000F120008544BFF35C
:107F1C006F8F7047067F2000457F200000B5054B12
:107F2C0081B053F8203000900BB16846984701B0EF
:107F3C0000BD00BF1802002000B540F2181381B03C
:107F4C0001AAC2F2000342F8040D53F8203068462F
:107F5C00984701B000BD00BF704700BF00B500F0EE
:107F6C0023F800BD48F6A80000B5C0F22000FEF7CB
:107F7C003FF948F20C60C0F22000FEF739F940F2EC
:107F8C008003C2F200030A221A604EF60C53CEF2A2
:107F9C000003196840F2040289B2C0F2FA5241EAB5
:107FAC0002021A6000BD00BF2DE9F04172B61E4DF1
:107FBC001E4E15F8014C4FF000081D4F8CB1092CCA
:107FCC002AD00A2C1BD0336820460133336000F0D2
:107FDC0095F833684F2B08DC013515F8014C002C53
:107FEC00EDD1FFF7BFFFBDE8F0810D2000F086F862
:107FFC000A2000F083F80135C6F80080EDE70D206B
:10800C0000F07CF8204600F079F83B68C6F8008058
:10801C0001333B600135E0E7204600F06FF8336830
:10802C00013508333360D8E7BD882000FC00002000
:10803C000001002030B50B4C0546236823B1DA68EB
:10804C00013ADA60DA683AB1636823B15A682846B3
:10805C00DA601B69984730BD5A68DA601B6998472B
:10806C00F2E700BF1803002010B4224A1378002B4B
:10807C00FCD0EFF31083204CDBB2237072B649F2C4
:10808C00380CC4F2080C042049F25001CCF8000062
:10809C00C4F208010A685AB903B962B6EFF3108347
:1080AC00DBB272B6CCF800000A68002AF4D0237058
:1080BC0049F25C02C4F20802D2F800C049F258023C
:1080CC00C4F20802116849F2A002C4F20802106856
:1080DC0041EA0C22012A01BF49F25002C4F2080203
:1080EC00116821F0010108BF116003B962B6C0B27A
:1080FC0010BC7047B0000020B2000020164B81B0BD
:10810C001B78C0B22BB3EFF31082144BD2B21A709F
:10811C0072B649F238030321C4F20803196049F21C
:10812C009803C4F20803186049F24403C4F208032C
:10813C00196841F00101196000230093009BFE2B8C
:10814C0005DC009B01330093009BFE2BF9DD02B98B
:10815C0062B601B0704700BFB0000020B200002032
:10816C004378053B1D2B10D8DFE803F011570F0F98
:10817C00400F0F0F0F0F0F0F0F0F0F0F0F0F0F0FD2
:10818C000F0F0F0F0F0F0F20226D00207047037879
:10819C00002BFAD18378C27843EA022249F2000319
:1081AC00C4F208031A60364B03221A600120EDE773
:1081BC000378A12BE9D18378C27853EA0222E4D167
:1081CC00304B19681A715A7162F31F0108229A71A7
:1081DC002D4A196013608379C279012043EA022287
:1081EC002A4B072A28BF07221A60CFE70378002BF7
:1081FC00CBD10379427953EA0222C6D18379C27971
:10820C0053EA0222C1D18378C07843EA00200128C6
:10821C00BBD11B4B04221A60B8E70378802BB4D176
:10822C00C378012B1ED0022BAFD1194A164B1A6002
:10823C008379C279012043EA0222144B432A28BFD6
:10824C0043221A60A2E70378212B9ED18379C2794D
:10825C0053EA022299D182780E4B02F001021A7075
:10826C00012093E70C49084A11608279C1791846BC
:10827C0042EA0121054A122928BF1221116085E723
:10828C00B4000020300300202C0300202003002029
:10829C009C872000B1000020E087200070B5574A71
:1082AC0057490023146808681360564A82B00B6063
:1082BC00136018B110F0040F40F09D80002C4FD0CB
:1082CC0014F0010F4CD0504B1A783AB94F4A12782F
:1082DC0022B101221A702020FFF710FF49F2380357
:1082EC00C4F2080300221C681A6049F24403C4F269
:1082FC0008031B6813F0010F3CD049F25803C4F279
:10830C0008031B6849F28001DBB26846C4F208011D
:10831C00934206D9D1F800C000F802C00132082AF5
:10832C00F6D16846FFF71CFFE0B1DFF8E4C0DCF8DB
:10833C00003043B149F24403C4F208031A6842F016
:10834C0040021A601CE049F24403C4F208031A68A4
:10835C0042F048021A6049F23803C4F208031C6068
:10836C0002B070BD49F24403C4F208031A6842F02B
:10837C0060021A60DFF898C0DCF80030002BEAD0FD
:10838C00244E3268C2B149F28005DCF8001000239B
:10839C00C4F20805C85C0133013A2860C818CCF84F
:1083AC000000101E18BF01201F2B8CBF002000F0F6
:1083BC00010032600028EDD17AB949F24403C4F2CD
:1083CC0008031968CCF8002041F00A01196049F241
:1083DC003803C4F208031C60C2E749F24403C4F238
:1083EC0008031A6842F002021A6049F23803C4F218
:1083FC0008031C60B4E7FEF7EBF85FE728030020E6
:10840C002403002038030020B0000020B10000201D
:10841C002C030020200300204F4B70B41D6847F242
:10842C00F833C2F200034FF440625A6000229A60A3
:10843C00DA60EA681B6002F54062EA605A686B68B1
:10844C00002B52D047F2F83CC2F2000C1E68944448
:10845C00B4450CBF1A461A4604D0D26812B1116842
:10846C008C45FAD147F2F831C2F200010C68596818
:10847C007618B44208D0DB68002B35D0D3F800C096
:10848C00596861448C42F6D119461346BBB147F288
:10849C00F832C2F200025468D3F804C0A444C2F803
:1084AC0004C02A68012A2ED09C68002C39D0DE68C2
:1084BC00002E2DD0E660DB68013A9C602A6039B151
:1084CC0047F2F833C2F200035B684A68D3184B607A
:1084DC008546BFF36F8F5DF804CB8CF30388BDE842
:1084EC00FF5F00BD70BC704713462A6812BB47F291
:1084FC00F831C2F200018A60CA606960A96001218A
:10850C0029601146C2E700236B60AB602B60D6E795
:10851C00002AD4D0AB68013A9B682A60AB60DE605D
:10852C00CDE7002ACBD06B68013ADB682A606B6020
:10853C009C60C4E7A96847F2F83CC2F2000CC1F891
:10854C000CC0CCF8081001320021CCF80C102A60B9
:10855C00C5F808C09AE700BFA800002081B04DF80C
:10856C0004CD0FF23A0CCDF804C05DF804CBEFF358
:10857C00038C2DE9FF5FEFF3038C4DF804CDC0F8AD
:10858C0000D08D46BFF36F8F5DF804CB8CF303885E
:10859C00BDE8FF5F4DF804CDDDF804C0E7465DF89B
:1085AC0004CB01B0704700BF40F23C33C2F2000371
:0C85BC0000221A605A609A60DA60704772
:1085C800074B10B51A6852B9064C01221A60636845
:1085D8002BB10434984754F8043F002BFAD110BD4E
:0885E80028000020F4882000A7
:1085F0004E61747572616C204C69676874204163C8
:108600007469766174656421000000000A0000004E
:1086100050726F677265737369766520427269671D
:10862000686E657373204163746976617465642153
:1086300000000000436F6C6F7220000020697320FF
:108640006E6F7720000000005741524E494E473A66
:108650002054686520646576696365206973206FBE
:1086600076657268656174696E672E2E2E20546877
:1086700065204C4544732077696C6C2062652077D7
:1086800065616B656E65642E00000000446F206EAE
:108690006F7420776F7272792C2077652077696C00
:1086A0006C20736179207768656E20697420697326
:1086B000207361666520646F20636F6E74696E75E8
:1086C000652100004E6F77206974277320736166FF
:1086D000652C20796F757220646576696365206901
:1086E00073206E6F74206F76657268656174696E51
:1086F0006720616E796D6F72652120476F20616818
:10870000656164210000000041524D76375F4D4D98
:10871000553A3A616C6C6F632829206661696C6513
:108720006421000044756520746F206C61636B20C8
:108730006F6620656E74726F70792C2052616E6462
:108740006F6D20697320612070736575646F20728E
:10875000616E646F6D206E756D6265727320676502
:108760006E657261746F7221000000005075726551
:10877000205669727475616C206D6574686F642031
:1087800063616C6C656421003031323334353637C7
:1087900038396162636465660000000009024300C5
:1087A000020100A0190904000001020201000524D1
:1087B0000010010424020205240600010524010022
:1087C000010705820340004009040100020A00007D
:1087D00000070583022000000705040200010000D5
:1087E0001201000202000020501D1C600300000066
:1087F000000100000000000000000000116B2000DC
:108800003D6B2000316B20000000000000000000E4
:10881000056B20004D6B200081622000546872655A
:1088200061643A3A70617373203D3E2074687265EA
:10883000616420280000000029206E6F742072659A
:108840006164792100000000546865206C617374D4
:10885000207468726561642068617320657869744A
:10886000656421005265626F6F74696E6720746879
:1088700065206D616368696E65202E2E2E000000F4
:10888000526573756D652063616C6C656420666FFD
:108890007220756E73757370656E646564206F62A7
:1088A0006A656374210000004D616368696E653A12
:1088B0003A7265626F6F74282900000050414E497A
:0488C00043210A0046
:1088C400FFFFFFFF75422000DD4220009D44200091
:1088D40085452000DD5E2000A56120001D6B200081
:1088E400A16F2000717E2000B585200000000000EB
:0C88F400FFFFFFFF914520000000000086
:020000042000DA
:100004000A0000000A0000000A0000000A000000C4
:10001400640000006400000064000000640000004C
:0400240001010101D4
:040000050020411C7A
:020000040027D3
:0CFFD400FFFFFFEF000000000000200015
:00000001FF
