:020000040020DA
:10400000F87F00201D412000A59D2000A59D2000D7
:10401000A59D2000A59D2000A59D2000A59D200018
:10402000A59D2000A59D2000A59D2000DB9D2000D2
:10403000A59D2000A59D2000A59D2000A59D2000F8
:10404000A59D2000A59D2000A59D2000A59D2000E8
:10405000A59D2000A59D2000A59D2000A59D2000D8
:10406000A59D2000A59D2000A59D2000A59D2000C8
:10407000A59D2000A59D2000A59D2000A59D2000B8
:10408000A59D2000A59D2000A59D2000A59D2000A8
:10409000A59D2000A59D2000A59D2000A59D200098
:1040A000A59D2000A59D2000A59D2000A59D200088
:1040B000A59D2000A59D2000A59D2000A59D200078
:1040C000A59D2000A59D2000A59D2000A59D200068
:1040D000A59D2000A59D2000A59D2000A59D200058
:1040E000A59D2000A59D2000A59D2000A59D200048
:1040F000A59D2000A59D200010B5074C54F8043C58
:10410000B3F1FF3F06D0043C984754F8043DB3F1A7
:0C411000FF3FF9D110BD00BF80A92000C6
:10411C0040400949094A086004319142FBDBFFF732
:10412C00E5FF00BF00F0C6F901F00CF901B406F090
:10413C00ADF902F0E5FB000028000020A4030020EC
:10414C00F0B5CB6881B004460D461746002B2DD038
:10415C0023602B68002623616B68666123622A69E1
:10416C00A661E4616662A66205F10801204603F0CF
:10417C008FFE2B69A2686660D218A2F140034FF043
:10418C00807142F8401C0B4A01A942F001029A636B
:10419C0047F00102DA63204641F8047DE36069468A
:1041AC004FF4406204F05EF901B0F0BD024B1B68A5
:1041BC00CEE700BF0169200020010020294B30B55B
:1041CC00186844682246002C47D063683F2B07D8F8
:1041DC00302B11D0D268002A3FD053683F2BF7D92F
:1041EC00303B5360C1683039C16053B11268302123
:1041FC00D018D150043030BD00235360C168303921
:10420C00C160016801290BD0956875B1D468BCB147
:10421C00EC60D2F80CC00139CCF808500160E5E72D
:10422C000021416081600160E0E70029DED0D4F814
:10423C000CC00139C0F804C00160CCF80850D5E7B7
:10424C000029D3D0D0F808C00139DCF808C00160CF
:10425C00C0F808C0CCF80C40C8E702F0B1FB002055
:10426C00C9E700BFF4000020F0B58CB000240A941C
:10427C000A9B4FF4406701930094029403940497B3
:10428C00FFF79CFF44F23012C0F22002694605464B
:10429C00FFF756FF6FF000430B930B9B0126069321
:1042AC000596079408940997FFF788FF48F239128E
:1042BC00C0F2200205A9FFF743FF40F24413C2F2FB
:1042CC0000031E70E86806F00FF80CB0F0BD00BFDC
:1042DC002DE9F0076B4E7368002B76D059680029D6
:1042EC0073D0DFF8A481B24600270022D8F8005022
:1042FC005A60F268521AF2605A68BAB9DAF8004099
:10430C00012C76D09868002800F09B80D3F80CC064
:10431C00BCF1000F00F0A580C0F80CC0DA6890600A
:10432C00DAF80020013ACAF800205A681C68A41870
:10433C0049D00F2947D961602460A760E760EB681A
:10434C0059186B68E960D4F800C06068002B40D045
:10435C00D3F80090604448450CBF1A461A4604D066
:10436C00D26812B111688842FAD159688944CC4597
:10437C0007D0DB68002B2BD01868596841188C4586
:10438C00F7D119461346CBB160685A68821862603F
:10439C002868012802BF6F60AF602F600ED09A684A
:1043AC00002A2ED0D3F80CC0BCF1000F33D0C2F8C9
:1043BC000CC0DB689A602B68013B2B6019B14A6812
:1043CC006368D3184B60736873B9BDE8F007704726
:1043DC0013462968002929D1A160E1602A686C6024
:1043EC000132AC602A60CEE7596800297FF47DAFBA
:1043FC00EBE7CAF80420CAF80820CAF800205A686B
:10440C0094E70028DAD06B68DB686B609A602B68E5
:10441C00013B2B60D2E70028D0D0AB689B68AB6027
:10442C00C3F80CC02B68013B2B60C7E7AA68394660
:10443C00D460AA68E760A2602A68AC6001322A6086
:10444C00A1E7002C3FF472AFDAF80400C068CAF898
:10445C0004008260DAF80020013ACAF800205A6899
:10446C0064E7002C3FF462AFDAF808008068CAF801
:10447C000800C260DAF80020013ACAF800205A6835
:10448C0054E700BF94030020F400002040F23C03EA
:10449C00C2F200030A204FF0FF310022596018606D
:1044AC001A7240F23003C2F20003596018601A729B
:1044BC00704700BF00B502F0D5FD00BD1C4B1B685A
:1044CC00996858680A011B6842EA80121A4347F23D
:1044DC000803C4F20D031A6047F20002C4F20D0285
:1044EC00136813F0800FFBD047F21003C4F20D03D6
:1044FC00186847F20C03C4F20D031B68022903EB86
:10450C00002080B204BF40F3891080B20DD0032983
:10451C0004BF40F30B1080B207D0012915BF40F344
:10452C00462040F3C81080B280B200B2704700BF82
:10453C00480000202DE9F045104D48F2007481B080
:10454C00C0F293342F4640F29E564FF0000A684654
:10455C00009403F05BFA6B68B342C8BFC7F804A0C1
:10456C00F5DC01337B606846009403F04FFA6B680E
:10457C00B342C8BFC7F804A0E9DCF2E7480000204A
:10458C002DE9F0474FF0FF3394B02F488DF84C30A5
:10459C008DF84D3002F0BCF92C4B102200259A609E
:1045AC004FF001080DF14C0A01AFA946274C00232E
:1045BC001AF8051004F108003A4602F083FA14AB1D
:1045CC00181800F84C9C3846002602F0A1F9002D72
:1045DC0032D0B8F1010F32D90A2711AD1C48A760AF
:1045EC0002F096F9616905222846A7601196ADF88C
:1045FC00486002F03FFB174802F08AF9284602F0A7
:10460C0087F9134802F084F904F11800A76003F04D
:10461C0031FA14AA012302F8013D062300935146F6
:10462C002B46A06B05F00EFB04F1180003F018FAF2
:10463C00304614B0BDE8F087074802F069F901353F
:10464C0008F10108B2E700BFFCA4200048000020DC
:10465C0008A520000CA5200004A52000012830B5D9
:10466C000DD058B9124C134BA06304F11800A3627F
:10467C0003F016FA04F13C0003F012FA30BD0C4CB6
:10468C000A230025A36004F13C004FF0FF33E360E4
:10469C00257403F0DFF904F1180003F0DBF9064B85
:1046AC00E562A362054B25631B686563A363E5E7BD
:1046BC0048000020E0A42000C8A4200054010020E1
:1046CC0000B50120FFF7CAFF00BD00BF00B50020F8
:1046DC00FFF7C4FF00BD00BF2DE9F04FDFF80C550C
:1046EC000446E86C81B0C9B20091D8B143684FF070
:1046FC00010CDA6822F00102DA60026842F2080367
:10470C000CFA02F2C4F20D031968D24302EA010159
:10471C00196042F20C03C4F20D0319680A401A60C6
:10472C0002F052F9DFF8C884D8F8000041680B4653
:10473C00002900F053824A681F2A08D8102A06D094
:10474C00DB68002B00F04A825A681F2AF6D9103A0F
:10475C005A60C268103AC2605A688AB90668012E5B
:10476C0000F0E2819F68002F00F0E881D9680029F1
:10477C0000F00882F960DA68013E066097605A68BA
:10478C00196810208B1888500433E6B248F21F5277
:10479C00C5F2EB12760140F20000A2FB06164FF0B8
:1047AC00000CC4F2030040F20C025860C3F800C0C5
:1047BC00C4F203021168760921F00101116042F282
:1047CC000801C4F20D010A68C6F1200642F001028C
:1047DC000A6042F20C02C4F20D02176847F001079E
:1047EC0017600427076040F20400C4F203000E2790
:1047FC00076040F23800C4F20300C0F800C05868EB
:10480C004FF0200CC0F828C05868370C0764586863
:10481C0006635868D0F80CC02CF4804CC0F80CC05F
:10482C005868EB64D0F80CC04CF0010CC0F80CC00C
:10483C0044F27000C4F20D004FF00D0CC0F800C033
:10484C0044F2F000C4F20D004FF0080CC0F800C0A8
:10485C004CF22040C4F20D00D0F800C04CF0100C0B
:10486C00C0F800C0286DB8B143684FF0010ED3F802
:10487C000CC02CF0010CC3F80CC00368D1F800C0BC
:10488C000EFA03F3DB4303EA0C0CC1F800C0116809
:10489C000B40136002F098F8D8F8000041680B4602
:1048AC00002900F096814A681F2A08D8102A06D0E1
:1048BC00DB68002B00F08D815A681F2AF6D9103A5C
:1048CC005A60C268103AC2605A68CAB9D0F800C0BF
:1048DC00BCF1010F00F02D81D3F808A0BAF1000F44
:1048EC0000F04381D968002900F06581CAF80C10EA
:1048FC00DA680CF1FF3CC0F800C0C2F808A05A6896
:10490C001B68102103EB020A99500AF1040A41F2C8
:10491C000C03C4F20303196842F2080C21F00101E4
:10492C001960C4F20D0CDCF8001041F2000241F0E9
:10493C000201CCF8001042F20C01C4F20D0108681F
:10494C00C4F2030240F0020008600420106041F23F
:10495C000400C4F203004FF00E0BC0F800B041F29B
:10496C003800C4F203004FF0000BC0F800B0202058
:10497C00906217641663CAF804201A684FF0010994
:10498C0022F480421A601A68686D42EA09021A60C1
:10499C0044F21C03C4F20D030F221A6044F29C0370
:1049AC00C4F20D0308221A6049F22043C4F20D032D
:1049BC001A68CAF8009042F080021A60C5F850A03C
:1049CC00B0B14368DA6822F00102DA600268DCF800
:1049DC00003009FA02F96FEA090909EA0303CCF875
:1049EC0000300B6809EA0309C1F8009001F0ECFFF4
:1049FC00D8F8000041680B46002900F0F3804A68A3
:104A0C001F2A08D8102A06D0DB68002B00F0EA8099
:104A1C005A681F2AF6D9103A5A60C268103AC26016
:104A2C005A68C2B9D0F800C0BCF1010F77D0D3F8E6
:104A3C000880B8F1000F00F08B80D968002900F0D5
:104A4C00AC80C8F80C10DA680CF1FF3CC0F800C060
:104A5C00C2F808805A681B681021981899500430C5
:104A6C000223036042F20C03C4F20303196842F2FE
:104A7C00000221F00101196042F20801C4F20D019B
:104A8C00D1F800C0C4F203024CF0040CC1F800C011
:104A9C0042F20C01C4F20D01D1F800C042604CF09E
:104AAC00040CC1F800C00421116042F20401C4F2EC
:104ABC0003014FF00E0CC1F800C042F23801C4F2F1
:104ACC0003014FF0000CC1F800C020219162176463
:104ADC0016631A68686522F480421A601A6842F0FC
:104AEC0001021A6044F20003C4F20D0311221A6091
:104AFC0044F28003C4F20D0308221A6049F22043E9
:104B0C00C4F20D031A6842F001021A60009B1BB13B
:104B1C00384B1C605C609C6001B0BDE8F08F02609B
:104B2C00426082605A6896E70260426082605A680E
:104B3C0026E60260426082605A68E1E6002E3FF48D
:104B4C001FAEC968013E066041608A605A6817E66C
:104B5C00BCF1000F3FF47FAFC9680CF1FF3CC0F80B
:104B6C0000C041608A605A6875E7BCF1000F3FF4E1
:104B7C00C7AEC9680CF1FF3CC0F800C041608A6048
:104B8C005A68BDE6002E3FF4FBAD8168013E896892
:104B9C0006608160CA605A68F2E5BCF1000F3FF410
:104BAC005AAF81680CF1FF3C8968C0F800C0816085
:104BBC00CA605A684FE7BCF1000F3FF4A1AE8168A0
:104BCC000CF1FF3C8968C0F800C08160CA605A686B
:104BDC0096E601F0F5FE4FF0000A98E601F0F0FEC3
:104BEC000023D2E501F0ECFE002039E7480000205C
:104BFC00F4000020040000200E4B00B55A68996D9B
:104C0C008A4208DBD96D8A420ADB196E8A420CDBB8
:104C1C005B6E9A4204DB0A200121FFF75DFD00BDAB
:104C2C0032200121FFF758FDF9E763200121FFF73E
:104C3C0053FDF4E74800002000B5FFF73FFC44F6B5
:104C4C00F67300B293FBF0F00328D8BF6420012167
:104C5C00FFF742FD00BD00BF70B5DFF8DC562868D9
:104C6C0041680B46002900F04F834A681F2A08D878
:104C7C00102A06D0DB68002B00F046835A681F2AE6
:104C8C00F6D9103A5A60C268103AC2605A688AB9AA
:104C9C000468012C00F094829E68002E00F09F8224
:104CAC00D968002900F0E282F160DA68013C046006
:104CBC0096605A681B68102198189950043041F27C
:104CCC000C03C4F20303196841F2000221F0010144
:104CDC00196042F20801C4F20D010C68C4F203021F
:104CEC0044F002040C6042F20C01C4F20D010C6899
:104CFC004FF0010C44F002040C600421116041F2ED
:104D0C000401C4F203010E240C6041F238010024AA
:104D1C00C4F203010C60202191621464C2F830C00B
:104D2C0042601A68DFF8144622F480421A601A684E
:104D3C00C0F800C042EA0C021A6044F27003C4F2DC
:104D4C000D030F221A6044F2F003C4F20D03082283
:104D5C001A604CF22043C4F20D03E06428681A6810
:104D6C00416842F010021A600B46002900F0D08214
:104D7C004A681F2A08D8102A06D0DB68002B00F0DE
:104D8C00C7825A681F2AF6D9103A5A60C268103A7C
:104D9C00C2605A68AAB9D0F800C0BCF1010F00F08B
:104DAC0014829E68002E00F05482D968002900F00D
:104DBC006882F160DA680CF1FF3CC0F800C09660C4
:104DCC005A681B681021981899500430022303600C
:104DDC0042F20C03C4F20303196842F2000221F000
:104DEC000101196042F20801C4F20D01D1F800C0B2
:104DFC00C4F203024CF0040CC1F800C042F20C01E6
:104E0C00C4F20D01D1F800C042604CF0040CC1F8A2
:104E1C0000C00421116042F20401C4F203014FF0FE
:104E2C000E0CC1F800C042F23801C4F203014FF07D
:104E3C00000CC1F800C0202191620121C2F840C0D1
:104E4C0011631A68206522F480421A601A68286877
:104E5C000A431A6044F21C03C4F20D0311221A60B7
:104E6C0044F29C03C4F20D0308221A6049F2204359
:104E7C00C4F20D031A68416842F080021A600B46B6
:104E8C00002900F055824A681F2A08D8102A06D03B
:104E9C00DB68002B00F04C825A681F2AF6D9103AB6
:104EAC005A60C268103AC2605A68AAB9D0F800C0F9
:104EBC00BCF1010F00F07A819E68002E00F0BC81DD
:104ECC00D968002900F01282F160DA680CF1FF3C1D
:104EDC00C0F800C096605A68196810208B1888506A
:104EEC00043303221A6043F20002C4F2030243F2B9
:104EFC000C015A60C4F20301086820F0010008603C
:104F0C0042F20801C4F20D01086840F00800086084
:104F1C0042F20C01C4F20D01086840F00800086070
:104F2C000421116043F20402C4F203020E21116049
:104F3C0043F238020021C4F2030211605A682020A7
:104F4C0090625A68286811645A68012111635A6882
:104F5C00D16821F48041D1605A686365D16841F011
:104F6C000101D16044F20002C4F20D021321116060
:104F7C0044F28002C4F20D020821116049F2204271
:104F8C00C4F20D02116841F00101116041680B4639
:104F9C00002900F0C9814A68232A08D8142A06D0AF
:104FAC00DB68002B00F0C0815A68232AF6D9143A2A
:104FBC005A60C268143AC2605A68AAB9D0F800C0E4
:104FCC00BCF1010F00F0F7809E68002E00F02781E5
:104FDC00D968002900F07C81F160DA680CF1FF3CA3
:104FEC00C0F800C096605A68196814208B18885055
:104FFC00043302221A7003225A7008225A604BF2B0
:10500C002002C4F20D029A600022DA604BF22042B8
:10501C00C4F20D02116821F0080111604BF200423C
:10502C00C4F20D02116841F008011160197849F2BF
:10503C001C420903C4F20D028A18596811601978D0
:10504C00D3F804C00803C9000CFA01F149F2187234
:10505C00C4F20D0282181068A36620EA01012868C8
:10506C00116041680B46002900F05A814A681F2ADA
:10507C0008D8102A06D0DB68002B00F051815A6842
:10508C001F2AF6D9103A5A60C268103AC2605A68A0
:10509C00AAB9D0F800C0BCF1010F00F09B809E684B
:1050AC00002E00F0AF80D968002900F00381F16078
:1050BC00DA680CF1FF3CC0F800C096605A681B68B7
:1050CC001020991898500A1D0E2313600223536068
:1050DC000323936049F20043C4F20D031968286856
:1050EC0021F48041196044F2B803C4F20D0301218C
:1050FC0019604168E2660B46002900F00D814A6890
:10510C001F2A08D8102A06D0DB68002B00F0048177
:10511C005A681F2AF6D9103A5A60C268103AC2600F
:10512C005A687AB90568012D3BD09E68002E60D074
:10513C00D968002900F0B380F160DA68013D0560A0
:10514C0096605A681B681020991898500A1D052300
:10515C001360022353600323936049F20043C4F2AB
:10516C000D031968226021F02001196044F29403A8
:10517C00C4F20D0301211960302384F87030704B98
:10518C006367A367E36763614FF4F073A3654FF440
:10519C003473E3654FF48763236640F2EC43636634
:1051AC0070BD0260426082605A68CBE70260426068
:1051BC0082605A6890E60260426082605A6813E727
:1051CC000260426082605A6874E5026042608260EC
:1051DC005A68F6E50260426082605A686FE7002CFC
:1051EC003FF468ADC968013C046041608A605A684C
:1051FC0060E5002DA6D0C968013D056041608A605C
:10520C005A689FE7BCF1000F3FF459AFC9680CF125
:10521C00FF3CC0F800C041608A605A684FE7BCF19F
:10522C00000F3FF4E1AEC9680CF1FF3CC0F800C0C0
:10523C0041608A605A68D7E6BCF1000F3FF44CAE6F
:10524C00C9680CF1FF3CC0F800C041608A605A6824
:10525C0042E6BCF1000F3FF4B4ADC9680CF1FF3C61
:10526C00C0F800C041608A605A68AAE5002C3FF47F
:10527C0021AD8168013C896804608160CA605A680C
:10528C0018E5BCF1000F3FF49CAD81680CF1FF3CBC
:10529C008968C0F800C08160CA605A6891E5002D29
:1052AC003FF450AF8168013D896805608160CA6038
:1052BC005A6847E7BCF1000F3FF401AF81680CF16D
:1052CC00FF3C8968C0F800C08160CA605A68F6E685
:1052DC00BCF1000F3FF488AE81680CF1FF3C89688B
:1052EC00C0F800C08160CA605A687DE6BCF1000F4E
:1052FC003FF4F2AD81680CF1FF3C8968C0F800C046
:10530C008160CA605A68E7E501F05AFB0020D6E4D8
:10531C0001F056FB002059E501F052FB002216E784
:10532C0001F04EFB0022CFE601F04AFB002360E6C1
:10533C0001F046FB0023D4E5F400002048000020D7
:10534C0014A520002DE9F04F40F22016B8B0C2F29F
:10535C000006FFF781FC002433680125259527946E
:10536C00379538A9219321AF379B41F80C4D38461E
:10537C004FF4406222942694289729932A942B94D4
:10538C0002F086FD239A02F53C6146F2014346F693
:10539C00011BC0F22003C0F2200B43EA05004FF0C2
:1053AC0080794BEA050BC2F8C09BC2F8F8BBC2F877
:1053BC00FC0B249138A941F8083D38464FF4406263
:1053CC0003F050F833681A951C94349538A9169349
:1053DC000DF15808349B41F8184D40464FF440628B
:1053EC0017941B94CDF874801E931F94209402F094
:1053FC004FFD189A02F53C6145F62963C0F2200373
:10540C0043EA0500C2F8C09BC2F8F8BBC2F8FC0B1B
:10541C00199138A941F8143D40464FF4406203F00D
:10542C0021F833680F951194319538A90B930DF130
:10543C002C0A319B41F8244D50464FF440620C9499
:10544C001094CDF848A013931494159402F020FDF9
:10545C000D9A02F53C6144F24153C0F2200343EA39
:10546C000500C2F8C09BC2F8F8BBC2F8FC0B0E9149
:10547C0038A941F8203D50464FF4406202F0F2FF4B
:10548C003368049506942E9538A900932E9B41F809
:10549C00304D68464FF4406201940594CDF81CD011
:1054AC00089309940A9402F0F3FC029A6D4602F5F3
:1054BC003C6146F28D33C0F2200343F00100C2F888
:1054CC00C09BC2F8F8BBC2F8FC0B039138A941F899
:1054DC002C3D4FF44062684602F0C4FF384602F09F
:1054EC0005FC404602F002FC504602F0FFFB684609
:1054FC0002F0FCFB684603F0D3F9504603F0D0F9F8
:10550C00404603F0CDF9384603F0CAF9204638B0CE
:10551C00BDE8F08FF0B57F4B81B01B7B05467BB1AE
:10552C007D4A92F87030302B71D0312B00F0A8806E
:10553C00322B0BBF794B794B9367536701B0F0BD9E
:10554C00754C94F8803093B994F88130002B61D06D
:10555C0094F87030302B00F09680312B00F0968050
:10556C00322B0BBF6E4B6E4BA3676367E6E76D4B3D
:10557C00186841680B46002900F0C2804A681F2A4F
:10558C0008D8102A06D0DB68002B00F0B9805A68C6
:10559C001F2AF6D9103A5A60C268103AC2605A688B
:1055AC007AB90668012E74D09F68002F7BD0D96819
:1055BC00002900F08180F960DA68013E066097608E
:1055CC005A681B6810219E1899500436304656496B
:1055DC00022201F0DFFA2946304601F0B3FB3046D7
:1055EC0001F086FB02223018504901F0D3FA94F8EE
:1055FC007030494A302B08BF56619FD0312B08BF01
:10560C00D6679BD0322B0CBF9667566796E7434BF9
:10561C00536193E7434B186846683346002E73D0AA
:10562C0072681F2A07D8102A05D0DB68002B6BD0B4
:10563C005A681F2AF7D9103A5A60C268103AC260E9
:10564C005A6892B90768012F28D0D3F808C0BCF16A
:10565C00000F3BD0DE68002E44D0CCF80C60DA682A
:10566C00013F0760C2F808C05A681B6810209E18DA
:10567C009850043663233370304601F063FBAAE77D
:10568C00264BD3675AE7264B636157E7244BE367F6
:10569C0054E70260426082605A6892E7026042609E
:1056AC0082605A68E1E7002E8BD0C968013E066023
:1056BC0041608A605A6884E7002E82D08168013E7E
:1056CC00896806608160CA605A687AE7002FCCD07E
:1056DC00D6F80CC0013F0760C0F804C0CCF8082015
:1056EC005A68C2E7002FC0D0D0F808C0013FDCF8E0
:1056FC0008C00760C0F808C0CCF80C205A68B4E7A2
:10570C0001F05EF9002661E70091002601F058F9DE
:10571C000099AFE7040000204800002014A52000E9
:10572C0020A52000F40000201CA52000F0A42000DF
:10573C00C0B26728F0B50C4600F07481722800F0F6
:10574C00BD80622800D0F0BDDFF8FC54686DD8B184
:10575C0043684FF0010CDA6822F00102DA6002684B
:10576C0042F208030CFA02F2C4F20D031968D24398
:10577C0002EA0101196042F20C03C4F20D0319682C
:10578C000A401A6001F020F9DFF8C034186841684B
:10579C000B46002900F04F824A681F2A08D8102AAD
:1057AC0006D0DB68002B00F046825A681F2AF6D917
:1057BC00103A5A60C268103AC2605A688AB90668D0
:1057CC00012E00F0E6819F68002F00F0F181D9686E
:1057DC00002900F01682F960DA68013E06609760D5
:1057EC005A68196810208B1888500433E0B248F2BC
:1057FC001F52C5F2EB124001A2FB001002221A60EC
:10580C0042F20002C4F2030242F20C015A60C4F2EA
:10581C000301D1F800C040092CF0010CC1F800C004
:10582C0042F20801C4F20D01D1F800C0C0F1200011
:10583C004CF0040CC1F800C042F20C01C4F20D0192
:10584C00D1F800C04CF0040CC1F800C00421116068
:10585C0042F20402C4F203020E21116042F2380239
:10586C00C4F20302002111605A68202191625A6827
:10587C00010C11645A6810635A68D16821F4804194
:10588C00D1605A686B65D168F14B41F00101D16070
:10589C0044F20002C4F20D021121116044F28002A4
:1058AC00C4F20D020821116049F22042C4F20D022B
:1058BC0011689C6041F00101116044E7E24DE86C15
:1058CC00D8B143684FF0010CDA6822F00102DA60BB
:1058DC00026842F208030CFA02F2C4F20D031968D2
:1058EC00D24302EA0101196042F20C03C4F20D0327
:1058FC0019680A401A6001F067F8D44B18684168BF
:10590C000B46002900F093814A681F2A08D8102AF8
:10591C0006D0DB68002B00F08A815A681F2AF6D962
:10592C00103A5A60C268103AC2605A688AB906685E
:10593C00012E00F038819F68002F00F04381D96858
:10594C00002900F06981F960DA68013E0660976011
:10595C005A68196810208B1888500433E0B248F24A
:10596C001F52C5F2EB124001A2FB001040F20002E4
:10597C00C4F203024FF0000C40F20C015A60C3F861
:10598C0000C0C4F203010E68400926F001060E6047
:10599C0042F20801C4F20D010E68C0F1200046F07D
:1059AC0001060E6042F20C01C4F20D010E6846F0C5
:1059BC0001060E600421116040F20402C4F20302DD
:1059CC000E21116040F23802C4F20302C2F800C08A
:1059DC005A68202191625A68010C11645A6810634C
:1059EC005A68D16821F48041D1605A68EB64D1685F
:1059FC00974B41F00101D16044F27002C4F20D02E8
:105A0C000D21116044F2F002C4F20D020821116064
:105A1C004CF22042C4F20D0211681C6041F01001DE
:105A2C00116090E6884D286DD8B143684FF0010C99
:105A3C00DA6822F00102DA60026842F208030CFA1A
:105A4C0002F2C4F20D031968D24302EA0101196093
:105A5C0042F20C03C4F20D0319680A401A6000F0FC
:105A6C00B3FF7A4B186841680B46002900F0E780B9
:105A7C004A681F2A08D8102A06D0DB68002B00F0D1
:105A8C00DE805A681F2AF6D9103A5A60C268103A5A
:105A9C00C2605A6882B90668012E7FD09F68002FB9
:105AAC0000F09A80D968002900F0A080F960DA68CB
:105ABC00013E066097605A68196810208B18885050
:105ACC000433E0B248F21F52C5F2EB124001A2FBC4
:105ADC00001001221A6041F20002C4F2030241F2EA
:105AEC000C015A60C4F20301D1F800C040092CF03B
:105AFC00010CC1F800C042F20801C4F20D01D1F84A
:105B0C0000C0C0F120004CF0020CC1F800C042F201
:105B1C000C01C4F20D01D1F800C04CF0020CC1F81C
:105B2C0000C00421116041F20402C4F203020E21F0
:105B3C00116041F23802C4F20302002111605A686C
:105B4C00202191625A68010C11645A6810635A68DA
:105B5C00D16821F48041D1605A682B65D1683C4BE7
:105B6C0041F00101D16044F21C02C4F20D020F217C
:105B7C00116044F29C02C4F20D020821116049F23A
:105B8C002042C4F20D0211685C6041F0800111608A
:105B9C00D9E50260426082605A6822E60260426087
:105BAC0082605A6888E70260426082605A68D0E678
:105BBC00002E3FF416AEC968013E066041608A6053
:105BCC005A680EE6002E3FF4C4AEC968013E06606A
:105BDC0041608A605A68BCE6002E3FF46DAFC9681C
:105BEC00013E066041608A605A6865E7002E3FF40A
:105BFC0063AF8168013E896806608160CA605A683B
:105C0C005AE7002E3FF4EDAD8168013E89680660CD
:105C1C008160CA605A68E4E5002E3FF49AAE816850
:105C2C00013E896806608160CA605A6891E600F09E
:105C3C00C7FE002392E600F0C3FE0023D6E500F079
:105C4C00BFFE00233DE700BF48000020F400002009
:105C5C000400002010B52E4C81B0637BD3B12168B9
:105C6C00236999423ED001317220FFF761FD227DFC
:105C7C00274BD2B95968052941D101221A75227FC7
:105C8C00234BE2B9996805293ED001396220FFF710
:105C9C004FFD1AE02168052921D001397220FFF748
:105CAC0047FD227D1A4B002AE4D059689A6991422B
:105CBC0020D100221A75227F154B002AE2D0996858
:105CCC001A6A914211D100221A7701A842F210737C
:105CDC0040F8043D684601F099FE01B010BD012367
:105CEC006373DEE700236373DBE701316220FFF7A8
:105CFC001FFDEAE701316720FFF71AFDDBE70139E9
:105D0C006720FFF715FDD6E701221A77DDE700BF04
:105D1C000400002070B53B48C36E9968D3F804C0EA
:105D2C000A011B6842EA8C121A4347F20803C4F2B8
:105D3C000D031A6047F20002C4F20D02136813F04F
:105D4C00800FFBD047F21003C4F20D031A6847F220
:105D5C000C03C4F20D031B68022903EB02239BB254
:105D6C0018D003290AD0012904BF43F3C8139BB2EE
:105D7C0007D090F88200234C80B970BD43F30B130D
:105D8C009BB21BB2C82BF4DD90F882301D4C13B3C0
:105D9C000120F2E743F389139BB2F2E700251A4E78
:105DAC001A4884F8825000F0B3FD194800F0B0FD99
:105DBC000A2331687220A360FFF7BAFC7168672070
:105DCC00FFF7B6FC6220B168FFF7B2FCA36E284661
:105DDC009B681D60D1E70F4800F09AFD0C4800F05D
:105DEC0097FD0A250C48A56000F092FD084800F0CC
:105DFC008FFD0120A36EA56084F882009B68FF22B2
:105E0C001A60BAE74800002004000020A4A5200076
:105E1C0008A5200028A520006CA5200070B5114D08
:105E2C00114C2E46FFF776FF68B9237BABB995F87A
:105E3C00803043B996F8813053B902F0F7F8FFF788
:105E4C0069FF0028F1D0FFF705FF02F0EFF8F6E745
:105E5C00FEF7D2FE02F0EAF8F1E7FEF7EDFE02F0F3
:105E6C00E5F8ECE748000020040000202DE9F0459F
:105E7C00DFF8B4640446306881B043683BB15A68BB
:105E8C001F2A08D8102A06D0DB68002BF7D100F0A7
:105E9C0097FD00251EE0103A5A60C268103AC260A5
:105EAC005A6892B90568012D00F0A1809968002903
:105EBC0000F0BD81DF68002F00F0C581CF60DA688B
:105ECC0091600268013A02605A681B6810219D18A3
:105EDC0099500435A11C2846022200F0CBFE3068F4
:105EEC0043683BB15A681F2A08D8102A06D0DB68D1
:105EFC00002BF7D100F064FD00261DE0103A5A602B
:105F0C00C268103AC2605A688AB90668012E69D014
:105F1C009968002900F07F81DF68002F00F09F81D5
:105F2C00CF60DA6891600268013A02605A681B68B7
:105F3C0010219E1899500436611C0122304600F045
:105F4C0099FE2378752B24D0312B00F08780322BCF
:105F5C0000F0AF80332B4FD0342B00F0D580742B56
:105F6C0000F0FD80632B00F02581732B30D0EF48BF
:105F7C0000F0CEFCEE4800F0CBFCEE4B0A229A600F
:105F8C00284600F021FD304600F01EFD01B0BDE8B2
:105F9C00F08563786E2B00F06E81702B00F07681AB
:105FAC00632BE4D1E34CE44A0023137384F8803070
:105FBC00E248012384F8813000F0AAFCDC4800F0B0
:105FCC00A7FC0A23A360DE48DE49FFF7A3FAD7E754
:105FDC006378752B00F07681732BC8D1FEF7D0FA5D
:105FEC00D948C5E74260826002605A689FE7426008
:105FFC00826002605A6868E7A2786378A2F504723E
:10600C0003EB830302EB43072279E378A2F50472D6
:10601C0003EB830302EB430404EB8712DFF81483D6
:10602C00BB00D31AC948C8F8603000F071FC39467F
:10603C0008F1080000F0B6FA0746C54800F068FC05
:10604C002146384600F0AEFA0446C24800F060FC27
:10605C00B74800F05DFC0A23236091E7A2786378CF
:10606C00A2F5047203EB830302EB43072279E37876
:10607C00A2F5047203EB830302EB430404EB8712D7
:10608C00DFF8B082BB00D31AB048C8F8583000F023
:10609C003FFC394608F1080000F084FA0746AC488A
:1060AC0000F036FC2146384600F07CFA0446AA483B
:1060BC00CCE7A2786378A2F5047203EB830302EBBE
:1060CC0043072279E378A2F5047203EB830302EB16
:1060DC00430404EB8712DFF85C82BB00D31A9B48A5
:1060EC00C8F85C3000F014FC394608F1080000F0E8
:1060FC0059FA0746964800F00BFC2146384600F04A
:10610C0051FA04469548A1E7A2786378A2F5047287
:10611C0003EB830302EB43072279E378A2F50472C5
:10612C0003EB830302EB430404EB8712DFF80482D6
:10613C00BB00D31A8548C8F8643000F0E9FB394637
:10614C0008F1080000F02EFA0746814800F0E0FB49
:10615C002146384600F026FA0446814876E7A278B4
:10616C006378A2F5047203EB830302EB43072279F5
:10617C00E378A2F5047203EB830302EB430404EB14
:10618C008712DFF8B081BB00D31A7648C8F8043008
:10619C0000F0BEFB394608F1080000F003FA074690
:1061AC006B4800F0B5FB2146384600F0FBF904467D
:1061BC006D484BE7604BDFF87C8100271F7388F834
:1061CC00807088F88170284694F801A000F0C4FD16
:1061DC0001465046FFF7ACFA644800F099FB63782F
:1061EC0068468DF800308DF8017000F091FB604826
:1061FC0000F08EFB284600F08BFB5B4800F088FB20
:10620C004B4800F085FB0A2328463146C8F8083075
:10621C00FFF780F9B4E6002E3FF489AE4168C968F7
:10622C0041608A600268013A02605A687FE6002D7C
:10623C003FF44BAE4168C96841608A600268013A1C
:10624C0002605A6841E6002D3FF43FAE81688968D0
:10625C008160CA600268013A02605A6835E6002E15
:10626C003FF465AE816889688160CA600268013A52
:10627C0002605A685BE6304B2E4C01221A730023E5
:10628C0084F8803084F881303A4895E6284600F04E
:10629C0063FD294B0022274C1A7318629861186110
:1062AC00012384F8803084F88120334800F030FBDF
:1062BC001F4800F02DFB0A23A36028462149FFF755
:1062CC0029F95DE62D4800F023FBA37868468DF88C
:1062DC00003000238DF8013000F01AFB144800F058
:1062EC0017FB144B0A229A60A278302A10D0312A5C
:1062FC0014D0322A06D0332283F87020586FFFF75F
:10630C00B5FD3DE683F87020986FFFF7AFFD37E6DB
:10631C0083F870205869FFF7A9FD31E683F87020E7
:10632C00D86FFFF7A3FD2BE6F400002028A7200070
:10633C0008A52000480000200400002028A620000A
:10634C00F4A42000F8A4200018A7200044A62000E4
:10635C0004A5200094A620004CA620006CA62000CA
:10636C00B4A62000E0A6200014A92000F0A620006E
:10637C00F8A62000E8A5200004A6200004A7200011
:10638C002DE9F04F48F2A06B87B0184F06AE0DF117
:10639C001B0502AC0DF114084FF0060A4FF064090E
:1063AC00C0F2010B124801F065FB31462A46B86B6E
:1063BC002346CDF800A002F095FB03460C48019350
:1063CC0001F04EFB4046CDF8149001F01FFB019BF1
:1063DC00002BE7DD04A8CDF810B001F017FB204628
:1063EC00FFF744FD01F022FEDCE700BF480000206F
:1063FC00600000202DE9F04549F2380649F25005BD
:10640C001B4CDFF870A082B0C4F208060427C4F25B
:10641C000805194801F02EFB23781BB3EFF310830A
:10642C00DBB28AF8003072B637602A6803B962B6FC
:10643C0012F0010F16D003F07FFD8DF8000003F071
:10644C007BFD8DF8010003F077FD8DF8020003F061
:10645C0073FD8DF8030003F06FFD8DF804006846A2
:10646C00FFF704FD044801F0FBFA01F0DFFDD0E773
:10647C00FC000020FE000020840000202DE9F0012B
:10648C00D4B20C7246680023CB6049600F1D002EFD
:10649C0022D0D0F8088098F80430A34222D8D8F83B
:1064AC0008308BB1454693F804C0A44507D9CDB14B
:1064BC000136AF604660CB60BDE8F00170479A686A
:1064CC0012B11D461346EEE7C36801369F600023E8
:1064DC00CB604660C760EFE70123CE604360876006
:1064EC00C760E9E70136C1F80C8046608760E3E7D6
:1064FC0010B44468012C17D0836801F1040C9C453E
:10650C0017D04BB19A682AB1944503D013469268C0
:10651C00002AF9D1CA689A60C268944508BFC36062
:10652C00013C446010BC704700238360C36043602F
:10653C00F8E7002CF6D0CB68013C83604460F1E7AF
:10654C00F0B5846806461746CDB29CB1002001E038
:10655C00A46874B12379AB42FAD120683146036840
:10656C002A46D3F800C03B46E047A4680120002C23
:10657C00F0D1F0BD2046FCE78368C9B27BB10020A6
:10658C0001E09B6843B193F804C08C45F9D122B962
:10659C0018689B68002BF6D17047013AF1E7184652
:1065AC00FAE700BF30B590B06A46044600F0D0FA66
:1065BC0010AB1818002300F8403C684600F0A8F90E
:1065CC006D46204610B030BD30B500F0D5FBB24959
:1065DC004B68002B00F048815A6846F20300824257
:1065EC0009D8B2F5C04F06D0DB68002B00F03C8117
:1065FC005A688242F5D9A2F5C0425A60CA68A648C8
:10660C00A2F5C042CA605A6892B90468012C00F025
:10661C00DE809968002900F00D81DD68002D00F006
:10662C001781CD60DA6891600268013A02605A689D
:10663C001968DFF868C200238C18CCF80030CCF84D
:10664C000430CCF80830CCF80C304CD04FF4C040AF
:10665C008C506060A360E360DCF80C301B18CCF845
:10666C000C30DCF8043051F802E06068002B00F0CC
:10667C0096801D687044A8420CBF1A461A4604D076
:10668C00D26812B111688842FAD159686D18AE45BA
:10669C0008D0DB68002B00F081801868596841181D
:1066AC008E45F6D119461346C3B160685A688218F4
:1066BC006260DCF80000012800F081809A68002AF2
:1066CC0000F08A80DD68002D00F09580D560DB68D5
:1066DC009A60DCF80030013BCCF8003019B14A6804
:1066EC006368D3184B606E4BC3F800C000F0DCFB42
:1066FC0000F0BAFC6B4BDFF8B0C11B68DCF8001083
:10670C001A7D002A40F0A2805C7D003C18BF012459
:10671C0049F20040C4F20D00036847F2000223F076
:10672C000103036044F28000C4F20D0001230360F6
:10673C0047F20800C4F20D00B0230360C4F20D024E
:10674C00136813F0800FFBD047F21000C4F20D0059
:10675C00026847F20C00C4F20D00036803EB022040
:10676C0044F66D62C4F2C61202FB01F101F5405110
:10677C003931B1F1FF3F28BF013184EA010302FB3B
:10678C0003F303F540533933B3F1FF3F28BF013313
:10679C0040F30B125340CCF8003030BD1346DCF8FC
:1067AC000010002936D1A160E160DCF80020CCF8A3
:1067BC0004400132CCF80840CCF8002074E70023E8
:1067CC00CCF80430CCF80830CCF8003086E74260C6
:1067DC00826002605A682BE700283FF47FAFDCF838
:1067EC000430DB68CCF804309A60DCF80030013BF4
:1067FC00CCF8003072E700283FF470AFDCF80830BA
:10680C009B68CCF80830DD60DCF80030013BCCF83C
:10681C00003063E7DCF808200021D460DCF80820A5
:10682C00E160A260DCF80020CCF808400132CCF822
:10683C00002039E7002C3FF4FBAE4168C968416089
:10684C008A600268013A02605A68F1E601245FE747
:10685C00002C3FF4EDAE816889688160CA600268E3
:10686C00013A02605A68E3E6104C01232372104887
:10687C0000F04EF80F4800F04BF8DFF820C00A2368
:10688C0023600023CCF80030CCF80430CCF808306E
:10689C00CCF80C3027E700BF94030020E400002064
:1068AC00F400002054010020F8000020CC0000204F
:1068BC003CA7200008A5200040F24C130022C2F295
:1068CC0000031A6040F24813C2F200031A6040F24F
:1068DC00D803C2F200030A204FF0FF315960186050
:1068EC001A7240F2CC03C2F20003596018601A729B
:1068FC00704700BF00B5004601F08EFE00BD00BF22
:10690C0000B501F089FE00BD00B503F0B5FA00BD7D
:10691C002DE9F045002507467C5D1C4EAA46DFF8A4
:10692C00708084B1092C29D00A2C18D033682046E9
:10693C000133336003F04AFB33684F2B05DC013520
:10694C007C5D002CEED1BDE8F0850D2003F03EFB04
:10695C000A2003F03BFB0135C6F800A0F0E70D2040
:10696C0003F034FB204603F031FBD8F80030C6F8B6
:10697C0000A00133C8F800300135E1E7204603F0F0
:10698C0025FB3368013508333360D9E74801002013
:10699C004C01002010B54AF2587040F2CC0401238F
:1069AC00C2F20004C0F220002372FFF7B1FF4AF2DA
:1069BC000850C0F22000FFF7ABFF0A23236010BD84
:1069CC0000B5FFF7A1FF00BD3D4B70B41D6850F83A
:1069DC00043C041F0F2B41D9002240F8044C636087
:1069EC00A260E260EA68D318EB606B6850F804CCE4
:1069FC006068002B35D01E686044B0420CBF1A464C
:106A0C001A4604D0D26812B111688842FAD159687A
:106A1C007618B44507D0DB68002B21D0186859686C
:106A2C0041188C45F7D11946134693B160685A68E2
:106A3C0082186260286801281DD09A68002A1FD02D
:106A4C00DE68002E31D0D660DB689A602B68013B83
:106A5C002B6019B14A686368D3184B6070BC7047DF
:106A6C0013462968B1B9A160E1602A686C600132F3
:106A7C00AC602A60D9E700236B60AB602B60E8E761
:106A8C000028E6D06B68DB686B609A602B68013B72
:106A9C002B60DEE7AA680021D460AA68E160A260DE
:106AAC002A68AC6001322A60BFE70028D1D0AB68FD
:106ABC009B68AB60DE602B68013B2B60C9E700BFB5
:106ACC00F400002070B400293BD0B1F5807F1BD9B5
:106ADC00D0F800C0BCF1080F14BF00240124BCF195
:106AEC00100F08BF44F0010484B14FF0300C02F8D1
:106AFC0003C0D0F800C00133BCF1100F06D14FF029
:106B0C00780C02F803C00133D0F800C00C465D1CB1
:106B1C00B4FBFCF41E462B46002CF8D10B4C9219FE
:106B2C00B1FBFCF30CFB131C14F80C3002F801390C
:106B3C00D0F800C0B1FBFCF10029F1D1284670BCA3
:106B4C0070473021D154581CF9E700BF74A72000BE
:106B5C00002900B503DB0023FFF7B4FF00BD2D2394
:106B6C00137049420123F7E7302310B41370084C1B
:106B7C0078235370072301F00F0C14F80CC0D018B5
:106B8C000909013B80F802C0F5D20A2010BC7047FD
:106B9C0074A720000F2A30B405460C4642D941EAAE
:106BAC00000313F0030F02BF14468C46034609D0B2
:106BBC00002314F803C005F803C001339A42F8D13E
:106BCC0030BC7047DCF80050103C1D60DCF8045001
:106BDC005D60DCF808509D60DCF80C500CF1100C7A
:106BEC00DD6010330F2CEDD8A2F1100404F00F026D
:106BFC0024F00F04103405190C19032A12D90023A0
:106C0C0054F803C045F803C00433C3EB020CBCF1C9
:106C1C00030FF5D8043A22F003030433ED18E418FB
:106C2C0002F00302002AC3D1CAE700BF41EA000305
:106C3C0013F0030F18BF844614D10B680246A3F15E
:106C4C00013C2CEA030C1CF0803F0AD142F8043BB7
:106C5C0051F8043FA3F1013C2CEA030C1CF0803FDB
:106C6C00F4D094460023CA5C0CF803200133002AAC
:106C7C00F9D1704741EA000313F0030F14BF00234E
:106C8C000123032A94BF002303F0010310B4002B4B
:106C9C002CD00346D1F800C0ACF1013424EA0C042A
:106CAC0014F0803F1BD0C2B10C789C46013A0CF812
:106CBC00014B54B1023382B111F8014F9C4603F8D9
:106CCC00014C013A0133002CF5D132B100231946A5
:106CDC000CF8031001339A42FAD110BC7047043AF5
:106CEC000431032A43F804CBDDD9D3E70346DAE7B2
:106CFC0010F0030F08BF034609D0037803B3034613
:106D0C0001E01A78D2B1013313F0030FF9D11A68EC
:106D1C00A2F1013121EA020212F0803F08D153F8AE
:106D2C00042FA2F1013121EA020212F0803FF6D0C9
:106D3C001A781AB113F8012F002AFBD1181A7047D0
:106D4C001846FCE730B504460D46FFF7D1FF29463F
:106D5C002018FFF76BFF30BD03785BB102460020B3
:106D6C00410001EBC0003038C01812F8013F002B75
:106D7C00F6D170471846FCE700B500F001F800BDED
:106D8C00DFF81CC147F2F832C2F20002CCEB02026F
:106D9C0070B4002A4AD00023424DCCF800C0CCF885
:106DAC000420CCF80830CCF80C30EB686446D318CF
:106DBC00EB606B68002B3CD01E680CEB8200B04281
:106DCC000CBF1A461A4604D0D26812B11168884218
:106DDC00FAD1596806EB8106B44208D0DB68002B67
:106DEC0026D05868196801EB80018C42F6D11946FF
:106DFC001346ABB1DCF804005A688218CCF80420B6
:106E0C002C68284A012C23D09868002825D0DD68EE
:106E1C00002D3AD0C560DB6898601368013B1360A5
:106E2C0021B14A68DCF80430D3184B6070BC704751
:106E3C0013462A681B48D2B90121CCF80820CCF89B
:106E4C000C200160C0F804C0C0F808C01146D0E79F
:106E5C000023536093601360E2E7002CE0D053688A
:106E6C00DB68536098601368013B1360D8E7816856
:106E7C000132C1F80CC08168CCF808100021CCF8A4
:106E8C000C10C0F808C00260B3E7002CC8D093689F
:106E9C009B689360DD601368013B1360C0E700BF23
:106EAC00A40300209403002000B500F01FFB00F0A9
:106EBC0083FB00F00BF800F08DF800F001F800BD3A
:106ECC0000B5002000F04EFA00BD00BF4EF21003DA
:106EDC004EF21802CEF200030021CEF2000219602D
:106EEC0011604EF21402CEF200024FF4FA4111601E
:106EFC0006221A6049F6117140F27012C2F20002B9
:106F0C00C0F22001D1631A6842F001021A60704786
:106F1C0040F2FC030022C2F200031A7040F2FD039F
:106F2C00C2F200031A7040F20013C2F200030221F5
:106F3C00196040F28433C2F200031A6040F27833D5
:106F4C00C2F2000349F2380C1A60C4F2080C032395
:106F5C0049F2400049F24C01CCF8003030B4C4F294
:106F6C0008000424C4F2080149F244030460C4F28A
:106F7C0008030A601D6845F040051D601D6845F05A
:106F8C0008051D601D6845F008051D602023CCF820
:106F9C00004002600B6049F25003C4F208031A6807
:106FAC0042F080021A601A6842F010021A6049F22C
:106FBC001C03C4F2080301221A6049F22403C4F230
:106FCC0008031A6049F22C03C4F208031C6030BC9D
:106FDC00704700BF00B500F02FFA4BF22043C4F20B
:106FEC000D031A6822F004021A604BF20043C4F23B
:106FFC000D031A6842F004021A604BF21003C4F23B
:10700C000D03FF221A6049F23C02C4F20802136815
:10701C0043F001031360136843F002031360136819
:10702C0013F0800FFBD049F20403C4F208031A6872
:10703C0022F001021A60FFF76BFF074B01221A6066
:10704C00064A074BC3F8F0204EF20413CEF20003AD
:10705C004FF480521A6000BD0001002079A120007D
:10706C0070010020704700BF00B500F0EFFA00F08F
:10707C0001F800BD10B5324B186841680B46002969
:10708C0059D04A68272A07D8182A05D0DB68002B64
:10709C0051D05A68272AF7D9183A5A60C268183A58
:1070AC00C2605A6892B9D0F800C0BCF1010F21D06F
:1070BC009C68002C26D0D96800292FD0E160DA68B2
:1070CC000CF1FF3CC0F800C094605A681968182095
:1070DC008B1888500433012119721A4900221A6046
:1070EC0019610A2218495A60086840B1DA60174AD7
:1070FC00136010BD0260426082605A68E6E70B6064
:10710C005A68F3E7BCF1000FE0D0C9680CF1FF3C02
:10711C00C0F800C041608A605A68D7E7BCF1000F24
:10712C00D4D081680CF1FF3C8968C0F800C0816044
:10713C00CA605A68CAE7FFF743FC0023CBE700BFDD
:10714C00F400002071822000700300202401002034
:10715C002DE9F04F42F2A808C4F20D08D8F800301F
:10716C0042F2AC0743F00103C8F80030C4F20D073B
:10717C003B6842F2B00643F001033B60C4F20D06DB
:10718C00336848F2906B43F00103336048F2586265
:10719C0048F28C630024C4F20803C4F2080BC4F256
:1071AC0008024FF0F80C1C60CBF80040C2F800C08D
:1071BC0048F2E872C4F208024FF0090CC2F800C0A1
:1071CC0048F2C8624FF0150CC4F20802C2F800C0B5
:1071DC0048F60402C4F208024FF00B0EC2F800E0AD
:1071EC0048F2B862C4F208024FF0010E48F63809B2
:1071FC00C2F800E0C4F20809EE22C9F80020ED2222
:10720C00C9F8002048F28C52C4F20802146048F20B
:10721C0050624FF0FF0EC4F20802C2F800E048F2D0
:10722C004062C4F20802C2F800E048F29472C4F260
:10723C000802C2F800E048F63402C4F208021460F6
:10724C0048F63002C4F20802146048F62C02C4F26C
:10725C0008021460424A0161026044608460C460A8
:10726C00C461046244628462C46248F2D051046313
:10727C00027DC4F208010A6090F815E048F2D4527D
:10728C00C4F20802C2F800E0096848F2006A01750D
:10729C001268C4F2080A4275DAF8002048F2246534
:1072AC0042F00102CAF8002048F20462C4F208025B
:1072BC001168C4F2080521F02001116048F208623F
:1072CC00C4F20802116881B041F0010111602A6812
:1072DC00446342F040022A600D22826148F23C6213
:1072EC00C4F20802C2F800C02A68846342F020028B
:1072FC002A60C463046444648464009301F0D8FB82
:10730C0048F22862C4F208021168009B41F00101A6
:10731C00116004221A6048F29463C4F20803CBF89B
:10732C0000401C60DAF8003043F00103CAF800306A
:10733C00D8F8003043F00103C8F800303B6843F044
:10734C0001033B60336843F0010333602B6823F087
:10735C000C032B60E323C9F8003001B0BDE8F08FBB
:10736C00E8A7200070B504462F4B186841680B46FF
:10737C00002954D04A685F2A07D8502A05D0DB6808
:10738C00002B4CD05A685F2AF7D9503A5A60C26821
:10739C00503AC2605A6872B90568012D27D09E68B0
:1073AC00002E29D0D96800292FD0F160DA68013D70
:1073BC00056096605A681B6850219D1899500435D9
:1073CC0021462846FFF7C4FE184B194A43F834509F
:1073DC0003EBC4042A236360164BC3F8A8204EF2B7
:1073EC000013CEF200034FF080621A6070BD026091
:1073FC00426082605A68DEE7002DDCD0C968013D2E
:10740C00056041608A605A68D5E7002DD3D0816849
:10741C00013D896805608160CA605A68CBE7FFF757
:10742C00CFFA0025CCE700BFF40000205401002067
:10743C00198D2000700100202B480378002B52D1AD
:10744C004CF22042C4F20D0213684FF0010C23F0F1
:10745C00400313604CF20043C4F20D03196821F091
:10746C004001196044F2F801C4F20D01C1F800C0EA
:10747C00116821F0800111601A6822F080021A60F4
:10748C0044F2FC03C4F20D0342F20002C3F800C044
:10749C00C4F20D0211684FF6F873CFF6DC6301EA03
:1074AC00030343F4081342F204011360C4F20D0108
:1074BC000A6840F20003C0F2011302EA0303002B36
:1074CC00F6D142F20003C4F20D031A6822F4E06212
:1074DC001A6042F20402C4F20D02136813F0806FBA
:1074EC00FBD00123037070470401002000B5FFF7A7
:1074FC00A3FF42F29803C4F20D031A6842F0010292
:10750C001A604EF60853CEF200034FF401121A60C3
:10751C0000BD00BF49F21803C4F208031A6840F218
:10752C007C33C2F20003196841EA02021A6049F284
:10753C000803C4F208031A6840F28033C2F2000355
:10754C00196841EA02021A6049F21003C4F20803F6
:10755C001A6840F29033C2F20003196841EA020241
:10756C001A6070470368232B0DD0252B13D0272BC3
:10757C0019D0332B01BF43F22403C4F203034FF0A1
:10758C00FF321A60704740F22403C4F203034FF039
:10759C00FF321A60F6E741F22403C4F203034FF002
:1075AC00FF321A60EEE742F22403C4F203034FF0F9
:1075BC00FF321A60E6E700BF72B64EF61453CEF2F5
:1075CC0000031A681A4942F001021A604EF2801345
:1075DC004FF0FF32CEF200031A604EF28413CEF25B
:1075EC0000031A60134A0023CA500433B3F5807F9A
:1075FC00FAD10F4B104A1148DA6000231946C150DA
:10760C000433B3F5807F0D4AF9D10D4BC2F88C30A1
:10761C00C2F89430C2F89C30C2F8CC30094BC2F896
:10762C00F030094B136453649364D364704700BF08
:10763C0070010020359E2000399E20007002002031
:10764C007175200021752000459D200010B5314B2F
:10765C00186841680B46002957D04A68272A07D872
:10766C00182A05D0DB68002B4FD05A68272AF7D987
:10767C00183A5A60C268183AC2605A6892B9D0F87F
:10768C0000C0BCF1010F1FD09C68002C24D0D9681D
:10769C0000292DD0E160DA680CF1FF3CC0F800C085
:1076AC0094605A68196818208B18885004331A494A
:1076BC000122196119491A605A601A72486840B15E
:1076CC00DA60174A136010BD0260426082605A682B
:1076DC00E8E74B605A68F3E7BCF1000FE2D0C968E9
:1076EC000CF1FF3CC0F800C041608A605A68D9E7D1
:1076FC00BCF1000FD6D081680CF1FF3C8968C0F852
:10770C0000C08160CA605A68CCE7FFF759F90023C2
:10771C00CDE700BFF4000020897720007003002023
:10772C000C010020014B0360704700BF14A820001F
:10773C00014B0360704700BF14A8200040F21013E7
:10774C00C2F2000300221A605A609A60704700BFB0
:10775C0000B5406800F0B0F900BD00BF024B00B5A9
:10776C000360FFF731F900BD14A82000024B00B5EF
:10777C000360FFF729F900BD14A82000F0B572B61C
:10778C003F4B1A6801321A603E4A13682BB151689C
:10779C00486801380028486007DD002362B61BB139
:1077AC00586803689B689847F0BD012B3CD0CB68A8
:1077BC000020536098601368013B1360CB6823B1C1
:1077CC00D3F804C04868604458600B689868B0F1FE
:1077DC00FF3F03D0013898600028DFD0D3F80CC0ED
:1077EC002848C1F804C01668002E35D047687C685C
:1077FC00A445B8BF3D4609DBF868F8B1C4EB0C0CE6
:10780C00C1F804C044680546A44514DAA8680028E9
:10781C0029D0CCEB040C0136C5F804C0C160A960BA
:10782C00CD6088601660B9E70023536093601368DD
:10783C00013B1360C2E7C0680028DFD19068C4EB3D
:10784C000C0CC1608860C1F804C00020C860916055
:10785C00116801311160A1E701228E60CE600260D7
:10786C00416081609AE7CCEB040CC5F804C08860D9
:10787C00CF60B96051601168013111608EE700BFB3
:10788C00080100201001002030B472B6DFF880C06F
:10789C00DCF80410E9B10B68984218BF0B462BD0EA
:1078AC00DB68B3B11A689042FAD1DCF80000184CCE
:1078BC00012811D09D68002D20D0DA6892B1EA60C1
:1078CC00DA680138956020601AB151685B68CB1892
:1078DC00536062B630BC704700226260A2602260C6
:1078EC00DA68F1E70028F4D0A168013889682060D3
:1078FC00A160CA60DA68E7E70B46D6E708B9DA6830
:10790C00E2E7CA680138626020609560DA68DBE7FC
:10791C001001002083603B4BD1F800C01B68C0F8FD
:10792C0000C05B684FF47A7CBCFBF3F344F2402C50
:10793C00C0F20F0CBCFBF3FC0B68002103EB5C03E7
:10794C00B3FBFCF3F0B54260C3600061436181613D
:10795C00C16172B62BB962B6136810469B68984722
:10796C00F0BD294C00F1100C2668002E32D067684F
:10797C0079688B42B8BF3D461ADBFA684AB15B1A8C
:10798C00CCF80430516815468B421FDA4369994292
:10799C000EDC5B1A4361A368C3F80CC0836100233F
:1079AC00C3612368C4F808C00133236062B6D7E70B
:1079BC00AA68CAB1CB1A01366B60C2F80CC0C5F804
:1079CC0008C0C5618261266062B6C9E7D268002A28
:1079DC00D5D1DBE701238661C6612360C4F804C0FE
:1079EC00C4F808C062B6BBE7CB1A6B60236882612F
:1079FC000133C761C7F808C02360C4F804C062B67D
:107A0C00AEE700BF0C0100201001002070B58EB055
:107A1C0008AC06460021204600F048F80B4B3146D6
:107A2C000CAA0C93684601230D94FFF773FF2046B4
:107A3C0000F060F86846FFF727FF054B20466D46BF
:107A4C000C9300F075F80EB070BD00BF00A82000BC
:107A5C0014A8200000230360436083600373704705
:107A6C0000B572B6036813B9037362B600BD00F0BB
:107A7C005BFDFBE700B572B64FF0010100F10C02A3
:107A8C00D2E84F3FC2E84C1FBCF1000FF8D113F005
:107A9C00FF0F01D162B600BD00F03EF9FBE700BF5D
:107AAC0000B572B600F0E4FB00BD00BF002303601C
:107ABC0043608360C160704710B572B60C4C4FF0D8
:107ACC0001022146D1E84F3FC1E84C2FBCF1000F19
:107ADC00F8D1DBB2002BF5D1C268C168237001313B
:107AEC00002AC16001DB62B610BD00F01DFDFBE792
:107AFC001C01002010B572B60C4C4FF0010221464F
:107B0C00D1E84F3FC1E84C2FBCF1000FF8D1DBB2EC
:107B1C00002BF5D1C268C16823700139002AC160FD
:107B2C0001DD62B610BD00F0F7F8FBE71D01002087
:107B3C0000B572B600F09CFB00BD00BFF0B4066847
:107B4C00002E23D047680D1D7B684A683C1D9A4265
:107B5C002CDBFB68002B29D0D3F804C02A681C1D31
:107B6C0094450EDDD4F800C04A68944515DC836852
:107B7C000136D9608B600023CB6006608160F0BC5D
:107B8C007047DA68002AEDD01346E5E701238E60D2
:107B9C00CE60036041608160F1E79A6842B10136C2
:107BAC00D1609960CB608A600660E8E73B46D9E714
:107BBC0001368A60CF60B96006604160DFE700BFC4
:107BCC0040F228120023C2F20002D360136053600B
:107BDC00936040F23C12C2F2000213605360704793
:107BEC0012F0FF0F18BF0C4B00B51FBF1B68DA68F3
:107BFC005A68DA60884209D003694BB100230B61E3
:107C0C0050F80C3FCB68C96802F010FC62B600BD9E
:107C1C0001230361F2E700BF2401002011F0FF0FE4
:107C2C0030B5034600D172B62F4AD1680868D168C6
:107C3C00D2F80CC003F11C018C4517D01168012936
:107C4C0037D05C6A002C27D09D6A002D36D0E560B9
:107C5C00D3F828C00139CCF8084011600221196111
:107C6C00D36801221968FFF7BBFF30BD116879B1E9
:107C7C00012930D0D2F804C00024DCF80CE0013922
:107C8C00C2F804E01160CEF80840C2F80CC0E5E779
:107C9C008C46C2F80CC0E1E70029DFD0D2F804C052
:107CAC000139DCF80CC01160C2F804C0CCF80840F3
:107CBC00D4E70021516091601160CFE70029CDD04D
:107CCC00D2F808C00139DCF808C01160C2F808C04D
:107CDC00CCF80C50C2E7D2F804C00021516091607E
:107CEC001160C2F80CC0B9E72801002010B5044699
:107CFC0072B60369042B03D162B6A368186810BD71
:107D0C00044B0121DB681B6883618069FFF786FFE8
:107D1C00F3E700BF280100205C492DE9F045CB6852
:107D2C00CB681A68CB68CB6802F11C069E4263D004
:107D3C000B68012B00F08380546A002C72D0956A7A
:107D4C00002D00F08180E560D2F828C0013BCCF812
:107D5C0008400B60D0F8008003231361B8F1000FCA
:107D6C0025D0D0F804A002F12007DAF80430D2F8BC
:107D7C0020C00AF104059C452EDA5346D5F800E0E4
:107D8C00D2F820C0E6451BDC836808F10108DE60F0
:107D9C00536200239362C0F800808660CB68506108
:107DAC00196810460122FFF71BFFBDE8F08501237F
:107DBC00C2F82480C2F82880036046608660EDE734
:107DCC009C68002C56D008F10108E6609E60936216
:107DDC005462C0F80080E1E7DAF80C3023B9CCE744
:107DEC00DC68002CCAD02346D3F804E0D7F800C0D6
:107DFC001D1DE645F4DDC1E70B687BB1012B30D0CE
:107E0C00D1F804C00024DCF80CE0013BC1F804E01C
:107E1C000B60CEF80840C1F80CC09BE79C46C1F83B
:107E2C000CC097E7002B95D0D1F804C0013BDCF8CF
:107E3C000CC00B60C1F804C0CCF808408AE70023E2
:107E4C004B608B600B6085E7002B83D0D1F808C0AA
:107E5C00013BDCF808C00B60C1F808C0CCF80C5032
:107E6C0078E7D1F804C000234B608B600B60C1F83D
:107E7C000CC06FE708F101085462C2F828A0CAF8D8
:107E8C000860C0F80080466088E700BF2801002029
:107E9C002DE9F045044672B6614B6248196804F14D
:107EAC001C0701311960C368C368002B64D0D0F87B
:107EBC000080B8F1000F1FD0D0F804A004F1200608
:107ECC00DAF80410236A0AF10405994256DD534688
:107EDC00D5F800C0216A8C4569DC8368DF60636279
:107EEC000023A36203688760013303604E4B18685C
:107EFC007AB9A260BDE8F0850123C4F82480C4F8E7
:107F0C002880036047608760474B18680AB9F0E720
:107F1C00013212F0030FFBD1456804320F2A98BFCF
:107F2C0010222B46002D76D0696802F1100C8C457E
:107F3C0007D9914205D0DB68002B6CD0596861459C
:107F4C00F7D3891A5960C168891AC160596871B927
:107F5C000668012E36D09F68002F42D0DD68002DB8
:107F6C004BD0FD60D968013E06608F6059681B6874
:107F7C0058185A50021DBCE7C760C5E7DAF80C3038
:107F8C00002BA4D0D3F804C031681D1D8C459FDC98
:107F9C00D96800299CD00B46D3F804C031681D1D4C
:107FAC008C45F5DDD5F800C0216A8C4595DD9968C6
:107FBC0069B108F10108CF609F60A3626162C0F8EB
:107FCC000080A1E70160416081605968CFE70368D8
:107FDC0061620133C4F828A0CAF8087003604760D6
:107FEC0092E7002EC3D0D5F80CC0013E0660C0F855
:107FFC0004C0CCF808105968B9E7002EB7D0D0F8F7
:10800C0008C0013EDCF808C00660C0F808C0CCF817
:10801C000C105968ABE7FEF7D3FC002269E700BFF0
:10802C003801002028010020F4000020F0B572B6C1
:10803C003D4BDA68DA681068DA681A68002A3DD0B5
:10804C0059686FF0004CD1F804E0E64536D0012AAF
:10805C00D3F80CE055D0D1F80CC00024013AC3F889
:10806C0004C01A60CCF808401E682F4AD960002E54
:10807C002AD057680EF104057A68DEF804103C1D0E
:10808C00914243DBFA68002A40D0D2F804C0296838
:10809C00141D8C4523DDD4F800C0DEF804108C458B
:1080AC0022DC9A68C2F80CE0CEF808200022CEF848
:1080BC000C201A68C3F808E001321A60DB68012250
:1080CC001968FFF78DFDF0BD0121CEF80860CEF8E0
:1080DC000C601160C2F804E0C2F808E0EEE7D16869
:1080EC000029D8D00A46D0E7916889B10136C1F889
:1080FC000CE0C2F808E0CEF80C20CEF808101E6098
:10810C00DCE700225A609A601A60ADE73A46C2E793
:10811C001A68CEF808100132CEF80C70C7F808E0D7
:10812C001A60C3F804E0C9E72801002030B5114DEE
:10813C00114C2A682368012B06D962B630BF002A7D
:10814C00F8D0FFF773FFF4E772B60C4C0C48FEF74F
:10815C00DFFB0A250B48FEF7DBFB25600A48FEF720
:10816C00D7FB0848FEF7D4FB256001F063FE30BF57
:10817C00002030BD2801002038010020CC00002058
:10818C004CA8200008A5200068A82000344BF0B5AE
:10819C00DA681C681068DA682CB9DB680122196887
:1081AC00FFF71EFDF0BDD3F80CE05F680EF104067E
:1081BC007A68DEF804103D1D914243DBFA68002A10
:1081CC0040D0D2F804C03168151D8C451FDDD5F8A0
:1081DC0000C0DEF804108C451EDC9A681C68C2F8DE
:1081EC000CE0CEF8082001340022CEF80C201C60E4
:1081FC00C3F808E04CB1012C1BD05C680021E2688C
:10820C005A6091601A68013A1A60DC60C5E7D1685F
:10821C000029DCD00A46D4E79168A9B10134C1F831
:10822C000CE0C2F808E0CEF80C20CEF808101C6068
:10823C00E0E700225C689A605A601A68DC60013AD8
:10824C001A60AAE73A46C2E71C68CEF80810013457
:10825C00CEF80C70C7F808E01C60C3F804E0C9E75E
:10826C002801002000B572B6FFF790FF00BD00BFDB
:10827C002DE9F04F434D0446EB680368002B74D096
:10828C0000264FF001082F46012B40D06268013BBD
:10829C00D168236061608E601268C2F81080EB6850
:1082AC00EB68566102F11C0C002B26D0D7F800A00D
:1082BC00BAF1000F30D0D7F8049002F1200ED9F8A3
:1082CC000410136A09F1040099422EDD4B46006834
:1082DC00116A88423CDCAB68C3F80CC053622B6853
:1082EC0096620133C5F808C02B60FFF74FFF72B6DA
:1082FC002368002BC8D1BDE8F08FC7F80CC0FFF77E
:10830C0045FF72B62368002BF5D0012BBED16268F5
:10831C00A66066602660BFE756629662C7F800806A
:10832C00C7F804C0C7F808C0E9E7D9F80C3023B97E
:10833C00CCE7D9680029CAD00B46D3F804B0DEF8D4
:10834C000010181D8B45F4DD0068116A8842C2DDEF
:10835C00996861B10AF1010AC1F80CC0C3F808C0F0
:10836C0093625162C5F800A0C9E762B6C3E72B68F7
:10837C0051620133C2F82890C9F808C02B60C5F8C7
:10838C0004C0BCE728010020F0B572B60369022BCB
:10839C000AD03048FEF7BCFA2F48FEF7B9FA2F4B3B
:1083AC000A221A6062B6F0BD2D4A01230361D1681E
:1083BC00D16800F11C0429B31668002E2DD0576823
:1083CC0000F120057B68016A07F1040E99421DDB60
:1083DC00FB68DBB1D3F804C0296803F1040E8C45AB
:1083EC0016DDDEF800C0016A8C451EDC9368DC608B
:1083FC004362002383621368946001331360FFF7B8
:10840C00C5FED0E7D460FFF7C1FECCE73B46E8E7FA
:10841C00D9680029E5D00B46DCE74662866213601A
:10842C0054609460FFF7B2FEBDE7996841B1013624
:10843C00CC609C60836241621660FFF7A7FEB2E7D6
:10844C001368416201338762BC6013605460FFF7AC
:10845C009DFEA8E784A8200008A52000CC000020E1
:10846C0028010020C368036910B5012B18D00369DB
:10847C00B3B12C4BDA68D96800F11C0291421CD0C4
:10848C001A68012A29D0416A002935D0846A002C47
:10849C003FD0CC60D0F828C0013ACCF808101A6054
:1084AC000369012B01D062B610BD026A6FF0004364
:1084BC009A42F8D0FFF76AFEF6E71A68CAB1012AA9
:1084CC0010D059680024D1F80CC0013AC3F804C08C
:1084DC001A60CCF80840D960E2E700225A609A6032
:1084EC001A60DDE7596800225A609A601A60D960F8
:1084FC00D6E71146D960D3E7002AD1D0D3F804C00F
:10850C00013ADCF80CC01A60C3F804C0CCF80810AF
:10851C00C6E7002AC4D09968013A89681A60996044
:10852C00CC60BDE7280100203A4BF0B5DA68026850
:10853C00002A37D0012A43D041684FF0000ED1F801
:10854C000CC0013AC0F804C00260CCF808E009681D
:10855C0001200861D3F80CC0DD6800224A6101F1EA
:10856C001C042C4A002D1FD01668002E20D05768F2
:10857C0001F120057A68086A07F1040E904225DAA9
:10858C003A46DEF800C0086A84452EDC9A68D4604E
:10859C004A6200228A621A689C6001321A60FFF7F4
:1085AC00F5FD00E062B6F0BDD460FFF7EFFDFAE731
:1085BC004E628E62106054609460FFF7E7FDF2E744
:1085CC0000224168826042600260C0E7FA6822B90A
:1085DC00D6E7D0680028D4D00246D2F804C0286868
:1085EC0002F1040E8445F4DDCBE7906840B101360E
:1085FC00C46094608A6248621E60FFF7C7FDD2E7D0
:10860C001A68486201328F62BC601A605C60FFF7C6
:10861C00BDFDC8E7280100202DE9F04172B69E4B44
:10862C00DA68DA68D9681268D3F80CC002F11C0158
:10863C008C4500F09E801968012900F0DF80546A97
:10864C00002C00F0AE80956A002D00F0EA80E56009
:10865C00D2F828C00139CCF808401960916808603C
:10866C00042111618D49086801380860916900295D
:10867C0000F09180916901240C61D2F818C0D8687F
:10868C00D86885490CF11C0570B30F68002F00F0F9
:10869C00A180D1F804800CF12006D8F80410DCF885
:1086AC00200008F104048842C0F2DD80D8F80C10D8
:1086BC00002900F0D880D1F804E030680C1D864504
:1086CC007DDDD4F800E0DCF82000864500F38A80DC
:1086DC0099681C68CD60CCF8241001340021CCF8CA
:1086EC0028101C609D6001E00C68CD600021916138
:1086FC006949D8683CB9DB68104619680122FFF754
:10870C006FFABDE8F081D1F80CE04F680EF1040669
:10871C007868DEF804103D1D884200F3A280F968E9
:10872C00002900F09E80D1F804C030680D1D8445EE
:10873C004BDDD5F800C0DEF80400844563DC996895
:10874C001C68C1F80CE0CEF8081001340021CEF8FA
:10875C000C101C60C3F808E04CB1012C6FD05C68A5
:10876C000020E16859608860196801391960DC6083
:10877C00C1E7196889B101296AD0D3F804C0002473
:10878C00DCF80CE00139C3F804E01960CEF80840BD
:10879C00C3F80CC062E71C68AAE78C46C3F80CC08F
:1087AC005CE700293FF45AAFD3F804C00139DCF878
:1087BC000CC01960C3F804C0CCF808404EE7C86878
:1087CC0000283FF47EAF014675E7C8680028B0D09A
:1087DC000146A8E7CCF82470CCF828700C604D60EA
:1087EC008D6083E7886800283FD07C1CC5608D6055
:1087FC00CCF82810CCF824001C6077E700215960D5
:10880C00996019602AE78868002839D00134C0F8CB
:10881C000CE0C1F808E0CEF80C10CEF808001C6093
:10882C009AE700293FF41AAFD3F808C00139DCF8F5
:10883C0008C01960C3F808C0CCF80C500EE7002132
:10884C005C68996059601968DC600139196052E7FD
:10885C00D3F804C00021596099601960C3F80CC0AA
:10886C00FCE6394665E741462BE71C68CCF824004A
:10887C000134CCF82880C8F808501C605D6035E7DE
:10888C001C68CEF808000134CEF80C70C7F808E06C
:10889C001C60C3F804E05FE72801002038010020C9
:1088AC0070B5044672B6C3680369032B37D8DFE88A
:1088BC0003F05740145C03460A68012A00F0AA80B2
:1088CC009D68002D00F0BC80D868002800F0C180A5
:1088DC00E860DB68013A9D600A606B4D04F11C0690
:1088EC00EB68EB68002B5ED028463146FFF726F983
:1088FC00EA68EA68644B96425BD01A68012A67D032
:10890C00616A002969D0A06A002875D0C860A06A85
:10891C00013A81601A605D4B1A68013A1A60A369CA
:10892C0013B1A069FFF730FD62B6A068FEF74CF8F2
:10893C0070BD554DEB68EA6800F11C039A4224D0D7
:10894C002B68012B61D0426A002A6FD0816A002902
:10895C0000F08980D160816A013B8A602B60DAE784
:10896C004FF0FF30FFF758FED9E7416948680028FF
:10897C00B3D003689C4218BF03469CD0DB68002B25
:10898C00ABD01A689442F9D196E72B68002B2DD006
:10899C00012B72D06A680020D168013B69602B60A2
:1089AC008860EA60B7E7EE60EA68EA68364B9642A0
:1089BC00A3D11A68EAB1012A31D059684FF0000CE2
:1089CC00C868013A58601A60C0F808C0E960A2E7AC
:1089DC0000225A609A601A609DE7002A9BD0586862
:1089EC00013AC0681A605860816094E71A46EA60E0
:1089FC0091E71146E9608EE7002A8CD09968013A1C
:108A0C0089681A609960C86085E700236B60AB6069
:108A1C002B6080E700234B608B600B605DE759682F
:108A2C0000225A609A601A60E96074E7002B3FF4E8
:108A3C0072AF6968013BC9682B6069608A606AE73C
:108A4C00002A3FF44AAFC368013A4B600A609D604C
:108A5C0043E7002A3FF441AF8B68013A9B680A60F8
:108A6C008B60D86039E7002B3FF455AFAA68013B07
:108A7C0092682B60AA60D1604DE76A6800236B6036
:108A8C00AB602B60EA6046E728010020380100202B
:108A9C00704700BF48F63003C4F208031868C0F3EF
:108AAC00400018B11A6822F002021A60704700BF29
:108ABC000023C361036243628362C3620363436343
:108ACC008363C363704700BFC26903460132C2614E
:108ADC00D1F88C20406A00B582185A620846FDF71E
:108AEC0073FF00BD70B5056C04460DB9002022E083
:108AFC00012D21D0466C013D706825646064002E08
:108B0C00F4D0356804982E780B3EB04238BF064638
:108B1C00287A0870687A48706978184601F007015D
:108B2C00117005F10A013246FEF734F82046294649
:108B3C00FFF7CAFF304670BD466C00206064A0642D
:108B4C002064DCE748F63401C4F2080148F6300230
:108B5C00C4F2080270B548F62C0305460868C4F246
:108B6C000803D2F800C01C6800F040040C600CF044
:108B7C0002011160002210F0040F1A6000F08580D1
:108B8C0048F26C63C4F208031B68032B7ED948F2CD
:108B9C000003C4F208031A68D2B212F0800F75D128
:108BAC0053F8223013F0800F70D0544B1868436880
:108BBC003BB15A68B32A08D8A42A06D0DB68002B2C
:108BCC00F7D1FDF7FDFE00241BE0A43A5A60C26801
:108BDC00A43AC2605A687AB90468012C72D09968B8
:108BEC00002974D0DE68002E7CD0CE60DA689160EB
:108BFC000268013A02605A681B68A4219C189950BB
:108C0C0004340023802248F6280184F88030C4F80C
:108C1C008430C4F88830C4F88C20C4F89040C4F870
:108C2C009430C4F89840C4F89C30C4F208010B6826
:108C3C00DBB2237033B101230A68E254227801338A
:108C4C009342F9D948F63803C4F20803ED221A60AE
:108C5C0023780B3B002B29DDC4F88C302B68617812
:108C6C009B6801F0070128462246984768B92B6C8F
:108C7C00072B12D804F19002E3B1AB6C5A60C4F824
:108C8C0094002B6CAA6401332B6470BD48F6380336
:108C9C00C4F20803ED221A60F7E71948FDF738FE15
:108CAC001848FDF735FE184B0A221A602046FDF7CE
:108CBC008BFEEAE7C4F894302B6C6A640133AA6427
:108CCC002B64E2E74260826002605A6894E7002CF1
:108CDC0092D04168C96841608A600268013A0260BA
:108CEC005A6889E7002C87D0816889688160CA60DE
:108CFC000268013A02605A687EE700BFF400002067
:108D0C00ACA8200008A52000CC0000200A4B01686C
:108D1C005A6800B5914209D00848FDF7F9FD08489A
:108D2C00FDF7F6FD074B0A221A6000BD18680028F3
:108D3C00F2D0FFF707FFF8E754010020ECA8200061
:108D4C0008A52000CC00002030B581B0364B186847
:108D5C0043683BB15A68B32A0AD8A42A08D0DB6806
:108D6C00002BF7D10091FDF72BFE002000991FE09E
:108D7C00A43A5A60C268A43AC2605A688AB9D0F858
:108D8C0000C0BCF1010F2AD09C68002C2CD0DD68EF
:108D9C00002D39D0E560DA6894600268013A02600F
:108DAC005A681B684FF0A40C981843F802C00430A2
:108DBC00049B059AD218069BC0F88410D218002385
:108DCC00027080F88030C0F88C20C0F89000C0F899
:108DDC009430C0F89800C0F89C3001B030BD4260AF
:108DEC00826002605A68DCE7BCF1000FD9D0D0F881
:108DFC0004C0DCF80CC0C0F804C0CCF80820026831
:108E0C00013A02605A68CCE7BCF1000FC9D0D0F827
:108E1C0008C0DCF808C0C0F808C0CCF80C20026808
:108E2C00013A02605A68BCE7F4000020F0B58AB041
:108E3C0000293CD0012908BF046835D011F0010F7E
:108E4C003BD101394B08056833D0012B05FB05F4E8
:108E5C0028D013F0010F52D1013B5A087DD0012AC2
:108E6C0004FB04F61CD012F0010F7AD1013A52081F
:108E7C0000F0A580012A06FB06F70FD012F0010FB7
:108E8C0040F0AB8007FB07F30AA8013A40F8283DF5
:108E9C0051086846FFF7CAFF00FB07F707FB06F609
:108EAC0006FB04F405FB04F420460AB0F0BD0124D3
:108EBC00FAE7012405FB04F4F6E74B080468F6D046
:108ECC00012B04FB04F4EFD013F0010F31D1013B63
:108EDC005A082AD0012A04FB04F5E3D012F0010F42
:108EEC0055D105FB05F30AA8013A40F8103D51088D
:108EFC00FFF79CFF00FB05F505FB04F4D4E78B089A
:108F0C00012B04FB04F4CDD013F0010F4BD104FB67
:108F1C0004F20AA8013B40F8182D5908FFF786FF08
:108F2C0000FB04F405FB04F4BEE7012505FB04F487
:108F3C00BAE78B08012B04FB04F4B5D013F0010F36
:108F4C0041D104FB04F20AA8013B40F8082D590852
:108F5C00FFF76CFF00FB04F4A6E7012606FB04F404
:108F6C00A0E79B08012B06FB06F699D013F0010F26
:108F7C003FD106FB06F20AA8013B40F8202D590808
:108F8C00FFF754FF00FB06F606FB04F48AE705FB2B
:108F9C0005F50AA840F80C5D9908FFF747FF054650
:108FAC0005FB04F480E704FB04F40AA840F8144D14
:108FBC00C908FFF73BFF044605FB04F474E70127DF
:108FCC0007FB06F66CE704FB04F40AA840F8044D12
:108FDC00C908FFF72BFF044666E707FB07F70AA84B
:108FEC0040F8247D5108FFF721FF074607FB06F6E2
:108FFC0056E706FB06F60AA840F81C6D5908FFF761
:10900C0015FF064606FB04F44CE700BF2DE9F04FB4
:10901C00D3B039902C914A788B7835AD30CD42EA6B
:10902C0003233A9348F22463C4F208031A6842F00B
:10903C000C021A6042F2A803C4F20D031A6842F043
:10904C0001021A6042F2AC03C4F20D031A6842F03A
:10905C0001021A6042F2B003C4F20D031A6842F026
:10906C0001021A6048F63803EE22C4F208031A60B3
:10907C0048F27062C4F208021368002BFCD13594DC
:10908C0036952C98017848F62800C4F20800016047
:10909C0002390AD0DDF8B0C001231CF803200133DB
:1090AC008B420260F9D935943695042353A840F8C5
:1090BC00043D0121FFF7BAFE40F25012C2F2000249
:1090CC00136840F2F801C2F2000109681B02079311
:1090DC0044F66D6248F6100348F61404C4F2C61246
:1090EC001191C4F208030321C4F2080448F2646E1F
:1090FC0048F24C6C00253291319225900C931094CF
:10910C00C4F2080EC4F2080C51465A460695249532
:10911C003796389704AE60CE1198319F002407FB28
:10912C0000F303F540533933B3F1FF3F28BF01334C
:10913C0011930C9B109F1C603F6848F61800C4F2FA
:10914C0008000897076848F61C00C4F20800046879
:10915C004FF0000A3802CDF870A01D941CAC18CC4E
:10916C0013EB000A48F62003089FC4F208031B689F
:10917C0044F1000B1AEB070A4BF1000B1C0A1B06FF
:10918C001F941E931EAC18CC1AEB030A48F624034A
:10919C00C4F208031B684BEB040B1F0C1B04219738
:1091AC00209320AC18CC1AEB030A4BEB040B06AC47
:1091BC0018CC1AEB030A4BEB040B259F119C2020B7
:1091CC00B4FBF7F307FB134303EB83039B01E0FBB7
:1091DC0003ABDEF8003013F0010FFAD048F61C0395
:1091EC00C4F2080348F618000A9348F6200448F61F
:1091FC0024038DE80600C4F20800C4F20804C4F28B
:10920C000803CDF858A0CDF85CB008900E949B469E
:10921C00DCF8003013F0100F00F0B7810C9D002625
:10922C00109F08982E600A99D7F800A003680C6864
:10923C000E9A1B02A146F418176849F100052E4638
:10924C0014EB0A0346F100044FEA172A3F06DBF839
:10925C000000CDF804A000979DE806005B1844EBD5
:10926C0002040504060C5B1906A903C944EB0604A9
:10927C001B1844EB01041799A142C9DC02D1169AC0
:10928C009A42C5D848F63803C4F20803EA2018609D
:10929C00DCF800309DE8060013F0080F40F07881F0
:1092AC003298042805D8329B259C013364003293F4
:1092BC002594249F0137032F24977FF42DAF249AF4
:1092CC003A9B119840F2F801C2F20001022A8CBFBD
:1092DC004FF000084FF0010813F0200F37AFC0CF4C
:1092EC00086000F06981B8F1000F40F04F8348F638
:1092FC00140B584648F264614FF0010AC4F208009E
:10930C00C4F2080148F24C68CDF890A00E90209160
:10931C00C4F2080835AD30CD48F22463C4F208031A
:10932C001A68012142F00C021A6042F2A803C4F23E
:10933C000D031A6851A842F001021A6042F2AC0304
:10934C00C4F20D031A6840F2501A42F001021A607E
:10935C0042F2B003C4F20D031A68C2F2000A42F0E2
:10936C0001021A6004235193FFF760FD40F2F803E9
:10937C00C2F200031B6844F66D620C93DAF80030FD
:10938C004FF0000B1B02159348F610030321C4F297
:10939C00C612C4F208031C911E921690CDF850B060
:1093AC00CDF844B0109321462A460C9D1E9CDDF846
:1093BC0040A004FB05F303F540533933B3F1FF3FF1
:1093CC0028BF01330C934FF0000BDDF838E048F662
:1093DC001803CAF800B0C4F20803DEF800C01C6819
:1093EC0048F61C034FEA0429C4F2080314AD30CD2F
:1093FC0014EB090AD3F800E045F1000B48F6200302
:10940C001AEB0C0A4BF1000BC4F208030025186888
:10941C00CDF84CE0129512AD30CD48F624031AEB82
:10942C00040A4BEB050BC4F20803050A00061B6883
:10943C001890199518AD30CD1AEB040A4BEB050BAF
:10944C004FEA134C1B04CDF86CC01A931AAC18CC11
:10945C001AEB030A4BEB040B169D0C9C2023B4FB5C
:10946C00F5F005FB104000EB80008001E3FB00AB46
:10947C0008461146209A136813F0010FFBD048F6EA
:10948C001C0C0A4648F62003014648F624046046A4
:10949C0048F61809C4F20800C4F20803C4F2080420
:1094AC00C4F20809069008930A94D8F8003013F017
:1094BC00100F40F0AE801C9B042B05D81C98169BFB
:1094CC0001305B001C901693119C0134032C1194F9
:1094DC007FF46BAF154640F2F8030C9AC2F200030E
:1094EC000C461A600023249A0132042A24927FF439
:1094FC0013AFFBB942F2A803C4F20D031A6842F091
:10950C0001021A6042F2AC03C4F20D031A6842F075
:10951C0001021A6042F2B003C4F20D031A6842F061
:10952C0001021A6048F22463C4F208031A6822F09C
:10953C000C021A600024DFF8F866DFF8F8060DF567
:10954C008278FDF7E5F92C9942463046FDF70CFB85
:10955C0053AF3B18002203F8482C4046FDF7D8F9CE
:10956C00DFF8D406FDF7D4F9DFF8D006FDF7D0F913
:10957C00DFF8CC06FDF7CCF90A2333602C98FDF705
:10958C0023FA204653B0BDE8F08F9DE8060087E62D
:10959C00249A3A9B119C40F2F805C2F20005022A6B
:1095AC008CBF4FF000084FF0010813F0200F37AFBD
:1095BC00C0CF2C607FF497AEB8F1000F05D0399C6A
:1095CC002046FFF767FA0028FAD042F2A803C4F24B
:1095DC000D031A6842F001021A6042F2AC03C4F2A5
:1095EC000D031A6842F001021A6042F2B003C4F291
:1095FC000D031A6842F001021A6048F22463C4F2A7
:10960C0008031A6822F00C021A60B8F1000F91D00E
:10961C008AE1109D00260E9F2E603D68D9F800301F
:10962C00DDF818C008980A991B02DCF800E014AFAA
:10963C00C0CFD0F800C00868F11847F100024B19F0
:10964C0042F100044FEA1C2600214FEA0C6C5B1817
:10965C000396CDF808C002AE60CE44EB0E045B1945
:10966C0044EB06040604070C9B1944EB0704A345C2
:10967C0072463FF71AAF02D19A453FF616AF48F63D
:10968C003803C4F20803EA201860D8F8003013F04D
:10969C00080F3FF410AF1546119A0C460C9840F287
:1096AC00F801C2F20001022A08603FF61BAF42F239
:1096BC00A802C4F20D02136848F2046143F00103DE
:1096CC00136042F2AC02C4F20D021368C4F208013A
:1096DC0043F00103136042F2B002C4F20D021368AE
:1096EC00AB4643F00103136048F22462C4F2080253
:1096FC001368399D23F00C03136048F28C62C4F29A
:10970C000802136823F00403136048F63402C4F211
:10971C000802136823F0040313600B6848F200621C
:10972C00C4F20802D2F800A010931368CDF844A03C
:10973C0043F00103136020230B60A2462846FFF779
:10974C00A9F90028FAD05D4648F6100B5846C4F229
:10975C000800002101600E9A169048F6180948F688
:10976C001C0048F6200CC4F20809C4F20800C4F22C
:10977C00080C13685446D9F800A0D0F800B0DCF8F7
:10978C0000E0CDF830A0CDF810E040F2501A48F6C9
:10979C00240EC2F2000AC4F2080EDEF80010DAF849
:1097AC000020069112024FF4B0412392002211EBDB
:1097BC00030A0C99CDF828B04FF0000BCDF888B007
:1097CC0042F1000B0902CDF820A0CDF824B00A9A82
:1097DC001AEB010A4BF1000B00233393349233AA9A
:1097EC0006CA049B1AEB010A04994BEB020B1B0AE9
:1097FC0009062D912E932DAB0CCB06991AEB020A70
:10980C00069A4BEB030B090C120430912F922FAAE2
:10981C0006CA1AEB010A4BEB020B22AB0CCB1AEB70
:10982C00020A4BEB030B48F63403C4F2080308930B
:10983C00CDF818A0CDF81CB00A940B950C960D978A
:10984C0048F610040025C4F208040E9E2560356805
:10985C00D9F8003048F61C071B0248F6200A22AA49
:10986C0006CAC4F20807CE18C4F2080A48F6240B3C
:10987C00D7F800E0C4F2080BDAF800C042F1000798
:10988C00731947F10004DBF8000000215B184FEA64
:10989C000C6644EB0E044FEA004A9B194FEA1C2756
:1098AC0044EB07044FEA104B13EB0A03079844EB05
:1098BC000B04A042724645DC02D1069D9D4241D864
:1098CC00269127920AAD30CDCDF8A8A0CDF8ACB03A
:1098DC000023289629970CAFC0CF119948F2046247
:1098EC0011F0010F1098C4F208020CBF48F200618D
:1098FC0048F2006110600BBFC4F20801C4F2080109
:10990C000A680A680BBF22F0010242F001020A60E9
:10991C000A6048F28C62C4F20802116841F004013A
:10992C001160002B00F081812C9DD5F88C40002C0F
:10993C003FF401AE399E336A01333362B36A1B19AB
:10994C00B3621BE6DDF820C048F63403DCF80000F7
:10995C00C4F2080310F0040F3FF472AF2691279263
:10996C000AAD30CD48F63802C4F20802ED21116080
:10997C001A68289629970CAFC0CF22F004021A60FF
:10998C00CDF8A8A0CDF8ACB00123A6E742F2A8020E
:10999C00C4F20D02136848F2046143F00103136032
:1099AC0042F2AC02C4F20D021368C4F2080143F097
:1099BC000103136042F2B002C4F20D0213680DF100
:1099CC00D40B9BE8000C43F00103136048F22462B3
:1099DC00C4F20802136823F00C03136048F28C6283
:1099EC00C4F20802136823F00403136048F634022F
:1099FC00C4F20802136823F00403136048F20062F7
:109A0C00C4F208020C6815681368119543F0010341
:109A1C001360399D202310940B602846FFF73AF809
:109A2C000028FAD0CDF8D4A0CDF8D8B048F610095B
:109A3C0048F6140B4FF0000A5846C4F20809C9F84E
:109A4C0000A0C4F2080048F6180C48F61C0E016879
:109A5C00C4F2080CC4F2080E48F6200ADCF8002008
:109A6C001C90DEF80030C4F2080A48F6240B40F2D1
:109A7C0050100491DAF80040C2F20000C4F2080B56
:109A8C000C921693049A0023DBF80050016806949C
:109A9C0008934FF4B0440C9B0A9509020025A018BA
:109AAC00099145F100011B02C41841F10005169BF8
:109ABC000022A41845EB03050494059504A903C9D9
:109ACC00069C0C960D972206230A801841EB030185
