:020000040020DA
:10400000F87F00201D412000856620008566200085
:104010008566200085662000856620008566200074
:10402000856620008566200085662000BB6620002E
:104030008566200085662000856620008566200054
:104040008566200085662000856620008566200044
:104050008566200085662000856620008566200034
:104060008566200085662000856620008566200024
:104070008566200085662000856620008566200014
:104080008566200085662000856620008566200004
:1040900085662000856620008566200085662000F4
:1040A00085662000856620008566200085662000E4
:1040B00085662000856620008566200085662000D4
:1040C00085662000856620008566200085662000C4
:1040D00085662000856620008566200085662000B4
:1040E00085662000856620008566200085662000A4
:1040F000856620008566200010B5074C54F8043C06
:10410000B3F1FF3F06D0043C984754F8043DB3F1A7
:0C411000FF3FF9D110BD00BFC46B2000C0
:10411C0040400949094A086004319142FBDBFFF732
:10412C00E5FF00BF00F0B2F900F004FA01B402F0B0
:10413C0063FC00F05FFD0000040000201803002069
:10414C00F0B5CB6881B004460D461746002B2DD038
:10415C0023602B68002623616B68666123622A69E1
:10416C00A661E4616662A66205F10801204601F0D1
:10417C0001FC2B69A2686660D218A2F140034FF0D3
:10418C00807142F8401C0B4A01A942F001029A636B
:10419C0047F00102DA63204641F8047DE36069468A
:1041AC004FF4406201F0D0FE01B0F0BD024B1B6831
:1041BC00CEE700BFF54B2000AC000020294B30B5FA
:1041CC00186844682246002C47D063683F2B07D8F8
:1041DC00302B11D0D268002A3FD053683F2BF7D92F
:1041EC00303B5360C1683039C16053B11268302123
:1041FC00D018D150043030BD00235360C168303921
:10420C00C160016801290BD0956875B1D468BCB147
:10421C00EC60D2F80CC00139CCF808500160E5E72D
:10422C000021416081600160E0E70029DED0D4F814
:10423C000CC00139C0F804C00160CCF80850D5E7B7
:10424C000029D3D0D0F808C00139DCF808C00160CF
:10425C00C0F808C0CCF80C40C8E700F0D3FC002034
:10426C00C9E700BF88000020F0B58CB000240A9488
:10427C000A9B4FF4406701930094029403940497B3
:10428C00FFF79CFF44F23012C0F22002694605464B
:10429C00FFF756FF6FF000430B930B9B0126069321
:1042AC000596079408940997FFF788FF45F61D4279
:1042BC00C0F2200205A9FFF743FF40F2D003C2F27F
:1042CC0000031E70E86802F0C5FA0CB0F0BD00BF28
:1042DC002DE9F0076B4E7368002B76D059680029D6
:1042EC0073D0DFF8A481B24600270022D8F8005022
:1042FC005A60F268521AF2605A68BAB9DAF8004099
:10430C00012C76D09868002800F09B80D3F80CC064
:10431C00BCF1000F00F0A580C0F80CC0DA6890600A
:10432C00DAF80020013ACAF800205A681C68A41870
:10433C0049D00F2947D961602460A760E760EB681A
:10434C0059186B68E960D4F800C06068002B40D045
:10435C00D3F80090604448450CBF1A461A4604D066
:10436C00D26812B111688842FAD159688944CC4597
:10437C0007D0DB68002B2BD01868596841188C4586
:10438C00F7D119461346CBB160685A68821862603F
:10439C002868012802BF6F60AF602F600ED09A684A
:1043AC00002A2ED0D3F80CC0BCF1000F33D0C2F8C9
:1043BC000CC0DB689A602B68013B2B6019B14A6812
:1043CC006368D3184B60736873B9BDE8F007704726
:1043DC0013462968002929D1A160E1602A686C6024
:1043EC000132AC602A60CEE7596800297FF47DAFBA
:1043FC00EBE7CAF80420CAF80820CAF800205A686B
:10440C0094E70028DAD06B68DB686B609A602B68E5
:10441C00013B2B60D2E70028D0D0AB689B68AB6027
:10442C00C3F80CC02B68013B2B60C7E7AA68394660
:10443C00D460AA68E760A2602A68AC6001322A6086
:10444C00A1E7002C3FF472AFDAF80400C068CAF898
:10445C0004008260DAF80020013ACAF800205A6899
:10446C0064E7002C3FF462AFDAF808008068CAF801
:10447C000800C260DAF80020013ACAF800205A6835
:10448C0054E700BF0803002088000020704700BFDD
:10449C0040F21803C2F200030A204FF0FF31002251
:1044AC00596018601A7240F20C03C2F20003596092
:1044BC0018601A72704700BF2DE9F047002482B0D3
:1044CC00DFF8609025460DF1040AE846274641F2D4
:1044DC008836144801F080F8134800F00DFB09EB06
:1044EC0005031B7C50468DF8043001358DF80570A2
:1044FC0000F002FB0D4800F0FFFAEB171B0FED1854
:10450C00684605F00F05ED1A0096013401F01CF811
:10451C00074801F043F8642CDBD1002002B0BDE861
:10452C00F08700BF240000202C6A2000306A200095
:10453C0044000020654B2DE9F04F186885B04368A6
:10454C003BB15A683F2A08D8302A06D0DB68002BCA
:10455C00F7D100F057FB00241EE0303A5A60C268D5
:10456C00303AC2605A6892B90468012C00F091800C
:10457C009968002900F09280DD68002D00F09A8087
:10458C00CD60DA6891600268013A02605A681B6873
:10459C0030219C18995004344D4B00251B686560E4
:1045AC002360012323616561A5610293E461029B91
:1045BC0005A923626562A562204641F8145D4FF49B
:1045CC004062694601F0D6F9A36803F53C614FF0EF
:1045DC008070C3F8C00B3F483F4A40F00100C3F85D
:1045EC00F80B42F00100C3F8FC0BE16005A941F89F
:1045FC00102D20464FF4406201F0A6FC2E460DF122
:10460C00100B41F28839AA46344F013507F12000CE
:10461C0040F2240700F0E0FFC2F2000703A807EB0A
:10462C000608CDF80C9000F08FFF06F1610388F8B6
:10463C0010302B4800F060FA98F8103058468DF87E
:10464C00103001368DF811A000F056FA254800F014
:10465C0053FAF3171B0FF61806F00F063846F61A26
:10466C0000F09CFF642DCFD1204601F0B1F81E481C
:10467C0000F042FA1D4800F03FFA0A233B63204643
:10468C0001F080FE204600F0C1FA002005B0BDE824
:10469C00F08F4260826002605A6878E7002C3FF429
:1046AC0076AF4168C96841608A600268013A02606D
:1046BC005A686CE7002C3FF46AAF816889688160A6
:1046CC00CA600268013A02605A6860E788000020FC
:1046DC00AC000020F54B2000C54420002400002035
:1046EC00346A2000306A2000386A2000446A2000B6
:1046FC00012830B507D028B90C4800F08BFF0C48C6
:10470C0000F088FF30BD094C0A23236300254FF0CD
:10471C00FF3304F120001021636384F8385000F05B
:10472C0037FF2046294600F033FFEBE7240000203A
:10473C004400002000B50120FFF7DAFF00BD00BFE8
:10474C0000B50020FFF7D4FF00BD00BF30B500F06E
:10475C00DBFAA8494B68002B00F035815A6846F209
:10476C000300824209D8B2F5C04F06D0DB68002B9B
:10477C0000F029815A688242F5D9A2F5C0425A60EC
:10478C00CA689C48A2F5C042CA605A6892B90468CB
:10479C00012C00F0CE809968002900F0FC80DD68C7
:1047AC00002D00F00481CD60DA6891600268013A56
:1047BC0002605A681968DFF840C200238C18CCF8E4
:1047CC000030CCF80430CCF80830CCF80C3049D0A0
:1047DC004FF4C0408C506060A360E360DCF80C3098
:1047EC001B18CCF80C30DCF8043051F802E060688F
:1047FC00002B00F086801D687044A8420CBF1A463E
:10480C001A4604D0D26812B111688842FAD159689C
:10481C006D18AE4507D0DB68002B71D0186859684D
:10482C0041188E45F7D119461346B3B160685A68E2
:10483C0082186260DCF80000012872D09A68002AA5
:10484C007CD0DD68002D00F08780D560DB689A6035
:10485C00DCF80030013BCCF8003019B14A686368D1
:10486C00D3184B60654C664BC3F800C000F052FB8C
:10487C0000F07AFB49F20043C4F20D031A68614858
:10488C0022F001021A6044F28003C4F20D030122EB
:10489C0047F208011A60C4F20D01B02347F200027E
:1048AC00D0F800C00B60C4F20D02136813F0800F37
:1048BC00FBD047F21001C4F20D010A6847F20C015B
:1048CC00C4F20D010B6803EB022144F66D62C4F2D5
:1048DC00C61202FB0CF303F54053393341F30B11B1
:1048EC00B3F1FF3F28BF013381EA0303036046485D
:1048FC0000F002F9454800F0FFF80A23236030BDB0
:10490C001346DCF80010002935D1A160E160DCF819
:10491C000020CCF804400132CCF80840CCF8002040
:10492C0083E70023CCF80430CCF80830CCF8003006
:10493C0093E74260826002605A683BE700288CD0A3
:10494C00DCF80430DB68CCF804309A60DCF800301A
:10495C00013BCCF8003080E700283FF47EAFDCF858
:10496C0008309B68CCF80830DD60DCF80030013B87
:10497C00CCF8003071E7DCF808200021D460DCF8BA
:10498C000820E160A260DCF80020CCF8084001327D
:10499C00CCF8002049E7002C3FF40CAF4168C96803
:1049AC0041608A600268013A02605A6802E7002C92
:1049BC003FF400AF816889688160CA600268013A7F
:1049CC0002605A68F6E60D4C01232372104800F081
:1049DC0093F80E4800F090F8DFF81CC00A2323600F
:1049EC000023CCF80030CCF80430CCF80830CCF8EC
:1049FC000C3038E70803002078000020600000200D
:104A0C00880000208C000020646A2000446A20008A
:104A1C00486A200010B54CF2000340F2D404C2F2F4
:104A2C000004C4F20003236000F006FA42F22803EB
:104A3C00C4F20D031A68082142F001021A6042F216
:104A4C002C03C4F20D031A68112042F001021A6003
:104A5C0044F204020023C4F20D02136044F28402F7
:104A6C00C4F20D02116044F28002C4F20D02136014
:104A7C0044F20012C4F20D02136049F22042C4F257
:104A8C000D02116841F0030111602268116B21F0D5
:104A9C000101116322684FF0FF3151642268936366
:104AAC002268506222680520906222687020D062D1
:104ABC002068026B42F4407242F0010202632268E9
:104ACC003020906340F2DC02C2F20002136040F22C
:104ADC00D802C2F20002136040F26C02C2F2000271
:104AEC000A2051601060137240F26002C2F20002A0
:104AFC0010605160137210BD2D4B00212DE9F00791
:104B0C001C6810F801A004F118034FF00908DFF835
:104B1C00A4C00D270A26284DBAF1000F26D0BAF1F1
:104B2C00090F26D0BAF10A0F30D0DCF8009009F149
:104B3C000109CCF800901A6812F0200FFBD1B9F1E2
:104B4C004F0FC4F800A00BDD1A6812F0200FFBD138
:104B5C0027601A6812F02002FBD12660CCF80020E6
:104B6C00013110F801A0BAF1000FD8D1BDE8F0075F
:104B7C0070471A6812F0200FFBD1DCF80020C4F843
:104B8C0000800832CCF800200131EAE71A6812F0F4
:104B9C00200FFBD127601A6812F02002FBD1CCF851
:104BAC0000202A68266001322A600131D9E700BF53
:104BBC00D4000020D8000020DC00002010B546F600
:104BCC00AC2040F260040123C2F20004C0F22000C9
:104BDC002372FFF791FF46F64420C0F22000FFF746
:104BEC008BFF0A23236010BD00B5004601F086FA46
:104BFC0000BD00BF00B501F081FA00BD00B501F0A9
:104C0C00ABFD00BD00B5FFF7F9FF00BD3D4B70B427
:104C1C001D6850F8043C041F0F2B41D9002240F8AA
:104C2C00044C6360A260E260EA68D318EB606B68C6
:104C3C0050F804CC6068002B35D01E686044B0423C
:104C4C000CBF1A461A4604D0D26812B111688842B9
:104C5C00FAD159687618B44507D0DB68002B21D0FF
:104C6C001868596841188C45F7D11946134693B109
:104C7C0060685A6882186260286801281DD09A689A
:104C8C00002A1FD0DE68002E31D0D660DB689A6017
:104C9C002B68013B2B6019B14A686368D3184B60D1
:104CAC0070BC704713462968B1B9A160E1602A68ED
:104CBC006C600132AC602A60D9E700236B60AB609A
:104CCC002B60E8E70028E6D06B68DB686B609A60C5
:104CDC002B68013B2B60DEE7AA680021D460AA6830
:104CEC00E160A2602A68AC6001322A60BFE700284C
:104CFC00D1D0AB689B68AB60DE602B68013B2B604E
:104D0C00C9E700BF8800002000B500F001F800BD25
:104D1C00DFF81CC147F2F832C2F20002CCEB0202FF
:104D2C0070B4002A4AD00023424DCCF800C0CCF815
:104D3C000420CCF80830CCF80C30EB686446D3185F
:104D4C00EB606B68002B3CD01E680CEB8200B04211
:104D5C000CBF1A461A4604D0D26812B111688842A8
:104D6C00FAD1596806EB8106B44208D0DB68002BF7
:104D7C0026D05868196801EB80018C42F6D119468F
:104D8C001346ABB1DCF804005A688218CCF8042046
:104D9C002C68284A012C23D09868002825D0DD687F
:104DAC00002D3AD0C560DB6898601368013B136036
:104DBC0021B14A68DCF80430D3184B6070BC7047E2
:104DCC0013462A681B48D2B90121CCF80820CCF82C
:104DDC000C200160C0F804C0C0F808C01146D0E730
:104DEC000023536093601360E2E7002CE0D053681B
:104DFC00DB68536098601368013B1360D8E78168E7
:104E0C000132C1F80CC08168CCF808100021CCF834
:104E1C000C10C0F808C00260B3E7002CC8D093682F
:104E2C009B689360DD601368013B1360C0E700BFB3
:104E3C0018030020080300202B480378002B52D1C4
:104E4C004CF22042C4F20D0213684FF0010C23F017
:104E5C00400313604CF20043C4F20D03196821F0B7
:104E6C004001196044F2F801C4F20D01C1F800C010
:104E7C00116821F0800111601A6822F080021A601A
:104E8C0044F2FC03C4F20D0342F20002C3F800C06A
:104E9C00C4F20D0211684FF6F873CFF6DC6301EA29
:104EAC00030343F4081342F204011360C4F20D012E
:104EBC000A6840F20003C0F2011302EA0303002B5C
:104ECC00F6D142F20003C4F20D031A6822F4E06238
:104EDC001A6042F20402C4F20D02136813F0806FE0
:104EEC00FBD00123037070479000002000B5FFF742
:104EFC00A3FF42F29803C4F20D031A6842F00102B8
:104F0C001A604EF60853CEF200034FF401121A60E9
:104F1C0000BD00BF00B5FFF7E9FF00F0EBF800F0B3
:104F2C0001F800BD4EF210034EF21802CEF200034F
:104F3C000021CEF20002196011604EF21402CEF282
:104F4C0000024FF4FA41116006221A6046F62D0158
:104F5C0040F2F402C2F20002C0F22001D1631A68DE
:104F6C0042F001021A60704700B500F00DF900F034
:104F7C0001F800BD10B5324B186841680B4600298A
:104F8C0059D04A68272A07D8182A05D0DB68002B85
:104F9C0051D05A68272AF7D9183A5A60C268183A79
:104FAC00C2605A6892B9D0F800C0BCF1010F21D090
:104FBC009C68002C26D0D96800292FD0E160DA68D3
:104FCC000CF1FF3CC0F800C094605A6819681820B6
:104FDC008B1888500433012119721A4900221A6067
:104FEC0019610A2218495A60086840B1DA60174AF8
:104FFC00136010BD0260426082605A68E6E70B6085
:10500C005A68F3E7BCF1000FE0D0C9680CF1FF3C23
:10501C00C0F800C041608A605A68D7E7BCF1000F45
:10502C00D4D081680CF1FF3C8968C0F800C0816065
:10503C00CA605A68CAE7FFF7E5FD0023CBE700BF5B
:10504C0088000020555D2000F4020020B0000020F4
:10505C0049F21803C4F208031A6840F2FC23C2F2A6
:10506C000003196841EA02021A6049F20803C4F20B
:10507C0008031A6840F20033C2F20003196841EACF
:10508C0002021A6049F21003C4F208031A6840F2D3
:10509C000433C2F20003196841EA02021A60704735
:1050AC000368232B0DD0252B13D0272B19D0332B92
:1050BC0001BF43F22403C4F203034FF0FF321A6022
:1050CC00704740F22403C4F203034FF0FF321A601E
:1050DC00F6E741F22403C4F203034FF0FF321A60E7
:1050EC00EEE742F22403C4F203034FF0FF321A60DE
:1050FC00E6E700BF72B64EF61453CEF200031A6800
:10510C001A4942F001021A604EF280134FF0FF323E
:10511C00CEF200031A604EF28413CEF200031A6032
:10512C00134A0023CA500433B3F5807FFAD10F4BD6
:10513C00104A1148DA6000231946C1500433B3F504
:10514C00807F0D4AF9D10D4BC2F88C30C2F89430E7
:10515C00C2F89C30C2F8CC30094BC2F8F030094B85
:10516C00136453649364D364704700BFF40000204D
:10517C001567200019672000F4010020AD502000B5
:10518C005D5020002566200010B5314B1868416831
:10519C000B46002957D04A68272A07D8182A05D069
:1051AC00DB68002B4FD05A68272AF7D9183A5A6077
:1051BC00C268183AC2605A6892B9D0F800C0BCF103
:1051CC00010F1FD09C68002C24D0D96800292DD049
:1051DC00E160DA680CF1FF3CC0F800C094605A68DA
:1051EC00196818208B18885004331A490122196148
:1051FC0019491A605A601A72486840B1DA60174A45
:10520C00136010BD0260426082605A68E8E74B6030
:10521C005A68F3E7BCF1000FE2D0C9680CF1FF3C0F
:10522C00C0F800C041608A605A68D9E7BCF1000F31
:10523C00D6D081680CF1FF3C8968C0F800C0816051
:10524C00CA605A68CCE7FFF7DDFC0023CDE700BF4E
:10525C0088000020C5522000F40200209800002095
:10526C00014B0360704700BFE46A2000014B0360F0
:10527C00704700BFE46A200040F29C03C2F20003B6
:10528C0000221A605A609A60704700BF00B54068EF
:10529C0000F084F900BD00BF024B00B50360FFF7BE
:1052AC00B5FC00BDE46A2000024B00B50360FFF7BB
:1052BC00ADFC00BDE46A2000F0B572B63F4B1A6835
:1052CC0001321A603E4A13682BB1516848680138A4
:1052DC000028486007DD002362B61BB158680368DC
:1052EC009B689847F0BD012B3CD0CB6800205360E5
:1052FC0098601368013B1360CB6823B1D3F804C0EA
:10530C004868604458600B689868B0F1FF3F03D060
:10531C00013898600028DFD0D3F80CC02848C1F8B9
:10532C0004C01668002E35D047687C68A445B8BF09
:10533C003D4609DBF868F8B1C4EB0C0CC1F804C0AD
:10534C0044680546A44514DAA868002829D0CCEB9B
:10535C00040C0136C5F804C0C160A960CD6088603A
:10536C001660B9E70023536093601368013B136028
:10537C00C2E7C0680028DFD19068C4EB0C0CC16098
:10538C008860C1F804C00020C860916011680131C8
:10539C001160A1E701228E60CE60026041608160E5
:1053AC009AE7CCEB040CC5F804C08860CF60B960F8
:1053BC0051601168013111608EE700BF940000202C
:1053CC009C00002030B472B6DFF880C0DCF804100A
:1053DC00E9B10B68984218BF0B462BD0DB68B3B110
:1053EC001A689042FAD1DCF80000184C012811D050
:1053FC009D68002D20D0DA6892B1EA60DA68013835
:10540C00956020601AB151685B68CB18536062B626
:10541C0030BC704700226260A2602260DA68F1E75B
:10542C000028F4D0A168013889682060A160CA60A6
:10543C00DA68E7E70B46D6E708B9DA68E2E7CA6844
:10544C000138626020609560DA68DBE79C00002020
:10545C0083603B4BD1F800C01B68C0F800C05B6890
:10546C004FF47A7CBCFBF3F344F2402CC0F20F0CEB
:10547C00BCFBF3FC0B68002103EB5C03B3FBFCF3FC
:10548C00F0B54260C360006143618161C16172B675
:10549C002BB962B6136810469B689847F0BD294C2F
:1054AC0000F1100C2668002E32D0676879688B42A8
:1054BC00B8BF3D461ADBFA684AB15B1ACCF8043027
:1054CC00516815468B421FDA436999420EDC5B1A10
:1054DC004361A368C3F80CC083610023C3612368D4
:1054EC00C4F808C00133236062B6D7E7AA68CAB112
:1054FC00CB1A01366B60C2F80CC0C5F808C0C56188
:10550C008261266062B6C9E7D268002AD5D1DBE792
:10551C0001238661C6612360C4F804C0C4F808C0C6
:10552C0062B6BBE7CB1A6B60236882610133C7613B
:10553C00C7F808C02360C4F804C062B6AEE700BF69
:10554C00980000209C00002070B58EB008AC064678
:10555C000021204600F01CF80B4B31460CAA0C9392
:10556C00684601230D94FFF773FF204600F034F8D2
:10557C006846FFF727FF054B20466D460C9300F05D
:10558C0049F80EB070BD00BFD06A2000E46A20005C
:10559C000023036043608360C160704710B572B62E
:1055AC000C4C4FF001022146D1E84F3FC1E84C2F83
:1055BC00BCF1000FF8D1DBB2002BF5D1C268C16889
:1055CC0023700131002AC16001DB62B610BD00F00E
:1055DC001DFDFBE7A800002010B572B60C4C4FF077
:1055EC0001022146D1E84F3FC1E84C2FBCF1000F1E
:1055FC00F8D1DBB2002BF5D1C268C1682370013938
:10560C00002AC16001DD62B610BD00F0F7F8FBE7BF
:10561C00A900002000B572B600F09CFB00BD00BFD5
:10562C00F0B40668002E23D047680D1D7B684A68CD
:10563C003C1D9A422CDBFB68002B29D0D3F804C00C
:10564C002A681C1D94450EDDD4F800C04A689445A8
:10565C0015DC83680136D9608B600023CB60066053
:10566C008160F0BC7047DA68002AEDD01346E5E79C
:10567C0001238E60CE60036041608160F1E79A681F
:10568C0042B10136D1609960CB608A600660E8E770
:10569C003B46D9E701368A60CF60B960066041604D
:1056AC00DFE700BF40F2B4020023C2F20002D36075
:1056BC0013605360936040F2C802C2F200021360A0
:1056CC005360704712F0FF0F18BF0C4B00B51FBF93
:1056DC001B68DA685A68DA60884209D003694BB1F2
:1056EC0000230B6150F80C3FCB68C96801F054F9EA
:1056FC0062B600BD01230361F2E700BFB0000020D9
:10570C0011F0FF0F30B5034600D172B62F4AD168A5
:10571C000868D168D2F80CC003F11C018C4517D075
:10572C001168012937D05C6A002C27D09D6A002DA6
:10573C0036D0E560D3F828C00139CCF808401160A8
:10574C0002211961D36801221968FFF7BBFF30BD34
:10575C00116879B1012930D0D2F804C00024DCF8EA
:10576C000CE00139C2F804E01160CEF80840C2F830
:10577C000CC0E5E78C46C2F80CC0E1E70029DFD08D
:10578C00D2F804C00139DCF80CC01160C2F804C0B6
:10579C00CCF80840D4E70021516091601160CFE74C
:1057AC000029CDD0D2F808C00139DCF808C011604E
:1057BC00C2F808C0CCF80C50C2E7D2F804C00021E3
:1057CC00516091601160C2F80CC0B9E7B4000020C0
:1057DC0010B5044672B60369042B03D162B6A368F4
:1057EC00186810BD044B0121DB681B68836180695C
:1057FC00FFF786FFF3E700BFB40000205C492DE9FA
:10580C00F045CB68CB681A68CB68CB6802F11C06F4
:10581C009E4263D00B68012B00F08380546A002CED
:10582C0072D0956A002D00F08180E560D2F828C016
:10583C00013BCCF808400B60D0F8008003231361C7
:10584C00B8F1000F25D0D0F804A002F12007DAF847
:10585C000430D2F820C00AF104059C452EDA5346D8
:10586C00D5F800E0D2F820C0E6451BDC836808F1CF
:10587C000108DE60536200239362C0F800808660EA
:10588C00CB685061196810460122FFF71BFFBDE879
:10589C00F0850123C2F82480C2F82880036046609A
:1058AC008660EDE79C68002C56D008F10108E66094
:1058BC009E6093625462C0F80080E1E7DAF80C3025
:1058CC0023B9CCE7DC68002CCAD02346D3F804E01B
:1058DC00D7F800C01D1DE645F4DDC1E70B687BB1B0
:1058EC00012B30D0D1F804C00024DCF80CE0013BD3
:1058FC00C1F804E00B60CEF80840C1F80CC09BE77F
:10590C009C46C1F80CC097E7002B95D0D1F804C089
:10591C00013BDCF80CC00B60C1F804C0CCF80840AB
:10592C008AE700234B608B600B6085E7002B83D0EC
:10593C00D1F808C0013BDCF808C00B60C1F808C006
:10594C00CCF80C5078E7D1F804C000234B608B6086
:10595C000B60C1F80CC06FE708F101085462C2F883
:10596C0028A0CAF80860C0F80080466088E700BF2D
:10597C00B40000202DE9F045044672B6614B624834
:10598C00196804F11C0701311960C368C368002B46
:10599C0064D0D0F80080B8F1000F1FD0D0F804A06C
:1059AC0004F12006DAF80410236A0AF1040599427E
:1059BC0056DD5346D5F800C0216A8C4569DC8368F6
:1059CC00DF6063620023A3620368876001330360B6
:1059DC004E4B18687AB9A260BDE8F0850123C4F873
:1059EC002480C4F82880036047608760474B1868A0
:1059FC000AB9F0E7013212F0030FFBD1456804320B
:105A0C000F2A98BF10222B46002D76D0696802F120
:105A1C00100C8C4507D9914205D0DB68002B6CD05B
:105A2C0059686145F7D3891A5960C168891AC160F0
:105A3C00596871B90668012E36D09F68002F42D084
:105A4C00DD68002D4BD0FD60D968013E06608F608B
:105A5C0059681B6858185A50021DBCE7C760C5E747
:105A6C00DAF80C30002BA4D0D3F804C031681D1D1B
:105A7C008C459FDCD96800299CD00B46D3F804C018
:105A8C0031681D1D8C45F5DDD5F800C0216A8C45AB
:105A9C0095DD996869B108F10108CF609F60A36238
:105AAC006162C0F80080A1E70160416081605968C3
:105ABC00CFE7036861620133C4F828A0CAF8087004
:105ACC000360476092E7002EC3D0D5F80CC0013EAE
:105ADC000660C0F804C0CCF808105968B9E7002E6D
:105AEC00B7D0D0F808C0013EDCF808C00660C0F89A
:105AFC0008C0CCF80C105968ABE7FFF783F800220C
:105B0C0069E700BFC4000020B4000020880000201A
:105B1C00F0B572B63D4BDA68DA681068DA681A6864
:105B2C00002A3DD059686FF0004CD1F804E0E645EE
:105B3C0036D0012AD3F80CE055D0D1F80CC0002493
:105B4C00013AC3F804C01A60CCF808401E682F4A0A
:105B5C00D960002E2AD057680EF104057A68DEF859
:105B6C0004103C1D914243DBFA68002A40D0D2F865
:105B7C0004C02968141D8C4523DDD4F800C0DEF860
:105B8C0004108C4522DC9A68C2F80CE0CEF8082090
:105B9C000022CEF80C201A68C3F808E001321A6013
:105BAC00DB6801221968FFF78DFDF0BD0121CEF8ED
:105BBC000860CEF80C601160C2F804E0C2F808E08E
:105BCC00EEE7D1680029D8D00A46D0E7916889B1B0
:105BDC000136C1F80CE0C2F808E0CEF80C20CEF883
:105BEC0008101E60DCE700225A609A601A60ADE76C
:105BFC003A46C2E71A68CEF808100132CEF80C709B
:105C0C00C7F808E01A60C3F804E0C9E7B400002044
:105C1C0030B5114D114C2A682368012B06D962B698
:105C2C0030BF002AF8D0FFF773FFF4E772B60C4CC4
:105C3C000C48FEF761FF0A250B48FEF75DFF256057
:105C4C000A48FEF759FF0848FEF756FF256000F09A
:105C5C0061FD30BF002030BDB4000020C400002026
:105C6C00600000201C6B2000446A2000386B200070
:105C7C00344BF0B5DA681C681068DA682CB9DB684C
:105C8C0001221968FFF71EFDF0BDD3F80CE05F6828
:105C9C000EF104067A68DEF804103D1D914243DBD8
:105CAC00FA68002A40D0D2F804C03168151D8C4522
:105CBC001FDDD5F800C0DEF804108C451EDC9A6898
:105CCC001C68C2F80CE0CEF8082001340022CEF893
:105CDC000C201C60C3F808E04CB1012C1BD05C6894
:105CEC000021E2685A6091601A68013A1A60DC601F
:105CFC00C5E7D1680029DCD00A46D4E79168A9B180
:105D0C000134C1F80CE0C2F808E0CEF80C20CEF853
:105D1C0008101C60E0E700225C689A605A601A6800
:105D2C00DC60013A1A60AAE73A46C2E71C68CEF872
:105D3C0008100134CEF80C70C7F808E01C60C3F8EA
:105D4C0004E0C9E7B400002000B572B6FFF790FF7D
:105D5C0000BD00BF2DE9F04F434D0446EB680368CE
:105D6C00002B74D000264FF001082F46012B40D099
:105D7C006268013BD168236061608E601268C2F872
:105D8C001080EB68EB68566102F11C0C002B26D0DE
:105D9C00D7F800A0BAF1000F30D0D7F8049002F178
:105DAC00200ED9F80410136A09F1040099422EDD73
:105DBC004B460068116A88423CDCAB68C3F80CC0E7
:105DCC0053622B6896620133C5F808C02B60FFF74D
:105DDC004FFF72B62368002BC8D1BDE8F08FC7F80F
:105DEC000CC0FFF745FF72B62368002BF5D0012BD2
:105DFC00BED16268A66066602660BFE75662966296
:105E0C00C7F80080C7F804C0C7F808C0E9E7D9F89C
:105E1C000C3023B9CCE7D9680029CAD00B46D3F88B
:105E2C0004B0DEF80010181D8B45F4DD0068116A13
:105E3C008842C2DD996861B10AF1010AC1F80CC04F
:105E4C00C3F808C093625162C5F800A0C9E762B6F6
:105E5C00C3E72B6851620133C2F82890C9F808C017
:105E6C002B60C5F804C0BCE7B4000020F0B572B6D6
:105E7C000369022B0AD03048FEF73EFE2F48FEF78E
:105E8C003BFE2F4B0A221A6062B6F0BD2D4A01234D
:105E9C000361D168D16800F11C0429B31668002E87
:105EAC002DD0576800F120057B68016A07F1040EBC
:105EBC0099421DDBFB68DBB1D3F804C0296803F100
:105ECC00040E8C4516DDDEF800C0016A8C451EDC24
:105EDC009368DC604362002383621368946001332F
:105EEC001360FFF7C5FED0E7D460FFF7C1FECCE727
:105EFC003B46E8E7D9680029E5D00B46DCE746626B
:105F0C008662136054609460FFF7B2FEBDE7996837
:105F1C0041B10136CC609C60836241621660FFF730
:105F2C00A7FEB2E71368416201338762BC6013605D
:105F3C005460FFF79DFEA8E7546B2000446A2000D4
:105F4C0060000020B4000020C368036910B5012B69
:105F5C0018D00369B3B12C4BDA68D96800F11C0274
:105F6C0091421CD01A68012A29D0416A002935D0E7
:105F7C00846A002C3FD0CC60D0F828C0013ACCF811
:105F8C0008101A600369012B01D062B610BD026AB9
:105F9C006FF000439A42F8D0FFF76AFEF6E71A68F2
:105FAC00CAB1012A10D059680024D1F80CC0013AAA
:105FBC00C3F804C01A60CCF80840D960E2E70022AC
:105FCC005A609A601A60DDE7596800225A609A603C
:105FDC001A60D960D6E71146D960D3E7002AD1D030
:105FEC00D3F804C0013ADCF80CC01A60C3F804C042
:105FFC00CCF80810C6E7002AC4D09968013A896821
:10600C001A609960CC60BDE7B40000203A4BF0B543
:10601C00DA680268002A37D0012A43D041684FF071
:10602C00000ED1F80CC0013AC0F804C00260CCF8E4
:10603C0008E0096801200861D3F80CC0DD68002273
:10604C004A6101F11C042C4A002D1FD01668002E49
:10605C0020D0576801F120057A68086A07F1040E10
:10606C00904225DA3A46DEF800C0086A84452EDCF8
:10607C009A68D4604A6200228A621A689C60013273
:10608C001A60FFF7F5FD00E062B6F0BDD460FFF7D3
:10609C00EFFDFAE74E628E62106054609460FFF779
:1060AC00E7FDF2E700224168826042600260C0E7CF
:1060BC00FA6822B9D6E7D0680028D4D00246D2F8C4
:1060CC0004C0286802F1040E8445F4DDCBE7906827
:1060DC0040B10136C46094608A6248621E60FFF76A
:1060EC00C7FDD2E71A68486201328F62BC601A6041
:1060FC005C60FFF7BDFDC8E7B40000202DE9F0415E
:10610C0072B69E4BDA68DA68D9681268D3F80CC09C
:10611C0002F11C018C4500F09E801968012900F0E9
:10612C00DF80546A002C00F0AE80956A002D00F0E0
:10613C00EA80E560D2F828C00139CCF80840196033
:10614C0091680860042111618D4908680138086064
:10615C009169002900F09180916901240C61D2F8B9
:10616C0018C0D868D86885490CF11C0570B30F6845
:10617C00002F00F0A180D1F804800CF12006D8F893
:10618C000410DCF8200008F104048842C0F2DD8021
:10619C00D8F80C10002900F0D880D1F804E0306851
:1061AC000C1D86457DDDD4F800E0DCF8200086452A
:1061BC0000F38A8099681C68CD60CCF824100134F7
:1061CC000021CCF828101C609D6001E00C68CD60AB
:1061DC00002191616949D8683CB9DB68104619689F
:1061EC000122FFF76FFABDE8F081D1F80CE04F689F
:1061FC000EF104067868DEF804103D1D884200F3A9
:10620C00A280F968002900F09E80D1F804C03068A3
:10621C000D1D84454BDDD5F800C0DEF80400844527
:10622C0063DC99681C68C1F80CE0CEF808100134E6
:10623C000021CEF80C101C60C3F808E04CB1012C06
:10624C006FD05C680020E16859608860196801397A
:10625C001960DC60C1E7196889B101296AD0D3F8EB
:10626C0004C00024DCF80CE00139C3F804E0196028
:10627C00CEF80840C3F80CC062E71C68AAE78C464D
:10628C00C3F80CC05CE700293FF45AAFD3F804C044
:10629C000139DCF80CC01960C3F804C0CCF8084014
:1062AC004EE7C86800283FF47EAF014675E7C86822
:1062BC000028B0D00146A8E7CCF82470CCF82870A0
:1062CC000C604D608D6083E7886800283FD07C1C93
:1062DC00C5608D60CCF82810CCF824001C6077E7E2
:1062EC0000215960996019602AE78868002839D024
:1062FC000134C0F80CE0C1F808E0CEF80C10CEF870
:10630C0008001C609AE700293FF41AAFD3F808C0C4
:10631C000139DCF808C01960C3F808C0CCF80C507F
:10632C000EE700215C68996059601968DC600139DE
:10633C00196052E7D3F804C00021596099601960C4
:10634C00C3F80CC0FCE6394665E741462BE71C68F0
:10635C00CCF824000134CCF82880C8F808501C6014
:10636C005D6035E71C68CEF808000134CEF80C707F
:10637C00C7F808E01C60C3F804E05FE7B400002035
:10638C00C400002070B5044672B6C3680369032BC1
:10639C0037D8DFE803F05740145C03460A68012A3B
:1063AC0000F0AA809D68002D00F0BC80D868002801
:1063BC0000F0C180E860DB68013A9D600A606B4DBB
:1063CC0004F11C06EB68EB68002B5ED028463146C6
:1063DC00FFF726F9EA68EA68644B96425BD01A68C4
:1063EC00012A67D0616A002969D0A06A002875D09B
:1063FC00C860A06A013A81601A605D4B1A68013A64
:10640C001A60A36913B1A069FFF730FD62B6A068EA
:10641C00FEF7FCFB70BD554DEB68EA6800F11C0300
:10642C009A4224D02B68012B61D0426A002A6FD08B
:10643C00816A002900F08980D160816A013B8A6001
:10644C002B60DAE74FF0FF30FFF758FED9E74169D0
:10645C0048680028B3D003689C4218BF03469CD000
:10646C00DB68002BABD01A689442F9D196E72B6805
:10647C00002B2DD0012B72D06A680020D168013B13
:10648C0069602B608860EA60B7E7EE60EA68EA68EA
:10649C00364B9642A3D11A68EAB1012A31D0596819
:1064AC004FF0000CC868013A58601A60C0F808C078
:1064BC00E960A2E700225A609A601A609DE7002A00
:1064CC009BD05868013AC0681A605860816094E7A4
:1064DC001A46EA6091E71146E9608EE7002A8CD0F3
:1064EC009968013A89681A609960C86085E7002349
:1064FC006B60AB602B6080E700234B608B600B60A4
:10650C005DE7596800225A609A601A60E96074E786
:10651C00002B3FF472AF6968013BC9682B6069605E
:10652C008A606AE7002A3FF44AAFC368013A4B60BD
:10653C000A609D6043E7002A3FF441AF8B68013A43
:10654C009B680A608B60D86039E7002B3FF455AF2D
:10655C00AA68013B92682B60AA60D1604DE76A681B
:10656C0000236B60AB602B60EA6046E7B400002050
:10657C00C400002010B54CF2000340F2D404C4F265
:10658C000003C2F200042360FEF756FC42F228031B
:10659C00C4F20D031A68082142F001021A6042F29B
:1065AC002C03C4F20D031A6842F001021A6044F283
:1065BC0004030022C4F20D031A6044F28403C4F2F3
:1065CC000D03196044F28003C4F20D031A6044F207
:1065DC000013C4F20D031A6049F22043C4F20D03F8
:1065EC00196841F0030119602368196B21F001014E
:1065FC0019634FF0FF3159649A6311225A620522D4
:10660C009A627022DA621A6B42F4407242F0010212
:10661C001A6330229A6310BD036840F2D900103B14
:10662C00C0F20400181810B4800200F583729200B6
:10663C00D2F800C040F2E002C2F20002D15C4CEA97
:10664C000101D15400F5E37140F2E4028900C2F279
:10665C0000020C6852F823C044EA0C0C42F823C028
:10666C0000F5827303339B004FF0FF321A600B6806
:10667C000B6010BC704700BFEFF3038000F03F00CD
:10668C0001B500F023F8BDE801404FF001034FEADB
:10669C0003630C4941F001010B4AA2F101020EB453
:1066AC002DE90F10BFF36F8F704707DFFDE70798D9
:1066BC0000F400704FEAD01000F120008544BFF3C5
:1066CC006F8F7047B6662000F566200000B5054B4D
:1066DC0081B053F8203000900BB16846984701B058
:1066EC0000BD00BFF401002000B540F2F40381B0FE
:1066FC0001AAC2F2000342F8040D53F82030684698
:10670C00984701B000BD00BF704700BF00B500F056
:10671C0023F800BD46F67C3000B5C0F22000FEF731
:10672C00EBF946F64420C0F22000FEF7E5F940F202
:10673C006003C2F200030A221A604EF60C53CEF22A
:10674C000003196840F2040289B2C0F2FA5241EA1D
:10675C0002021A6000BD00BF2DE9F04172B62C4B4D
:10676C002C48D3F800E010F8011C0EF1180309278F
:10677C00DFF8A4C00D260A25284C29B3092927D0F7
:10678C000A2932D0DCF8008008F10108CCF800802E
:10679C001A6812F0200FFBD1B8F14F0FCEF8001091
:1067AC000DDD1A6812F0200FFBD1CEF800601A68CC
:1067BC0012F02002FBD1CEF80050CCF800200130B2
:1067CC0010F8011C0029D9D1FFF7A4FFBDE8F08116
:1067DC001A6812F0200FFBD1DCF80020CEF8007004
:1067EC000832CCF800200130EAE71A6812F0200FCA
:1067FC00FBD1CEF800601A6812F02002FBD1CCF865
:10680C0000202268CEF80050013222600130D7E718
:10681C00D4000020916B2000D8000020DC00002068
:10682C0030B50B4C0546236823B1DA68013ADA60BF
:10683C00DA683AB1636823B15A682846DA601B6992
:10684C00984730BD5A68DA601B699847F2E700BF79
:10685C00F40200204F4B70B41D6847F2F833C2F2BB
:10686C0000034FF440625A6000229A60DA60EA68D2
:10687C001B6002F54062EA605A686B68002B52D0CC
:10688C0047F2F83CC2F2000C1E689444B4450CBFAD
:10689C001A461A4604D0D26812B111688C45FAD146
:1068AC0047F2F831C2F200010C6859687618B4420C
:1068BC0008D0DB68002B35D0D3F800C05968614490
:1068CC008C42F6D119461346BBB147F2F832C2F2EC
:1068DC0000025468D3F804C0A444C2F804C02A6867
:1068EC00012A2ED09C68002C39D0DE68002E2DD0C9
:1068FC00E660DB68013A9C602A6039B147F2F833F4
:10690C00C2F200035B684A68D3184B608546BFF33C
:10691C006F8F5DF804CB8CF30388BDE8FF5F00BD7F
:10692C0070BC704713462A6812BB47F2F831C2F2AA
:10693C0000018A60CA606960A96001212960114662
:10694C00C2E700236B60AB602B60D6E7002AD4D083
:10695C00AB68013A9B682A60AB60DE60CDE7002A29
:10696C00CBD06B68013ADB682A606B609C60C4E733
:10697C00A96847F2F83CC2F2000CC1F80CC0CCF884
:10698C00081001320021CCF80C102A60C5F808C0A0
:10699C009AE700BF8800002081B04DF804CD0FF2BB
:1069AC003A0CCDF804C05DF804CBEFF3038C2DE961
:1069BC00FF5FEFF3038C4DF804CDC0F800D08D468B
:1069CC00BFF36F8F5DF804CB8CF30388BDE8FF5FDA
:1069DC004DF804CDDDF804C0E7465DF804CB01B0FA
:1069EC00704700BF40F20833C2F2000300221A6065
:0869FC005A609A60DA607047EE
:106A0400074B10B51A6852B9064C01221A60636824
:106A14002BB10434984754F8043F002BFAD110BD2D
:086A240004000020C86B2000F3
:106A2C00433C2D0009000000502D3E0054686520A9
:106A3C00656E6421000000000A00000041524D7692
:106A4C00375F4D4D553A3A616C6C6F63282920665F
:106A5C0061696C656421000044756520746F206C5D
:106A6C0061636B206F6620656E74726F70792C2079
:106A7C0052616E646F6D206973206120707365754F
:106A8C00646F2072616E646F6D206E756D626572DD
:106A9C00732067656E657261746F7221000000006F
:106AAC0050757265205669727475616C206D6574D1
:106ABC00686F642063616C6C6564210000000000E9
:106ACC000000000079522000A552200099522000AD
:106ADC0000000000000000006D522000B5522000A4
:106AEC00C94B20005468726561643A3A70617373E3
:106AFC00203D3E207468726561642028000000000F
:106B0C0029206E6F74207265616479210000000089
:106B1C00546865206C6173742074687265616420BC
:106B2C006861732065786974656421005265626FD1
:106B3C006F74696E6720746865206D616368696E37
:106B4C0065202E2E2E000000526573756D65206336
:106B5C00616C6C656420666F7220756E73757370F2
:106B6C00656E646564206F626A6563742100000061
:106B7C004D616368696E653A3A7265626F6F74282D
:0C6B8C002900000050414E4943210A003E
:106B9800FFFFFFFF75422000DD4220009D442000DA
:106BA8004147200059472000214A200085522000F3
:106BB800B156200081652000F16920000000000026
:0C6BC800FFFFFFFF4D4720000000000011
:040000050020411C7A
:020000040027D3
:0CFFD400FFFFFFEF000000000000200015
:00000001FF
