:020000040020DA
:10400000F87F00201D412000315F2000315F20003B
:10401000315F2000315F2000315F2000315F2000E0
:10402000315F2000315F2000315F2000675F20009A
:10403000315F2000315F2000315F2000315F2000C0
:10404000315F2000315F2000315F2000315F2000B0
:10405000315F2000315F2000315F2000315F2000A0
:10406000315F2000315F2000315F2000315F200090
:10407000315F2000315F2000315F2000315F200080
:10408000315F2000315F2000315F2000315F200070
:10409000315F2000315F2000315F2000315F200060
:1040A000315F2000315F2000315F2000315F200050
:1040B000315F2000315F2000315F2000315F200040
:1040C000315F2000315F2000315F2000315F200030
:1040D000315F2000315F2000315F2000315F200020
:1040E000315F2000315F2000315F2000315F200010
:1040F000315F2000315F200010B5074C54F8043CBC
:10410000B3F1FF3F06D0043C984754F8043DB3F1A7
:0C411000FF3FF9D110BD00BF5465200036
:10411C0040400949094A086004319142FBDBFFF732
:10412C00E5FF00BF00F0B2F900F0D2F901B402F0E3
:10413C0037F900F059FC000004000020E8020020D0
:10414C00F0B5CB6881B004460D461746002B2DD038
:10415C0023602B68002623616B68666123622A69E1
:10416C00A661E4616662A66205F10801204601F0D1
:10417C00BDF92B69A2686660D218A2F140034FF01A
:10418C00807142F8401C0B4A01A942F001029A636B
:10419C0047F00102DA63204641F8047DE36069468A
:1041AC004FF4406201F01EFC01B0F0BD024B1B68E5
:1041BC00CEE700BFE94920007C000020294B30B538
:1041CC00186844682246002C47D063683F2B07D8F8
:1041DC00302B11D0D268002A3FD053683F2BF7D92F
:1041EC00303B5360C1683039C16053B11268302123
:1041FC00D018D150043030BD00235360C168303921
:10420C00C160016801290BD0956875B1D468BCB147
:10421C00EC60D2F80CC00139CCF808500160E5E72D
:10422C000021416081600160E0E70029DED0D4F814
:10423C000CC00139C0F804C00160CCF80850D5E7B7
:10424C000029D3D0D0F808C00139DCF808C00160CF
:10425C00C0F808C0CCF80C40C8E700F0CDFB00203B
:10426C00C9E700BF58000020F0B58CB000240A94B8
:10427C000A9B4FF4406701930094029403940497B3
:10428C00FFF79CFF44F23012C0F22002694605464B
:10429C00FFF756FF6FF000430B930B9B0126069321
:1042AC000596079408940997FFF788FF45F29572D5
:1042BC00C0F2200205A9FFF743FF40F2A003C2F2AF
:1042CC0000031E70E86801F01BFF0CB0F0BD00BFCE
:1042DC002DE9F0076B4E7368002B76D059680029D6
:1042EC0073D0DFF8A481B24600270022D8F8005022
:1042FC005A60F268521AF2605A68BAB9DAF8004099
:10430C00012C76D09868002800F09B80D3F80CC064
:10431C00BCF1000F00F0A580C0F80CC0DA6890600A
:10432C00DAF80020013ACAF800205A681C68A41870
:10433C0049D00F2947D961602460A760E760EB681A
:10434C0059186B68E960D4F800C06068002B40D045
:10435C00D3F80090604448450CBF1A461A4604D066
:10436C00D26812B111688842FAD159688944CC4597
:10437C0007D0DB68002B2BD01868596841188C4586
:10438C00F7D119461346CBB160685A68821862603F
:10439C002868012802BF6F60AF602F600ED09A684A
:1043AC00002A2ED0D3F80CC0BCF1000F33D0C2F8C9
:1043BC000CC0DB689A602B68013B2B6019B14A6812
:1043CC006368D3184B60736873B9BDE8F007704726
:1043DC0013462968002929D1A160E1602A686C6024
:1043EC000132AC602A60CEE7596800297FF47DAFBA
:1043FC00EBE7CAF80420CAF80820CAF800205A686B
:10440C0094E70028DAD06B68DB686B609A602B68E5
:10441C00013B2B60D2E70028D0D0AB689B68AB6027
:10442C00C3F80CC02B68013B2B60C7E7AA68394660
:10443C00D460AA68E760A2602A68AC6001322A6086
:10444C00A1E7002C3FF472AFDAF80400C068CAF898
:10445C0004008260DAF80020013ACAF800205A6899
:10446C0064E7002C3FF462AFDAF808008068CAF801
:10447C000800C260DAF80020013ACAF800205A6835
:10448C0054E700BFD802002058000020704700BF3E
:10449C0040F21803C2F200030A204FF0FF31002251
:1044AC00596018601A7240F20C03C2F20003596092
:1044BC0018601A72704700BF40F22403C2F2000366
:1044CC000A221A604FF0FF325A6000221A727047AB
:1044DC004BF22043C4F20D031A682DE9F04522F08B
:1044EC0008021A604BF20043C4F20D031A6882B042
:1044FC0042F008021A604BF21C43C4F20D0308226E
:10450C001A604BF21873C4F20D031A684BF22005B3
:10451C0022F4002248F2A0641A600DF1040AC4F2DD
:10452C000D05FF27C0F2010400262F6050460194B0
:10453C0000F086FE2E606846009400F081FEF4E7E1
:10454C0030B500F05DFAA8494B68002B00F03581BE
:10455C005A6846F20300824209D8B2F5C04F06D021
:10456C00DB68002B00F029815A688242F5D9A2F54C
:10457C00C0425A60CA689C48A2F5C042CA605A68D8
:10458C0092B90468012C00F0CE809968002900F0E3
:10459C00FC80DD68002D00F00481CD60DA6891604C
:1045AC000268013A02605A681968DFF840C20023B9
:1045BC008C18CCF80030CCF80430CCF80830CCF89F
:1045CC000C3049D04FF4C0408C506060A360E36065
:1045DC00DCF80C301B18CCF80C30DCF8043051F83B
:1045EC0002E06068002B00F086801D687044A842D1
:1045FC000CBF1A461A4604D0D26812B11168884210
:10460C00FAD159686D18AE4507D0DB68002B71D014
:10461C001868596841188E45F7D119461346B3B13D
:10462C0060685A6882186260DCF80000012872D059
:10463C009A68002A7CD0DD68002D00F08780D56058
:10464C00DB689A60DCF80030013BCCF8003019B123
:10465C004A686368D3184B60654C664BC3F800C05E
:10466C0000F0D4FA00F0FCFA49F20043C4F20D0356
:10467C001A68614822F001021A6044F28003C4F205
:10468C000D03012247F208011A60C4F20D01B02398
:10469C0047F20002D0F800C00B60C4F20D021368A0
:1046AC0013F0800FFBD047F21001C4F20D010A6821
:1046BC0047F20C01C4F20D010B6803EB022144F626
:1046CC006D62C4F2C61202FB0CF303F5405339338E
:1046DC0041F30B11B3F1FF3F28BF013381EA030310
:1046EC000360464800F002F9454800F0FFF80A2341
:1046FC00236030BD1346DCF80010002935D1A160D1
:10470C00E160DCF80020CCF804400132CCF8084021
:10471C00CCF8002083E70023CCF80430CCF8083028
:10472C00CCF8003093E74260826002605A683BE745
:10473C0000288CD0DCF80430DB68CCF804309A60AC
:10474C00DCF80030013BCCF8003080E700283FF467
:10475C007EAFDCF808309B68CCF80830DD60DCF804
:10476C000030013BCCF8003071E7DCF80820002168
:10477C00D460DCF80820E160A260DCF80020CCF802
:10478C0008400132CCF8002049E7002C3FF40CAF74
:10479C004168C96841608A600268013A02605A68DF
:1047AC0002E7002C3FF400AF816889688160CA6021
:1047BC000268013A02605A68F6E60D4C0123237236
:1047CC00104800F093F80E4800F090F8DFF81CC089
:1047DC000A2323600023CCF80030CCF80430CCF84A
:1047EC000830CCF80C3038E7D80200204800002004
:1047FC0030000020580000205C000020F4632000F2
:10480C00F0632000D463200010B54CF2000340F29A
:10481C00A404C2F20004C4F20003236000F088F97F
:10482C0042F22803C4F20D031A68082142F0010277
:10483C001A6042F22C03C4F20D031A68112042F0E4
:10484C0001021A6044F204020023C4F20D02136048
:10485C0044F28402C4F20D02116044F28002C4F2EC
:10486C000D02136044F20012C4F20D02136049F2FF
:10487C002042C4F20D02116841F00301116022685C
:10488C00116B21F00101116322684FF0FF3151646B
:10489C002268936322685062226805209062226825
:1048AC007020D0622068026B42F4407242F0010228
:1048BC00026322683020906340F2AC02C2F2000224
:1048CC00136040F2A802C2F20002136040F23C02F4
:1048DC00C2F200020A2051601060137240F23002E2
:1048EC00C2F2000210605160137210BD2D4B0021FA
:1048FC002DE9F0071C6810F801A004F118034FF023
:10490C000908DFF8A4C00D270A26284DBAF1000FBC
:10491C0026D0BAF1090F26D0BAF10A0F30D0DCF844
:10492C00009009F10109CCF800901A6812F0200FE0
:10493C00FBD1B9F14F0FC4F800A00BDD1A6812F0CF
:10494C00200FFBD127601A6812F02002FBD12660E1
:10495C00CCF80020013110F801A0BAF1000FD8D129
:10496C00BDE8F00770471A6812F0200FFBD1DCF895
:10497C000020C4F800800832CCF800200131EAE7AE
:10498C001A6812F0200FFBD127601A6812F020026F
:10499C00FBD1CCF800202A68266001322A60013154
:1049AC00D9E700BFA4000020A8000020AC00002024
:1049BC0010B546F23C4040F230040123C2F2000430
:1049CC00C0F220002372FFF791FF46F2F030C0F2E4
:1049DC002000FFF78BFF0A23236010BD00B50046B3
:1049EC0001F0DAF800BD00BF00B501F0D5F800BD4C
:1049FC0000B501F007FB00BD00B5FFF7F9FF00BDE6
:104A0C0000B500F001F800BDDFF81CC147F2F83228
:104A1C00C2F20002CCEB020270B4002A4AD000238E
:104A2C00424DCCF800C0CCF80420CCF80830CCF8BF
:104A3C000C30EB686446D318EB606B68002B3CD0F1
:104A4C001E680CEB8200B0420CBF1A461A4604D00A
:104A5C00D26812B111688842FAD1596806EB810606
:104A6C00B44208D0DB68002B26D05868196801EBDB
:104A7C0080018C42F6D119461346ABB1DCF8040028
:104A8C005A688218CCF804202C68284A012C23D0B0
:104A9C009868002825D0DD68002D3AD0C560DB6809
:104AAC0098601368013B136021B14A68DCF804304C
:104ABC00D3184B6070BC704713462A681B48D2B998
:104ACC000121CCF80820CCF80C200160C0F804C0FF
:104ADC00C0F808C01146D0E7002353609360136000
:104AEC00E2E7002CE0D05368DB68536098601368F1
:104AFC00013B1360D8E781680132C1F80CC08168B2
:104B0C00CCF808100021CCF80C10C0F808C00260DA
:104B1C00B3E7002CC8D093689B689360DD60136882
:104B2C00013B1360C0E700BFE8020020D802002060
:104B3C002B480378002B52D14CF22042C4F20D02C8
:104B4C0013684FF0010C23F0400313604CF2004348
:104B5C00C4F20D03196821F04001196044F2F80108
:104B6C00C4F20D01C1F800C0116821F08001116080
:104B7C001A6822F080021A6044F2FC03C4F20D039E
:104B8C0042F20002C3F800C0C4F20D0211684FF6E5
:104B9C00F873CFF6DC6301EA030343F4081342F223
:104BAC0004011360C4F20D010A6840F20003C0F264
:104BBC00011302EA0303002BF6D142F20003C4F204
:104BCC000D031A6822F4E0621A6042F20402C4F285
:104BDC000D02136813F0806FFBD001230370704734
:104BEC006000002000B5FFF7A3FF42F29803C4F267
:104BFC000D031A6842F001021A604EF60853CEF209
:104C0C0000034FF401121A6000BD00BF00B5FFF79E
:104C1C00E9FF00F0EBF800F001F800BD4EF21003D4
:104C2C004EF21802CEF200030021CEF200021960FF
:104C3C0011604EF21402CEF200024FF4FA411160F0
:104C4C0006221A6046F2D90140F2C402C2F20002F6
:104C5C00C0F22001D1631A6842F001021A60704759
:104C6C0000B500F00DF900F001F800BD10B5324BA5
:104C7C00186841680B46002959D04A68272A07D87A
:104C8C00182A05D0DB68002B51D05A68272AF7D98F
:104C9C00183A5A60C268183AC2605A6892B9D0F889
:104CAC0000C0BCF1010F21D09C68002C26D0D96823
:104CBC0000292FD0E160DA680CF1FF3CC0F800C08D
:104CCC0094605A68196818208B1888500433012195
:104CDC0019721A4900221A6019610A2218495A607D
:104CEC00086840B1DA60174A136010BD0260426078
:104CFC0082605A68E6E70B605A68F3E7BCF1000F74
:104D0C00E0D0C9680CF1FF3CC0F800C041608A607B
:104D1C005A68D7E7BCF1000FD4D081680CF1FF3C86
:104D2C008968C0F800C08160CA605A68CAE7FFF79A
:104D3C0063FE0023CBE700BF58000020CD582000B5
:104D4C00C40200208000002049F21803C4F20803BA
:104D5C001A6840F2CC23C2F20003196841EA02023D
:104D6C001A6049F20803C4F208031A6840F2D0230F
:104D7C00C2F20003196841EA02021A6049F21003F8
:104D8C00C4F208031A6840F2D423C2F20003196873
:104D9C0041EA02021A6070470368232B0DD0252BC1
:104DAC0013D0272B19D0332B01BF43F22403C4F2A9
:104DBC0003034FF0FF321A60704740F22403C4F231
:104DCC0003034FF0FF321A60F6E741F22403C4F2FA
:104DDC0003034FF0FF321A60EEE742F22403C4F2F1
:104DEC0003034FF0FF321A60E6E700BF72B64EF6CF
:104DFC001453CEF200031A681A4942F001021A60E9
:104E0C004EF280134FF0FF32CEF200031A604EF2D6
:104E1C008413CEF200031A60134A0023CA500433E1
:104E2C00B3F5807FFAD10F4B104A1148DA6000239A
:104E3C001946C1500433B3F5807F0D4AF9D10D4B9F
:104E4C00C2F88C30C2F89430C2F89C30C2F8CC3026
:104E5C00094BC2F8F030094B136453649364D36468
:104E6C00704700BFC4000020C15F2000C55F200058
:104E7C00C4010020A54D2000554D2000D15E20001E
:104E8C0010B5314B186841680B46002957D04A6859
:104E9C00272A07D8182A05D0DB68002B4FD05A6870
:104EAC00272AF7D9183A5A60C268183AC2605A6869
:104EBC0092B9D0F800C0BCF1010F1FD09C68002C37
:104ECC0024D0D96800292DD0E160DA680CF1FF3CC0
:104EDC00C0F800C094605A68196818208B18885064
:104EEC0004331A490122196119491A605A601A725D
:104EFC00486840B1DA60174A136010BD0260426026
:104F0C0082605A68E8E74B605A68F3E7BCF1000F1F
:104F1C00E2D0C9680CF1FF3CC0F800C041608A6067
:104F2C005A68D9E7BCF1000FD6D081680CF1FF3C70
:104F3C008968C0F800C08160CA605A68CCE7FFF786
:104F4C005BFD0023CDE700BF58000020BD4F2000C3
:104F5C00C402002068000020014B0360704700BFB2
:104F6C0074642000014B0360704700BF7464200020
:104F7C0040F26C03C2F2000300221A605A609A607D
:104F8C00704700BF00B5406800F084F900BD00BF59
:104F9C00024B00B5036001F085F900BD746420007C
:104FAC00024B00B5036001F07DF900BD7464200074
:104FBC00F0B572B63F4B1A6801321A603E4A13685C
:104FCC002BB15168486801380028486007DD002380
:104FDC0062B61BB1586803689B689847F0BD012BFB
:104FEC003CD0CB680020536098601368013B136081
:104FFC00CB6823B1D3F804C04868604458600B6890
:10500C009868B0F1FF3F03D0013898600028DFD0DA
:10501C00D3F80CC02848C1F804C01668002E35D04F
:10502C0047687C68A445B8BF3D4609DBF868F8B111
:10503C00C4EB0C0CC1F804C044680546A44514DA52
:10504C00A868002829D0CCEB040C0136C5F804C0A4
:10505C00C160A960CD6088601660B9E70023536019
:10506C0093601368013B1360C2E7C0680028DFD16E
:10507C009068C4EB0C0CC1608860C1F804C00020BF
:10508C00C8609160116801311160A1E701228E6046
:10509C00CE600260416081609AE7CCEB040CC5F8ED
:1050AC0004C08860CF60B960516011680131116033
:1050BC008EE700BF640000206C00002030B472B694
:1050CC00DFF880C0DCF80410E9B10B68984218BF17
:1050DC000B462BD0DB68B3B11A689042FAD1DCF8DE
:1050EC000000184C012811D09D68002D20D0DA68E2
:1050FC0092B1EA60DA680138956020601AB15168A3
:10510C005B68CB18536062B630BC7047002262609B
:10511C00A2602260DA68F1E70028F4D0A1680138B7
:10512C0089682060A160CA60DA68E7E70B46D6E7B9
:10513C0008B9DA68E2E7CA680138626020609560F5
:10514C00DA68DBE76C00002083603B4BD1F800C0D1
:10515C001B68C0F800C05B684FF47A7CBCFBF3F3AF
:10516C0044F2402CC0F20F0CBCFBF3FC0B6800218A
:10517C0003EB5C03B3FBFCF3F0B54260C36000616E
:10518C0043618161C16172B62BB962B61368104676
:10519C009B689847F0BD294C00F1100C2668002E36
:1051AC0032D0676879688B42B8BF3D461ADBFA6823
:1051BC004AB15B1ACCF80430516815468B421FDAA1
:1051CC00436999420EDC5B1A4361A368C3F80CC0B7
:1051DC0083610023C3612368C4F808C001332360D2
:1051EC0062B6D7E7AA68CAB1CB1A01366B60C2F8AF
:1051FC000CC0C5F808C0C5618261266062B6C9E7FB
:10520C00D268002AD5D1DBE701238661C661236011
:10521C00C4F804C0C4F808C062B6BBE7CB1A6B6014
:10522C00236882610133C761C7F808C02360C4F8E2
:10523C0004C062B6AEE700BF680000206C0000201E
:10524C0070B58EB008AC06460021204600F01CF864
:10525C000B4B31460CAA0C93684601230D94FFF7B7
:10526C0073FF204600F034F86846FFF727FF054B24
:10527C0020466D460C9300F049F80EB070BD00BF8F
:10528C00606420007464200000230360436083602A
:10529C00C160704710B572B60C4C4FF0010221463C
:1052AC00D1E84F3FC1E84C2FBCF1000FF8D1DBB275
:1052BC00002BF5D1C268C16823700131002AC1608E
:1052CC0001DB62B610BD00F0EFFBFBE778000020BD
:1052DC0010B572B60C4C4FF001022146D1E84F3F8D
:1052EC00C1E84C2FBCF1000FF8D1DBB2002BF5D18B
:1052FC00C268C16823700139002AC16001DD62B641
:10530C0010BD00F037F8FBE77900002000B572B64D
:10531C0000F0DCFA00BD00BF40F284020023C2F2B0
:10532C000002D36013605360936040F29802C2F2A3
:10533C00000213605360704712F0FF0F18BF0C4B44
:10534C0000B51FBF1B68DA685A68DA60884209D05A
:10535C0003694BB100230B6150F80C3FCB68C96853
:10536C0000F070FF62B600BD01230361F2E700BFDD
:10537C00800000205C492DE9F045CB68CB681A68A9
:10538C00CB68CB6802F11C069E4263D00B68012BE4
:10539C0000F08380546A002C72D0956A002D00F0C6
:1053AC008180E560D2F828C0013BCCF808400B6046
:1053BC00D0F8008003231361B8F1000F25D0D0F88A
:1053CC0004A002F12007DAF80430D2F820C00AF168
:1053DC0004059C452EDA5346D5F800E0D2F820C0DF
:1053EC00E6451BDC836808F10108DE60536200238C
:1053FC009362C0F800808660CB68506119681046D3
:10540C000122FFF799FFBDE8F0850123C2F8248043
:10541C00C2F82880036046608660EDE79C68002C2B
:10542C0056D008F10108E6609E6093625462C0F8A1
:10543C000080E1E7DAF80C3023B9CCE7DC68002C0B
:10544C00CAD02346D3F804E0D7F800C01D1DE645AA
:10545C00F4DDC1E70B687BB1012B30D0D1F804C06F
:10546C000024DCF80CE0013BC1F804E00B60CEF842
:10547C000840C1F80CC09BE79C46C1F80CC097E7EC
:10548C00002B95D0D1F804C0013BDCF80CC00B60AC
:10549C00C1F804C0CCF808408AE700234B608B604D
:1054AC000B6085E7002B83D0D1F808C0013BDCF8FA
:1054BC0008C00B60C1F808C0CCF80C5078E7D1F8E4
:1054CC0004C000234B608B600B60C1F80CC06FE70D
:1054DC0008F101085462C2F828A0CAF80860C0F8A4
:1054EC000080466088E700BF840000202DE9F0456D
:1054FC00044672B6614B6248196804F11C0701310D
:10550C001960C368C368002B64D0D0F80080B8F170
:10551C00000F1FD0D0F804A004F12006DAF8041014
:10552C00236A0AF10405994256DD5346D5F800C0AA
:10553C00216A8C4569DC8368DF6063620023A362A7
:10554C0003688760013303604E4B18687AB9A26018
:10555C00BDE8F0850123C4F82480C4F828800360DA
:10556C0047608760474B18680AB9F0E7013212F0C0
:10557C00030FFBD1456804320F2A98BF10222B462B
:10558C00002D76D0696802F1100C8C4507D9914238
:10559C0005D0DB68002B6CD059686145F7D3891AAC
:1055AC005960C168891AC160596871B90668012EC1
:1055BC0036D09F68002F42D0DD68002D4BD0FD60A7
:1055CC00D968013E06608F6059681B6858185A509C
:1055DC00021DBCE7C760C5E7DAF80C30002BA4D07D
:1055EC00D3F804C031681D1D8C459FDCD968002997
:1055FC009CD00B46D3F804C031681D1D8C45F5DDDD
:10560C00D5F800C0216A8C4595DD996869B108F11F
:10561C000108CF609F60A3626162C0F80080A1E7BF
:10562C000160416081605968CFE7036861620133B2
:10563C00C4F828A0CAF808700360476092E7002EEF
:10564C00C3D0D5F80CC0013E0660C0F804C0CCF83D
:10565C0008105968B9E7002EB7D0D0F808C0013E41
:10566C00DCF808C00660C0F808C0CCF80C1059680B
:10567C00ABE7FFF7C1F9002269E700BF94000020F7
:10568C008400002058000020F0B572B63D4BDA685B
:10569C00DA681068DA681A68002A3DD059686FF029
:1056AC00004CD1F804E0E64536D0012AD3F80CE0E2
:1056BC0055D0D1F80CC00024013AC3F804C01A60CC
:1056CC00CCF808401E682F4AD960002E2AD05768A3
:1056DC000EF104057A68DEF804103C1D914243DBA0
:1056EC00FA68002A40D0D2F804C02968141D8C45F1
:1056FC0023DDD4F800C0DEF804108C4522DC9A6857
:10570C00C2F80CE0CEF808200022CEF80C201A6863
:10571C00C3F808E001321A60DB6801221968FFF750
:10572C000BFEF0BD0121CEF80860CEF80C601160C4
:10573C00C2F804E0C2F808E0EEE7D1680029D8D03E
:10574C000A46D0E7916889B10136C1F80CE0C2F87D
:10575C0008E0CEF80C20CEF808101E60DCE7002222
:10576C005A609A601A60ADE73A46C2E71A68CEF8FA
:10577C0008100132CEF80C70C7F808E01A60C3F8B4
:10578C0004E0C9E78400002030B5114D114C2A68A3
:10579C002368012B06D962B630BF002AF8D0FFF778
:1057AC0073FFF4E772B60C4C0C48FFF79FF80A2510
:1057BC000B48FFF79BF825600A48FFF797F8084855
:1057CC00FFF794F8256000F0FBFB30BF002030BDE4
:1057DC00840000209400002030000020AC642000E5
:1057EC00F0632000C8642000344BF0B5DA681C6804
:1057FC001068DA682CB9DB6801221968FFF79CFD88
:10580C00F0BDD3F80CE05F680EF104067A68DEF8A0
:10581C0004103D1D914243DBFA68002A40D0D2F8B7
:10582C0004C03168151D8C451FDDD5F800C0DEF8AD
:10583C0004108C451EDC9A681C68C2F80CE0CEF88B
:10584C00082001340022CEF80C201C60C3F808E0BC
:10585C004CB1012C1BD05C680021E2685A6091604D
:10586C001A68013A1A60DC60C5E7D1680029DCD0FF
:10587C000A46D4E79168A9B10134C1F80CE0C2F82A
:10588C0008E0CEF80C20CEF808101C60E0E70022EF
:10589C005C689A605A601A68DC60013A1A60AAE780
:1058AC003A46C2E71C68CEF808100134CEF80C70EA
:1058BC00C7F808E01C60C3F804E0C9E784000020C6
:1058CC0000B572B6FFF790FF00BD00BF2DE9F04F99
:1058DC00434D0446EB680368002B74D000264FF050
:1058EC0001082F46012B40D06268013BD168236030
:1058FC0061608E601268C2F81080EB68EB685661CC
:10590C0002F11C0C002B26D0D7F800A0BAF1000F26
:10591C0030D0D7F8049002F1200ED9F80410136A95
:10592C0009F1040099422EDD4B460068116A884249
:10593C003CDCAB68C3F80CC053622B689662013335
:10594C00C5F808C02B60FFF74FFF72B62368002B19
:10595C00C8D1BDE8F08FC7F80CC0FFF745FF72B691
:10596C002368002BF5D0012BBED16268A66066605F
:10597C002660BFE756629662C7F80080C7F804C07D
:10598C00C7F808C0E9E7D9F80C3023B9CCE7D968D7
:10599C000029CAD00B46D3F804B0DEF80010181D4D
:1059AC008B45F4DD0068116A8842C2DD996861B1EB
:1059BC000AF1010AC1F80CC0C3F808C09362516225
:1059CC00C5F800A0C9E762B6C3E72B685162013382
:1059DC00C2F82890C9F808C02B60C5F804C0BCE711
:1059EC0084000020C368036910B5012B18D003692B
:1059FC00B3B12C4BDA68D96800F11C0291421CD06F
:105A0C001A68012A29D0416A002935D0846A002CF1
:105A1C003FD0CC60D0F828C0013ACCF808101A60FE
:105A2C000369012B01D062B610BD026A6FF000430E
:105A3C009A42F8D0FFF7D8FEF6E71A68CAB1012AE5
:105A4C0010D059680024D1F80CC0013AC3F804C036
:105A5C001A60CCF80840D960E2E700225A609A60DC
:105A6C001A60DDE7596800225A609A601A60D960A2
:105A7C00D6E71146D960D3E7002AD1D0D3F804C0B9
:105A8C00013ADCF80CC01A60C3F804C0CCF808105A
:105A9C00C6E7002AC4D09968013A89681A609960EF
:105AAC00CC60BDE7840000203A4BF0B5DA680268A0
:105ABC00002A37D0012A43D041684FF0000ED1F8AC
:105ACC000CC0013AC0F804C00260CCF808E00968C8
:105ADC0001200861D3F80CC0DD6800224A6101F195
:105AEC001C042C4A002D1FD01668002E20D057689D
:105AFC0001F120057A68086A07F1040E904225DA54
:105B0C003A46DEF800C0086A84452EDC9A68D460F8
:105B1C004A6200228A621A689C6001321A60FFF79E
:105B2C0063FE00E062B6F0BDD460FFF75DFEFAE7FD
:105B3C004E628E62106054609460FFF755FEF2E77F
:105B4C0000224168826042600260C0E7FA6822B9B4
:105B5C00D6E7D0680028D4D00246D2F804C0286812
:105B6C0002F1040E8445F4DDCBE7906840B10136B8
:105B7C00C46094608A6248621E60FFF735FED2E70B
:105B8C001A68486201328F62BC601A605C60FFF771
:105B9C002BFEC8E7840000202DE9F04172B69E4B25
:105BAC00DA68DA68D9681268D3F80CC002F11C0103
:105BBC008C4500F09E801968012900F0DF80546A42
:105BCC00002C00F0AE80956A002D00F0EA80E560B4
:105BDC00D2F828C00139CCF80840196091680860E7
:105BEC00042111618D490868013808609169002908
:105BFC0000F09180916901240C61D2F818C0D8682A
:105C0C00D86885490CF11C0570B30F68002F00F0A3
:105C1C00A180D1F804800CF12006D8F80410DCF82F
:105C2C00200008F104048842C0F2DD80D8F80C1082
:105C3C00002900F0D880D1F804E030680C1D8645AE
:105C4C007DDDD4F800E0DCF82000864500F38A8086
:105C5C0099681C68CD60CCF8241001340021CCF874
:105C6C0028101C609D6001E00C68CD6000219161E2
:105C7C006949D8683CB9DB68104619680122FFF7FE
:105C8C005BFBBDE8F081D1F80CE04F680EF1040627
:105C9C007868DEF804103D1D884200F3A280F96894
:105CAC00002900F09E80D1F804C030680D1D844599
:105CBC004BDDD5F800C0DEF80400844563DC996840
:105CCC001C68C1F80CE0CEF8081001340021CEF8A5
:105CDC000C101C60C3F808E04CB1012C6FD05C6850
:105CEC000020E16859608860196801391960DC602E
:105CFC00C1E7196889B101296AD0D3F804C000241E
:105D0C00DCF80CE00139C3F804E01960CEF8084067
:105D1C00C3F80CC062E71C68AAE78C46C3F80CC039
:105D2C005CE700293FF45AAFD3F804C00139DCF822
:105D3C000CC01960C3F804C0CCF808404EE7C86822
:105D4C0000283FF47EAF014675E7C8680028B0D044
:105D5C000146A8E7CCF82470CCF828700C604D6094
:105D6C008D6083E7886800283FD07C1CC5608D60FF
:105D7C00CCF82810CCF824001C6077E7002159607F
:105D8C00996019602AE78868002839D00134C0F876
:105D9C000CE0C1F808E0CEF80C10CEF808001C603E
:105DAC009AE700293FF41AAFD3F808C00139DCF8A0
:105DBC0008C01960C3F808C0CCF80C500EE70021DD
:105DCC005C68996059601968DC600139196052E7A8
:105DDC00D3F804C00021596099601960C3F80CC055
:105DEC00FCE6394665E741462BE71C68CCF82400F5
:105DFC000134CCF82880C8F808501C605D6035E789
:105E0C001C68CEF808000134CEF80C70C7F808E016
:105E1C001C60C3F804E05FE78400002094000020BD
:105E2C0010B54CF2000340F2A404C4F20003C2F219
:105E3C0000042360FEF77CFE42F22803C4F20D033B
:105E4C001A68082142F001021A6042F22C03C4F2D3
:105E5C000D031A6842F001021A6044F20403002296
:105E6C00C4F20D031A6044F28403C4F20D031960EA
:105E7C0044F28003C4F20D031A6044F20013C4F21E
:105E8C000D031A6049F22043C4F20D03196841F066
:105E9C00030119602368196B21F0010119634FF09C
:105EAC00FF3159649A6311225A6205229A62702258
:105EBC00DA621A6B42F4407242F001021A63302229
:105ECC009A6310BD036840F2D900103BC0F2040085
:105EDC00181810B4800200F583729200D2F800C03A
:105EEC0040F2B002C2F20002D15C4CEA0101D15482
:105EFC0000F5E37140F2B4028900C2F200020C68B2
:105F0C0052F823C044EA0C0C42F823C000F582730B
:105F1C0003339B004FF0FF321A600B680B6010BC10
:105F2C00704700BFEFF3038000F03F0001B500F0B5
:105F3C0023F8BDE801404FF001034FEA03630C491D
:105F4C0041F001010B4AA2F101020EB42DE90F1030
:105F5C00BFF36F8F704707DFFDE7079800F4007001
:105F6C004FEAD01000F120008544BFF36F8F7047CB
:105F7C00625F2000A15F200000B5054B81B053F893
:105F8C00203000900BB16846984701B000BD00BFAF
:105F9C00C401002000B540F2C40381B001AAC2F2D2
:105FAC00000342F8040D53F820306846984701B0BE
:105FBC0000BD00BF704700BF00B500F023F800BD66
:105FCC0046F20C5000B5C0F22000FEF78FFC46F2F2
:105FDC00F030C0F22000FEF789FC40F23003C2F230
:105FEC0000030A221A604EF60C53CEF20003196815
:105FFC0040F2040289B2C0F2FA5241EA02021A607B
:10600C0000BD00BF2DE9F04172B62C4B2C48D3F8E3
:10601C0000E010F8011C0EF118030927DFF8A4C0EA
:10602C000D260A25284C29B3092927D00A2932D054
:10603C00DCF8008008F10108CCF800801A6812F036
:10604C00200FFBD1B8F14F0FCEF800100DDD1A6800
:10605C0012F0200FFBD1CEF800601A6812F020026B
:10606C00FBD1CEF80050CCF80020013010F8011C08
:10607C000029D9D1FFF7A4FFBDE8F0811A6812F00E
:10608C00200FFBD1DCF80020CEF800700832CCF8E1
:10609C0000200130EAE71A6812F0200FFBD1CEF88D
:1060AC0000601A6812F02002FBD1CCF800202268A4
:1060BC00CEF80050013222600130D7E7A400002056
:1060CC0021652000A8000020AC00002030B50B4C4E
:1060DC000546236823B1DA68013ADA60DA683AB126
:1060EC00636823B15A682846DA601B69984730BD4B
:1060FC005A68DA601B699847F2E700BFC4020020B7
:10610C004F4B70B41D6847F2F833C2F200034FF4E2
:10611C0040625A6000229A60DA60EA681B6002F5FD
:10612C004062EA605A686B68002B52D047F2F83C28
:10613C00C2F2000C1E689444B4450CBF1A461A46B1
:10614C0004D0D26812B111688C45FAD147F2F831FB
:10615C00C2F200010C6859687618B44208D0DB68AA
:10616C00002B35D0D3F800C0596861448C42F6D16D
:10617C0019461346BBB147F2F832C2F2000254681A
:10618C00D3F804C0A444C2F804C02A68012A2ED053
:10619C009C68002C39D0DE68002E2DD0E660DB68C0
:1061AC00013A9C602A6039B147F2F833C2F200031D
:1061BC005B684A68D3184B608546BFF36F8F5DF8F8
:1061CC0004CB8CF30388BDE8FF5F00BD70BC704747
:1061DC0013462A6812BB47F2F831C2F200018A60FA
:1061EC00CA606960A960012129601146C2E70023D9
:1061FC006B60AB602B60D6E7002AD4D0AB68013A59
:10620C009B682A60AB60DE60CDE7002ACBD06B6860
:10621C00013ADB682A606B609C60C4E7A96847F2AE
:10622C00F83CC2F2000CC1F80CC0CCF808100132DA
:10623C000021CCF80C102A60C5F808C09AE700BF02
:10624C005800002081B04DF804CD0FF23A0CCDF877
:10625C0004C05DF804CBEFF3038C2DE9FF5FEFF383
:10626C00038C4DF804CDC0F800D08D46BFF36F8F72
:10627C005DF804CB8CF30388BDE8FF5F4DF804CDCB
:10628C00DDF804C0E7465DF804CB01B0704700BFF1
:10629C0040F2D823C2F2000300221A605A609A60BE
:1062AC00DA6070473D4B70B41D6850F8043C041F15
:1062BC000F2B41D9002240F8044C6360A260E260CD
:1062CC00EA68D318EB606B6850F804CC6068002B5C
:1062DC0035D01E686044B0420CBF1A461A4604D032
:1062EC00D26812B111688842FAD159687618B4454F
:1062FC0007D0DB68002B21D01868596841188C45F1
:10630C00F7D11946134693B160685A6882186260D7
:10631C00286801281DD09A68002A1FD0DE68002E3C
:10632C0031D0D660DB689A602B68013B2B6019B1C9
:10633C004A686368D3184B6070BC70471346296871
:10634C00B1B9A160E1602A686C600132AC602A606E
:10635C00D9E700236B60AB602B60E8E70028E6D040
:10636C006B68DB686B609A602B68013B2B60DEE727
:10637C00AA680021D460AA68E160A2602A68AC60B7
:10638C0001322A60BFE70028D1D0AB689B68AB60B4
:10639C00DE602B68013B2B60C9E700BF5800002072
:1063AC00074B10B51A6852B9064C01221A60636883
:1063BC002BB10434984754F8043F002BFAD110BD8C
:0863CC000400002058652000C8
:1063D40041524D76375F4D4D553A3A616C6C6F635F
:1063E4002829206661696C65642100000A000000A8
:1063F40044756520746F206C61636B206F66206543
:106404006E74726F70792C2052616E646F6D2069A6
:106414007320612070736575646F2072616E646FA0
:106424006D206E756D626572732067656E6572614D
:10643400746F7221000000005075726520566972F5
:106444007475616C206D6574686F642063616C6C35
:10645400656421000000000000000000714F20006E
:106464009D4F2000914F200000000000000000001C
:10647400654F2000AD4F2000BD492000546872656F
:1064840061643A3A70617373203D3E2074687265AA
:10649400616420280000000029206E6F742072655A
:1064A4006164792100000000546865206C61737494
:1064B400207468726561642068617320657869740A
:1064C400656421005265626F6F74696E6720746839
:1064D40065206D616368696E65202E2E2E000000B4
:1064E400526573756D652063616C6C656420666FBD
:1064F4007220756E73757370656E646564206F6267
:106504006A656374210000004D616368696E653AD1
:106514003A7265626F6F74282900000050414E4939
:0465240043210A0005
:10652800FFFFFFFF75422000DD4220009D44200050
:10653800C54420004D452000154820007D4F20000F
:10654800255320002D5E20009D62200000000000E1
:08655800FFFFFFFF000000003F
:040000050020411C7A
:020000040027D3
:0CFFD400FFFFFFEF000000000000200015
:00000001FF
